{
  "contractName": "BoundPoll",
  "abi": [
    {
      "constant": true,
      "inputs": [
        {
          "name": "",
          "type": "uint256"
        }
      ],
      "name": "proposals",
      "outputs": [
        {
          "name": "voteCount",
          "type": "uint256"
        },
        {
          "name": "voteWeight",
          "type": "uint256"
        },
        {
          "name": "name",
          "type": "bytes32"
        }
      ],
      "payable": false,
      "stateMutability": "view",
      "type": "function"
    },
    {
      "constant": true,
      "inputs": [],
      "name": "getName",
      "outputs": [
        {
          "name": "",
          "type": "bytes32"
        }
      ],
      "payable": false,
      "stateMutability": "view",
      "type": "function"
    },
    {
      "constant": true,
      "inputs": [],
      "name": "pollName",
      "outputs": [
        {
          "name": "",
          "type": "bytes32"
        }
      ],
      "payable": false,
      "stateMutability": "view",
      "type": "function"
    },
    {
      "constant": true,
      "inputs": [],
      "name": "voterBaseLogic",
      "outputs": [
        {
          "name": "",
          "type": "bytes32"
        }
      ],
      "payable": false,
      "stateMutability": "view",
      "type": "function"
    },
    {
      "constant": true,
      "inputs": [],
      "name": "pollType",
      "outputs": [
        {
          "name": "",
          "type": "bytes32"
        }
      ],
      "payable": false,
      "stateMutability": "view",
      "type": "function"
    },
    {
      "constant": true,
      "inputs": [],
      "name": "capPercent",
      "outputs": [
        {
          "name": "",
          "type": "uint256"
        }
      ],
      "payable": false,
      "stateMutability": "view",
      "type": "function"
    },
    {
      "constant": true,
      "inputs": [],
      "name": "endTime",
      "outputs": [
        {
          "name": "",
          "type": "uint256"
        }
      ],
      "payable": false,
      "stateMutability": "view",
      "type": "function"
    },
    {
      "constant": true,
      "inputs": [
        {
          "name": "_to",
          "type": "address"
        }
      ],
      "name": "calculateVoteWeight",
      "outputs": [
        {
          "name": "",
          "type": "uint256"
        }
      ],
      "payable": false,
      "stateMutability": "view",
      "type": "function"
    },
    {
      "constant": false,
      "inputs": [],
      "name": "unFreezeTokens",
      "outputs": [],
      "payable": false,
      "stateMutability": "nonpayable",
      "type": "function"
    },
    {
      "constant": true,
      "inputs": [],
      "name": "getEndTime",
      "outputs": [
        {
          "name": "",
          "type": "uint256"
        }
      ],
      "payable": false,
      "stateMutability": "view",
      "type": "function"
    },
    {
      "constant": false,
      "inputs": [],
      "name": "revokeVote",
      "outputs": [],
      "payable": false,
      "stateMutability": "nonpayable",
      "type": "function"
    },
    {
      "constant": true,
      "inputs": [],
      "name": "getVoterCounts",
      "outputs": [
        {
          "name": "",
          "type": "uint256[]"
        }
      ],
      "payable": false,
      "stateMutability": "view",
      "type": "function"
    },
    {
      "constant": true,
      "inputs": [],
      "name": "capWeight",
      "outputs": [
        {
          "name": "",
          "type": "uint256"
        }
      ],
      "payable": false,
      "stateMutability": "view",
      "type": "function"
    },
    {
      "constant": true,
      "inputs": [],
      "name": "winningProposal",
      "outputs": [
        {
          "name": "",
          "type": "uint8"
        }
      ],
      "payable": false,
      "stateMutability": "view",
      "type": "function"
    },
    {
      "constant": true,
      "inputs": [],
      "name": "getProposals",
      "outputs": [
        {
          "name": "",
          "type": "bytes32[]"
        }
      ],
      "payable": false,
      "stateMutability": "view",
      "type": "function"
    },
    {
      "constant": true,
      "inputs": [
        {
          "name": "",
          "type": "uint256"
        }
      ],
      "name": "protocolAddresses",
      "outputs": [
        {
          "name": "",
          "type": "address"
        }
      ],
      "payable": false,
      "stateMutability": "view",
      "type": "function"
    },
    {
      "constant": true,
      "inputs": [],
      "name": "startTime",
      "outputs": [
        {
          "name": "",
          "type": "uint256"
        }
      ],
      "payable": false,
      "stateMutability": "view",
      "type": "function"
    },
    {
      "constant": true,
      "inputs": [
        {
          "name": "_proposalId",
          "type": "uint256"
        }
      ],
      "name": "getVoteTally",
      "outputs": [
        {
          "name": "",
          "type": "uint256"
        }
      ],
      "payable": false,
      "stateMutability": "view",
      "type": "function"
    },
    {
      "constant": true,
      "inputs": [],
      "name": "getProtocolAddresses",
      "outputs": [
        {
          "name": "",
          "type": "address[]"
        }
      ],
      "payable": false,
      "stateMutability": "view",
      "type": "function"
    },
    {
      "constant": true,
      "inputs": [
        {
          "name": "",
          "type": "address"
        }
      ],
      "name": "voters",
      "outputs": [
        {
          "name": "voted",
          "type": "bool"
        },
        {
          "name": "vote",
          "type": "uint8"
        },
        {
          "name": "delegate",
          "type": "address"
        },
        {
          "name": "weight",
          "type": "uint256"
        }
      ],
      "payable": false,
      "stateMutability": "view",
      "type": "function"
    },
    {
      "constant": true,
      "inputs": [],
      "name": "hasPollEnded",
      "outputs": [
        {
          "name": "",
          "type": "bool"
        }
      ],
      "payable": false,
      "stateMutability": "view",
      "type": "function"
    },
    {
      "constant": true,
      "inputs": [],
      "name": "hasPollStarted",
      "outputs": [
        {
          "name": "",
          "type": "bool"
        }
      ],
      "payable": false,
      "stateMutability": "view",
      "type": "function"
    },
    {
      "constant": false,
      "inputs": [
        {
          "name": "_proposal",
          "type": "uint8"
        }
      ],
      "name": "vote",
      "outputs": [],
      "payable": false,
      "stateMutability": "nonpayable",
      "type": "function"
    },
    {
      "constant": true,
      "inputs": [],
      "name": "getPollType",
      "outputs": [
        {
          "name": "",
          "type": "bytes32"
        }
      ],
      "payable": false,
      "stateMutability": "view",
      "type": "function"
    },
    {
      "constant": true,
      "inputs": [],
      "name": "getVoterBaseLogic",
      "outputs": [
        {
          "name": "",
          "type": "bytes32"
        }
      ],
      "payable": false,
      "stateMutability": "view",
      "type": "function"
    },
    {
      "constant": true,
      "inputs": [],
      "name": "isPollValid",
      "outputs": [
        {
          "name": "",
          "type": "bool"
        }
      ],
      "payable": false,
      "stateMutability": "view",
      "type": "function"
    },
    {
      "constant": true,
      "inputs": [],
      "name": "getStartTime",
      "outputs": [
        {
          "name": "",
          "type": "uint256"
        }
      ],
      "payable": false,
      "stateMutability": "view",
      "type": "function"
    },
    {
      "constant": true,
      "inputs": [],
      "name": "getVoteTallies",
      "outputs": [
        {
          "name": "",
          "type": "uint256[]"
        }
      ],
      "payable": false,
      "stateMutability": "view",
      "type": "function"
    },
    {
      "constant": true,
      "inputs": [
        {
          "name": "_proposalId",
          "type": "uint256"
        }
      ],
      "name": "getVoterCount",
      "outputs": [
        {
          "name": "",
          "type": "uint256"
        }
      ],
      "payable": false,
      "stateMutability": "view",
      "type": "function"
    },
    {
      "constant": true,
      "inputs": [],
      "name": "token",
      "outputs": [
        {
          "name": "",
          "type": "address"
        }
      ],
      "payable": false,
      "stateMutability": "view",
      "type": "function"
    },
    {
      "inputs": [
        {
          "name": "_protocolAddresses",
          "type": "address[]"
        },
        {
          "name": "_proposalNames",
          "type": "bytes32[]"
        },
        {
          "name": "_tokenAddress",
          "type": "address"
        },
        {
          "name": "_capPercent",
          "type": "uint256"
        },
        {
          "name": "_voterBaseLogic",
          "type": "bytes32"
        },
        {
          "name": "_pollName",
          "type": "bytes32"
        },
        {
          "name": "_pollType",
          "type": "bytes32"
        },
        {
          "name": "_startTime",
          "type": "uint256"
        },
        {
          "name": "_duration",
          "type": "uint256"
        }
      ],
      "payable": false,
      "stateMutability": "nonpayable",
      "type": "constructor"
    },
    {
      "anonymous": false,
      "inputs": [
        {
          "indexed": true,
          "name": "_from",
          "type": "address"
        },
        {
          "indexed": true,
          "name": "_to",
          "type": "uint8"
        },
        {
          "indexed": false,
          "name": "voteWeight",
          "type": "uint256"
        }
      ],
      "name": "TriedToVote",
      "type": "event"
    },
    {
      "anonymous": false,
      "inputs": [
        {
          "indexed": true,
          "name": "_from",
          "type": "address"
        },
        {
          "indexed": true,
          "name": "_to",
          "type": "uint8"
        },
        {
          "indexed": false,
          "name": "voteWeight",
          "type": "uint256"
        }
      ],
      "name": "CastVote",
      "type": "event"
    },
    {
      "anonymous": false,
      "inputs": [
        {
          "indexed": true,
          "name": "_from",
          "type": "address"
        },
        {
          "indexed": true,
          "name": "_to",
          "type": "uint8"
        },
        {
          "indexed": false,
          "name": "voteWeight",
          "type": "uint256"
        }
      ],
      "name": "RevokedVote",
      "type": "event"
    },
    {
      "constant": true,
      "inputs": [
        {
          "name": "_to",
          "type": "address"
        }
      ],
      "name": "canVote",
      "outputs": [
        {
          "name": "",
          "type": "bool"
        }
      ],
      "payable": false,
      "stateMutability": "view",
      "type": "function"
    },
    {
      "constant": true,
      "inputs": [],
      "name": "getVoterBaseDenominator",
      "outputs": [
        {
          "name": "",
          "type": "uint256"
        }
      ],
      "payable": false,
      "stateMutability": "view",
      "type": "function"
    }
  ],
  "bytecode": "0x60806040523480156200001157600080fd5b5060405162001825380380620018258339810160409081528151602080840151928401516060850151608086015160a087015160c088015160e08901516101008a0151988a01805198909a019998959794969395929491939092918a918a918a918a918a918a918a918a918a918a918a9188918891889188918891889188918891889188918891889160009111156200010b57604080517f08c379a000000000000000000000000000000000000000000000000000000000815260206004820152601e60248201527f50726f706f73616c73206d757374206265206c657373207468616e2033320000604482015290519081900360640190fd5b8751620001209060069060208b01906200042a565b5060028690556000859055600184905560038390558183016004819055831115620001ac57604080517f08c379a000000000000000000000000000000000000000000000000000000000815260206004820152600d60248201527f496e76616c69642054696d657300000000000000000000000000000000000000604482015290519081900360640190fd5b5060005b86518160ff161015620002315760056060604051908101604052806000815260200160008152602001898460ff16815181101515620001eb57fe5b60209081029091018101519091528254600181810185556000948552938290208351600390920201908155908201518184015560409091015160029091015501620001b0565b50505050505050505050505050505086600860006101000a815481600160a060020a030219169083600160a060020a03160217905550856009819055506200033c6200032687600860009054906101000a9004600160a060020a0316600160a060020a031663683d8baf6040518163ffffffff167c0100000000000000000000000000000000000000000000000000000000028152600401602060405180830381600087803b158015620002e457600080fd5b505af1158015620002f9573d6000803e3d6000fd5b505050506040513d60208110156200031057600080fd5b5051640100000000620012da620003c882021704565b6064640100000000620013086200040582021704565b600a556103e88610620003b057604080517f08c379a000000000000000000000000000000000000000000000000000000000815260206004820152601f60248201527f50657263656e74616765206d757374206265206c657373207468616e20313000604482015290519081900360640190fd5b505050505050505050505050505050505050620004be565b600080831515620003dd5760009150620003fe565b50828202828482811515620003ee57fe5b0414620003fa57600080fd5b8091505b5092915050565b6000808083116200041557600080fd5b82848115156200042157fe5b04949350505050565b82805482825590600052602060002090810192821562000482579160200282015b82811115620004825782518254600160a060020a031916600160a060020a039091161782556020909201916001909101906200044b565b506200049092915062000494565b5090565b620004bb91905b8082111562000490578054600160a060020a03191681556001016200049b565b90565b61135780620004ce6000396000f3006080604052600436106101955763ffffffff7c0100000000000000000000000000000000000000000000000000000000600035041663013cf08b811461019a57806317d7de7c146101d057806318769765146101f757806320574a671461020c578063237637a814610221578063259845f8146102365780633197cbb61461024b5780633fbd4216146102605780633fd255e71461028e578063439f5ac2146102a557806343c14b22146102ba57806344a09e65146102cf5780634d49f3b914610334578063609ff1bd1461034957806362564c48146103745780636a7620601461038957806378e97925146103ca57806379cc9351146103df5780639e35bf13146103f7578063a1774da01461040c578063a3ec138d14610421578063acd82ac91461048e578063adfaa72e146104b7578063ae015e5d146104e5578063b3f98adc146104fa578063b6d325a314610515578063baf8f4411461052a578063c1c888d21461053f578063c828371e14610554578063ca656e5a14610569578063e92e5c341461057e578063fc0c546a14610596575b600080fd5b3480156101a657600080fd5b506101b26004356105ab565b60408051938452602084019290925282820152519081900360600190f35b3480156101dc57600080fd5b506101e56105dc565b60408051918252519081900360200190f35b34801561020357600080fd5b506101e56105e2565b34801561021857600080fd5b506101e56105e8565b34801561022d57600080fd5b506101e56105ee565b34801561024257600080fd5b506101e56105f4565b34801561025757600080fd5b506101e56105fa565b34801561026c57600080fd5b506101e573ffffffffffffffffffffffffffffffffffffffff60043516610600565b34801561029a57600080fd5b506102a36106cb565b005b3480156102b157600080fd5b506101e5610842565b3480156102c657600080fd5b506102a3610848565b3480156102db57600080fd5b506102e4610b14565b60408051602080825283518183015283519192839290830191858101910280838360005b83811015610320578181015183820152602001610308565b505050509050019250505060405180910390f35b34801561034057600080fd5b506101e5610b9b565b34801561035557600080fd5b5061035e610ba1565b6040805160ff9092168252519081900360200190f35b34801561038057600080fd5b506102e4610c1a565b34801561039557600080fd5b506103a1600435610c9b565b6040805173ffffffffffffffffffffffffffffffffffffffff9092168252519081900360200190f35b3480156103d657600080fd5b506101e5610cd0565b3480156103eb57600080fd5b506101e5600435610cd6565b34801561040357600080fd5b506101e5610d00565b34801561041857600080fd5b506102e4610e0e565b34801561042d57600080fd5b5061044f73ffffffffffffffffffffffffffffffffffffffff60043516610e7d565b60408051941515855260ff909316602085015273ffffffffffffffffffffffffffffffffffffffff909116838301526060830152519081900360800190f35b34801561049a57600080fd5b506104a3610ec3565b604080519115158252519081900360200190f35b3480156104c357600080fd5b506104a373ffffffffffffffffffffffffffffffffffffffff60043516610ecb565b3480156104f157600080fd5b506104a3610f93565b34801561050657600080fd5b506102a360ff60043516610f9c565b34801561052157600080fd5b506101e56111e6565b34801561053657600080fd5b506101e56111ec565b34801561054b57600080fd5b506104a36111f2565b34801561056057600080fd5b506101e561120d565b34801561057557600080fd5b506102e4611213565b34801561058a57600080fd5b506101e5600435611294565b3480156105a257600080fd5b506103a16112be565b60058054829081106105b957fe5b600091825260209091206003909102018054600182015460029092015490925083565b60005490565b60005481565b60025481565b60015481565b60095481565b60045481565b600854604080517f70a0823100000000000000000000000000000000000000000000000000000000815273ffffffffffffffffffffffffffffffffffffffff8481166004830152915160009384936106af939116916370a082319160248082019260209290919082900301818887803b15801561067c57600080fd5b505af1158015610690573d6000803e3d6000fd5b505050506040513d60208110156106a657600080fd5b505160646112da565b9050600a5481116106c057806106c4565b600a545b9392505050565b6106d433610ecb565b151561074157604080517f08c379a000000000000000000000000000000000000000000000000000000000815260206004820152601160248201527f4e6f7420612076616c696420766f746572000000000000000000000000000000604482015290519081900360640190fd5b610749610ec3565b15156107b657604080517f08c379a000000000000000000000000000000000000000000000000000000000815260206004820152601260248201527f506f6c6c20686173206e6f7420656e6465640000000000000000000000000000604482015290519081900360640190fd5b600854604080517f53cc2fae000000000000000000000000000000000000000000000000000000008152336004820152905173ffffffffffffffffffffffffffffffffffffffff909216916353cc2fae9160248082019260009290919082900301818387803b15801561082857600080fd5b505af115801561083c573d6000803e3d6000fd5b50505050565b60045490565b600080600061085633610ecb565b15156108c357604080517f08c379a000000000000000000000000000000000000000000000000000000000815260206004820152601160248201527f4e6f7420612076616c696420766f746572000000000000000000000000000000604482015290519081900360640190fd5b6108cb6111f2565b151561093857604080517f08c379a000000000000000000000000000000000000000000000000000000000815260206004820181905260248201527f506f6c6c206861736e27742073746172746564206f722068617320656e646564604482015290519081900360640190fd5b336000908152600760205260409020805490935060ff1615156109bc57604080517f08c379a000000000000000000000000000000000000000000000000000000000815260206004820152601160248201527f4861736e27742079657420766f7465642e000000000000000000000000000000604482015290519081900360640190fd5b50508054600182015460ff1982168084556005805460ff61010095869004811695859404169081106109ea57fe5b6000918252602090912060016003909202018101805492909203909155835460058054909160ff61010090910416908110610a2157fe5b600091825260208083206003909202909101805493909303909255845461ff0019168555600185015560408051838152905160ff85169233927f49be09e3fc84da8de5a4917a06e95f8acea71828e157541c9396a9b6aa45d4f3929081900390910190a3600854604080517f53cc2fae000000000000000000000000000000000000000000000000000000008152336004820152905173ffffffffffffffffffffffffffffffffffffffff909216916353cc2fae9160248082019260009290919082900301818387803b158015610af757600080fd5b505af1158015610b0b573d6000803e3d6000fd5b50505050505050565b6040805160208082526104208201909252606091829160009180820161040080388339019050509150600090505b60055460ff82161015610b95576005805460ff8316908110610b6057fe5b906000526020600020906003020160000154828260ff16815181101515610b8357fe5b60209081029091010152600101610b42565b50919050565b600a5481565b60008080805b60055460ff82161015610c10578160058260ff16815481101515610bc757fe5b9060005260206000209060030201600001541115610c08576005805460ff8316908110610bf057fe5b90600052602060002090600302016000015491508092505b600101610ba7565b8293505b50505090565b6040805160208082526104208201909252606091829160009180820161040080388339019050509150600090505b60055460ff82161015610b95576005805460ff8316908110610c6657fe5b906000526020600020906003020160020154828260ff16815181101515610c8957fe5b60209081029091010152600101610c48565b6006805482908110610ca957fe5b60009182526020909120015473ffffffffffffffffffffffffffffffffffffffff16905081565b60035481565b6000600582815481101515610ce757fe5b9060005260206000209060030201600101549050919050565b60085460055460009173ffffffffffffffffffffffffffffffffffffffff169082908190600110610dc2578273ffffffffffffffffffffffffffffffffffffffff1663dd06bfba6040518163ffffffff167c0100000000000000000000000000000000000000000000000000000000028152600401602060405180830381600087803b158015610d8f57600080fd5b505af1158015610da3573d6000803e3d6000fd5b505050506040513d6020811015610db957600080fd5b50519350610c14565b5060009050805b60055460ff82161015610e07576005805460ff8316908110610de757fe5b600091825260209091206001600390920201810154929092019101610dc9565b5092915050565b60606006805480602002602001604051908101604052809291908181526020018280548015610e7357602002820191906000526020600020905b815473ffffffffffffffffffffffffffffffffffffffff168152600190910190602001808311610e48575b5050505050905090565b6007602052600090815260409020805460019091015460ff808316926101008104909116916201000090910473ffffffffffffffffffffffffffffffffffffffff169084565b600454421190565b60008060066000815481101515610ede57fe5b6000918252602080832090910154604080517fae6b114300000000000000000000000000000000000000000000000000000000815273ffffffffffffffffffffffffffffffffffffffff88811660048301529151919092169450849363ae6b114393602480850194919392918390030190829087803b158015610f6057600080fd5b505af1158015610f74573d6000803e3d6000fd5b505050506040513d6020811015610f8a57600080fd5b50519392505050565b60035442101590565b600080610fa76111f2565b151561101457604080517f08c379a000000000000000000000000000000000000000000000000000000000815260206004820181905260248201527f506f6c6c206861736e27742073746172746564206f722068617320656e646564604482015290519081900360640190fd5b336000818152600760205260409020925061102e90610600565b905061103933610ecb565b80156110475750815460ff16155b8015611057575060055460ff8416105b156111a657815460ff8416610100810261ff001960ff1990931660019081179390931617845590830182905560058054839290811061109257fe5b600091825260209091206001600390920201810180549092019091556005805460ff86169081106110bf57fe5b600091825260209182902060039091020180549092019091556001830154604080519182525160ff86169233927fd6f49aab6565b56612b881817204c72172e62ac89374c6a8d869c363d785be73929081900390910190a3600854604080517ff26c159f000000000000000000000000000000000000000000000000000000008152336004820152905173ffffffffffffffffffffffffffffffffffffffff9092169163f26c159f9160248082019260009290919082900301818387803b15801561118957600080fd5b505af115801561119d573d6000803e3d6000fd5b505050506111e1565b60408051828152905160ff85169133917f532cea1f2d5ee838618e25edd1cf517281ecd9845598bd18a53cf61a8e877bf09181900360200190a35b505050565b60015490565b60025490565b6000600354421015801561120857506004544211155b905090565b60035490565b6040805160208082526104208201909252606091829160009180820161040080388339019050509150600090505b60055460ff82161015610b95576005805460ff831690811061125f57fe5b906000526020600020906003020160010154828260ff1681518110151561128257fe5b60209081029091010152600101611241565b60006005828154811015156112a557fe5b9060005260206000209060030201600001549050919050565b60085473ffffffffffffffffffffffffffffffffffffffff1681565b6000808315156112ed5760009150610e07565b508282028284828115156112fd57fe5b04146106c457600080fd5b60008080831161131757600080fd5b828481151561132257fe5b049493505050505600a165627a7a72305820e346bc7df3cf8c78b2b27d44ef1ac6ab1f2c09fe56cd4e804e89605c3dbe475e0029",
  "source": "pragma solidity ^0.4.25;\r\n\r\nimport \"electusvoting/contracts/poll/TokenProportionalCappedBound.sol\";\r\nimport \"../Interfaces/IDaicoToken.sol\";\r\n\r\n\r\ncontract BoundPoll is TokenProportionalCappedBound {\r\n    \r\n    constructor(address[] _protocolAddresses, bytes32[] _proposalNames, address _tokenAddress, uint _capPercent, \r\n    bytes32 _voterBaseLogic, bytes32 _pollName, bytes32 _pollType, uint _startTime, uint _duration) \r\n        public TokenProportionalCappedBound(_protocolAddresses, _proposalNames, _tokenAddress, _capPercent,\r\n        _voterBaseLogic, _pollName, _pollType, _startTime, _duration) {   \r\n        }\r\n\r\n    function canVote(address _to) public view returns (bool) {\r\n        //this is vault address and not 1261 of treasury\r\n        IERC1261 contract1 = IERC1261(protocolAddresses[0]);\r\n        return contract1.isCurrentMember(_to);\r\n    }\r\n\r\n    function getVoterBaseDenominator() public view returns (uint) {\r\n        IDaicoToken daicoToken = IDaicoToken(address(token));\r\n        if (proposals.length <= 1) {\r\n            return daicoToken.getTokensUnderGovernance();\r\n        }\r\n        uint proposalWeight = 0;\r\n        for (uint8 index = 0; index < proposals.length; index++) {\r\n            proposalWeight += proposals[index].voteWeight;\r\n        }\r\n        return proposalWeight;\r\n    }\r\n}",
  "sourcePath": "C:\\Users\\Naina\\source\\repos\\vault-sc\\contracts\\Poll\\BoundPoll.sol",
  "compiler": {
    "name": "solc",
    "version": "0.4.25+commit.59dbf8f1.Emscripten.clang"
  },
  "schemaVersion": "3.0.0-beta.0",
  "updatedAt": "2018-12-12T11:18:12.393Z"
}