{
  "contractName": "CrowdSale",
  "abi": [
    {
      "constant": true,
      "inputs": [],
      "name": "lockedTokens",
      "outputs": [
        {
          "name": "",
          "type": "address"
        }
      ],
      "payable": false,
      "stateMutability": "view",
      "type": "function"
    },
    {
      "constant": true,
      "inputs": [],
      "name": "treasury",
      "outputs": [
        {
          "name": "",
          "type": "address"
        }
      ],
      "payable": false,
      "stateMutability": "view",
      "type": "function"
    },
    {
      "constant": true,
      "inputs": [
        {
          "name": "",
          "type": "uint256"
        }
      ],
      "name": "foundationTokenWallets",
      "outputs": [
        {
          "name": "",
          "type": "address"
        }
      ],
      "payable": false,
      "stateMutability": "view",
      "type": "function"
    },
    {
      "constant": false,
      "inputs": [],
      "name": "renounceOwnership",
      "outputs": [],
      "payable": false,
      "stateMutability": "nonpayable",
      "type": "function"
    },
    {
      "constant": true,
      "inputs": [
        {
          "name": "",
          "type": "uint256"
        }
      ],
      "name": "foundationAmounts",
      "outputs": [
        {
          "name": "",
          "type": "uint256"
        }
      ],
      "payable": false,
      "stateMutability": "view",
      "type": "function"
    },
    {
      "constant": true,
      "inputs": [],
      "name": "erc20Token",
      "outputs": [
        {
          "name": "",
          "type": "address"
        }
      ],
      "payable": false,
      "stateMutability": "view",
      "type": "function"
    },
    {
      "constant": true,
      "inputs": [],
      "name": "currentRound",
      "outputs": [
        {
          "name": "",
          "type": "uint8"
        }
      ],
      "payable": false,
      "stateMutability": "view",
      "type": "function"
    },
    {
      "constant": true,
      "inputs": [],
      "name": "owner",
      "outputs": [
        {
          "name": "",
          "type": "address"
        }
      ],
      "payable": false,
      "stateMutability": "view",
      "type": "function"
    },
    {
      "constant": true,
      "inputs": [],
      "name": "isOwner",
      "outputs": [
        {
          "name": "",
          "type": "bool"
        }
      ],
      "payable": false,
      "stateMutability": "view",
      "type": "function"
    },
    {
      "constant": true,
      "inputs": [],
      "name": "membership",
      "outputs": [
        {
          "name": "",
          "type": "address"
        }
      ],
      "payable": false,
      "stateMutability": "view",
      "type": "function"
    },
    {
      "constant": true,
      "inputs": [],
      "name": "vaultMembership",
      "outputs": [
        {
          "name": "",
          "type": "address"
        }
      ],
      "payable": false,
      "stateMutability": "view",
      "type": "function"
    },
    {
      "constant": true,
      "inputs": [],
      "name": "etherMinContrib",
      "outputs": [
        {
          "name": "",
          "type": "uint256"
        }
      ],
      "payable": false,
      "stateMutability": "view",
      "type": "function"
    },
    {
      "constant": true,
      "inputs": [
        {
          "name": "",
          "type": "uint256"
        }
      ],
      "name": "roundDetails",
      "outputs": [
        {
          "name": "tokenCount",
          "type": "uint256"
        },
        {
          "name": "tokenRate",
          "type": "uint256"
        },
        {
          "name": "totalTokensSold",
          "type": "uint256"
        },
        {
          "name": "endTime",
          "type": "uint256"
        },
        {
          "name": "startTime",
          "type": "uint256"
        }
      ],
      "payable": false,
      "stateMutability": "view",
      "type": "function"
    },
    {
      "constant": true,
      "inputs": [
        {
          "name": "",
          "type": "address"
        },
        {
          "name": "",
          "type": "uint256"
        }
      ],
      "name": "userContributonDetails",
      "outputs": [
        {
          "name": "contributionRound",
          "type": "uint8"
        },
        {
          "name": "amount",
          "type": "uint256"
        }
      ],
      "payable": false,
      "stateMutability": "view",
      "type": "function"
    },
    {
      "constant": true,
      "inputs": [],
      "name": "currentRoundEndTime",
      "outputs": [
        {
          "name": "",
          "type": "uint256"
        }
      ],
      "payable": false,
      "stateMutability": "view",
      "type": "function"
    },
    {
      "constant": true,
      "inputs": [],
      "name": "etherMaxContrib",
      "outputs": [
        {
          "name": "",
          "type": "uint256"
        }
      ],
      "payable": false,
      "stateMutability": "view",
      "type": "function"
    },
    {
      "constant": false,
      "inputs": [
        {
          "name": "newOwner",
          "type": "address"
        }
      ],
      "name": "transferOwnership",
      "outputs": [],
      "payable": false,
      "stateMutability": "nonpayable",
      "type": "function"
    },
    {
      "constant": true,
      "inputs": [],
      "name": "VERSION",
      "outputs": [
        {
          "name": "",
          "type": "uint256"
        }
      ],
      "payable": false,
      "stateMutability": "view",
      "type": "function"
    },
    {
      "inputs": [
        {
          "name": "_etherMinContrib",
          "type": "uint256"
        },
        {
          "name": "_etherMaxContrib",
          "type": "uint256"
        },
        {
          "name": "_r1EndTime",
          "type": "uint256"
        },
        {
          "name": "_r1StartTime",
          "type": "uint256"
        },
        {
          "name": "_roundTokenCounts",
          "type": "uint256[3]"
        },
        {
          "name": "_roundtokenRates",
          "type": "uint256[3]"
        },
        {
          "name": "_lockedTokensAddress",
          "type": "address"
        },
        {
          "name": "_treasuryAddress",
          "type": "address"
        },
        {
          "name": "_membershipAddress",
          "type": "address"
        },
        {
          "name": "_erc20TokenAddress",
          "type": "address"
        },
        {
          "name": "_vaultMembershipAddress",
          "type": "address"
        },
        {
          "name": "_foundationTokenWallets",
          "type": "address[]"
        },
        {
          "name": "_foundationAmounts",
          "type": "uint256[]"
        }
      ],
      "payable": false,
      "stateMutability": "nonpayable",
      "type": "constructor"
    },
    {
      "payable": true,
      "stateMutability": "payable",
      "type": "fallback"
    },
    {
      "anonymous": false,
      "inputs": [
        {
          "indexed": false,
          "name": "contributor",
          "type": "address"
        },
        {
          "indexed": false,
          "name": "etherAmount",
          "type": "uint256"
        },
        {
          "indexed": false,
          "name": "tokenAmount",
          "type": "uint256"
        }
      ],
      "name": "LogContribution",
      "type": "event"
    },
    {
      "anonymous": false,
      "inputs": [
        {
          "indexed": true,
          "name": "previousOwner",
          "type": "address"
        },
        {
          "indexed": true,
          "name": "newOwner",
          "type": "address"
        }
      ],
      "name": "OwnershipTransferred",
      "type": "event"
    },
    {
      "constant": false,
      "inputs": [],
      "name": "mintFoundationTokens",
      "outputs": [],
      "payable": false,
      "stateMutability": "nonpayable",
      "type": "function"
    },
    {
      "constant": false,
      "inputs": [],
      "name": "finalizeRoundOne",
      "outputs": [],
      "payable": false,
      "stateMutability": "nonpayable",
      "type": "function"
    },
    {
      "constant": false,
      "inputs": [],
      "name": "startNewRound",
      "outputs": [],
      "payable": false,
      "stateMutability": "nonpayable",
      "type": "function"
    },
    {
      "constant": true,
      "inputs": [
        {
          "name": "_contributor",
          "type": "address"
        }
      ],
      "name": "canContribute",
      "outputs": [
        {
          "name": "",
          "type": "bool"
        }
      ],
      "payable": false,
      "stateMutability": "view",
      "type": "function"
    }
  ],
  "bytecode": "0x60806040523480156200001157600080fd5b5060405162001ba438038062001ba4833981016040818152825160208401519184015160608501516101408601516101608701516101808801516101a08901516101c08a01516101e08b01516102008c015160008054600160a060020a03191633178082559a9d9b9c999b989a60808a019a60e08b019a948501949390930192600160a060020a03919091169082907f8be0079c531659141344cd1fd0a4f28419497f9722a3daafe3b4186f6b6457e0908290a360128054600160a060020a0319908116600160a060020a038b8116919091179092556010805482168884161790556013805482168784161790556011805482168a84161790556014805490911691881691909117905581518351146200012757fe5b601160009054906101000a9004600160a060020a0316600160a060020a031663113ad34e6040518163ffffffff167c0100000000000000000000000000000000000000000000000000000000028152600401602060405180830381600087803b1580156200019457600080fd5b505af1158015620001a9573d6000803e3d6000fd5b505050506040513d6020811015620001c057600080fd5b505190508b8114620001ce57fe5b8251620001e39060189060208601906200037b565b508151620001f9906019906020850190620003e5565b5060158e905560168d90556040805160a0810182528b5181528a5160208201526000918101829052606081018e9052608081018d90529060019060050201600082015181600001556020820151816001015560408201518160020155606082015181600301556080820151816004015590505060a0604051908101604052808b60016003811015156200028857fe5b6020908102919091015182528b810151828201526000604080840182905260608085018390526080948501839052855160065585840151600755858201516008558581015160095594840151600a55805160a0810182528f8201518152818f0151938101939093528201819052928101839052908101919091526001600282516005919091029190910190815560208201516001820155604082015160028201556060820151600382015560809091015160049091015550506014805460a060020a60ff0219167401000000000000000000000000000000000000000017905550620004789a5050505050505050505050565b828054828255906000526020600020908101928215620003d3579160200282015b82811115620003d35782518254600160a060020a031916600160a060020a039091161782556020909201916001909101906200039c565b50620003e192915062000431565b5090565b82805482825590600052602060002090810192821562000423579160200282015b828111156200042357825182559160200191906001019062000406565b50620003e19291506200045b565b6200045891905b80821115620003e1578054600160a060020a031916815560010162000438565b90565b6200045891905b80821115620003e1576000815560010162000462565b61171c80620004886000396000f3006080604052600436106101275763ffffffff7c01000000000000000000000000000000000000000000000000000000006000350416630eaec2c581146101ab5780630eb34740146101e057806331d9cd391461021157806361d027b3146102265780636d540eb71461023b578063715018a61461025357806372d04b77146102685780637d2edcf6146102925780638a13eea7146102a75780638a19c8bc146102bc5780638da5cb5b146102f55780638f32d59b1461030a578063a2bf68b91461031f578063ad53fcdd14610334578063b4ab50f714610349578063ba166a391461035e578063bd85948c146103a1578063cd3d6b6c146103b6578063e643db4714610405578063e684abfd1461041a578063f2fde38b1461042f578063ffa1ad7414610450575b60145474010000000000000000000000000000000000000000900460ff161561019f57604080516000805160206116d1833981519152815260206004820152601360248201527f43726f776473616c652069732070617573656400000000000000000000000000604482015290519081900360640190fd5b6101a93334610465565b005b3480156101b757600080fd5b506101cc600160a060020a03600435166107f8565b604080519115158252519081900360200190f35b3480156101ec57600080fd5b506101f5610931565b60408051600160a060020a039092168252519081900360200190f35b34801561021d57600080fd5b506101a9610940565b34801561023257600080fd5b506101f5610a1b565b34801561024757600080fd5b506101f5600435610a2a565b34801561025f57600080fd5b506101a9610a52565b34801561027457600080fd5b50610280600435610abc565b60408051918252519081900360200190f35b34801561029e57600080fd5b506101a9610adb565b3480156102b357600080fd5b506101f5610dd4565b3480156102c857600080fd5b506102d1610de3565b604051808260048111156102e157fe5b60ff16815260200191505060405180910390f35b34801561030157600080fd5b506101f5610dec565b34801561031657600080fd5b506101cc610dfb565b34801561032b57600080fd5b506101f5610e0c565b34801561034057600080fd5b506101f5610e1b565b34801561035557600080fd5b50610280610e2a565b34801561036a57600080fd5b50610376600435610e30565b6040805195865260208601949094528484019290925260608401526080830152519081900360a00190f35b3480156103ad57600080fd5b506101a9610e62565b3480156103c257600080fd5b506103da600160a060020a0360043516602435611316565b604051808360048111156103ea57fe5b60ff1681526020018281526020019250505060405180910390f35b34801561041157600080fd5b50610280611347565b34801561042657600080fd5b5061028061134d565b34801561043b57600080fd5b506101a9600160a060020a0360043516611353565b34801561045c57600080fd5b5061028061136f565b600080600080600080600080600061047b611374565b801561048b575061048b336107f8565b15156104e657604080516000805160206116d1833981519152815260206004820152601860248201527f4e6f7420612076616c696420636f6e747269627574696f6e0000000000000000604482015290519081900360640190fd5b601c5460ff1660048111156104f757fe5b985088151561055f5760175442111561055f57604080516000805160206116d1833981519152815260206004820152601660248201527f466972737420726f756e64206861732070617373656400000000000000000000604482015290519081900360640190fd5b6001896003811061056c57fe5b6005020197506105808a8960010154611463565b965061059087896002015461149c565b8854909650600095508594508493508610156105b857600288018690558994508692506106b4565b6105ca886000015489600201546114ae565b91506105da8289600101546114c5565b885460028a0155945090915081906105f28a866114ae565b935088151561067a57601154604080517f7a5ce13e000000000000000000000000000000000000000000000000000000008152600481018d90529051600160a060020a0390921691637a5ce13e9160248082019260009290919082900301818387803b15801561066157600080fd5b505af1158015610675573d6000803e3d6000fd5b505050505b426017556014805474ff00000000000000000000000000000000000000001916740100000000000000000000000000000000000000001790555b600160a060020a038b166000908152601b6020526040902089600381106106d757fe5b6002020190506106eb81600101548661149c565b60018201556106fb8b86856114e8565b60008411156107eb5788600214156107b357601060009054906101000a9004600160a060020a0316600160a060020a0316637d64bcb46040518163ffffffff167c0100000000000000000000000000000000000000000000000000000000028152600401602060405180830381600087803b15801561077957600080fd5b505af115801561078d573d6000803e3d6000fd5b505050506040513d60208110156107a357600080fd5b5050601c805460ff191660031790555b604051600160a060020a038c169085156108fc029086906000818181858888f193505050501580156107e9573d6000803e3d6000fd5b505b5050505050505050505050565b601354604080517fae6b1143000000000000000000000000000000000000000000000000000000008152600160a060020a0384811660048301529151600093929092169163ae6b11439160248082019260209290919082900301818787803b15801561086357600080fd5b505af1158015610877573d6000803e3d6000fd5b505050506040513d602081101561088d57600080fd5b5051801561092b5750601454604080517fae6b1143000000000000000000000000000000000000000000000000000000008152600160a060020a0385811660048301529151919092169163ae6b11439160248083019260209291908290030181600087803b1580156108fe57600080fd5b505af1158015610912573d6000803e3d6000fd5b505050506040513d602081101561092857600080fd5b50515b92915050565b601254600160a060020a031681565b6017546001904210801590610959575080546002820154105b15610a18576014805474ff0000000000000000000000000000000000000000191674010000000000000000000000000000000000000000179055601c8054600460ff199091168117909155601154604080517f3b64e77e0000000000000000000000000000000000000000000000000000000081529051600160a060020a0390921692633b64e77e92828201926000929082900301818387803b1580156109ff57600080fd5b505af1158015610a13573d6000803e3d6000fd5b505050505b50565b601154600160a060020a031681565b6018805482908110610a3857fe5b600091825260209091200154600160a060020a0316905081565b610a5a610dfb565b1515610a6557600080fd5b60008054604051600160a060020a03909116907f8be0079c531659141344cd1fd0a4f28419497f9722a3daafe3b4186f6b6457e0908390a36000805473ffffffffffffffffffffffffffffffffffffffff19169055565b6019805482908110610aca57fe5b600091825260209091200154905081565b601a546000908190819081908190819060ff1615610b4857604080516000805160206116d1833981519152815260206004820181905260248201527f416c7265616479206d696e74656420666f756e646174696f6e20746f6b656e73604482015290519081900360640190fd5b601a805460ff19166001179055600095508594505b601854851015610c7257610b8a86601987815481101515610b7a57fe5b906000526020600020015461149c565b60125460188054929850600160a060020a039091169163ca056aed919088908110610bb157fe5b60009182526020909120015460198054600160a060020a039092169189908110610bd757fe5b6000918252602082200154604080517c010000000000000000000000000000000000000000000000000000000063ffffffff8716028152600160a060020a03909416600485015260248401919091526301e13380420160448401525160648084019382900301818387803b158015610c4e57600080fd5b505af1158015610c62573d6000803e3d6000fd5b505060019096019550610b5d9050565b600b80546006805460018054601054604080517f683d8baf0000000000000000000000000000000000000000000000000000000081529051939b509499509597509394919392600160a060020a039092169163683d8baf9160048083019260209291908290030181600087803b158015610ceb57600080fd5b505af1158015610cff573d6000803e3d6000fd5b505050506040513d6020811015610d1557600080fd5b50510303039050858114610d2557fe5b601054601254604080517fd1a1beb4000000000000000000000000000000000000000000000000000000008152600160a060020a039283166004820152602481018a90526000604482018190529151929093169263d1a1beb49260648083019360209383900390910190829087803b158015610da057600080fd5b505af1158015610db4573d6000803e3d6000fd5b505050506040513d6020811015610dca57600080fd5b5050505050505050565b601054600160a060020a031681565b601c5460ff1681565b600054600160a060020a031690565b600054600160a060020a0316331490565b601454600160a060020a031681565b601354600160a060020a031681565b60155481565b60018160038110610e3d57fe5b6005020180546001820154600283015460038401546004909401549294509092909185565b6000610e6c610dfb565b1515610e7757600080fd5b60145474010000000000000000000000000000000000000000900460ff161515610ef057604080516000805160206116d1833981519152815260206004820152601860248201527f43726f776473616c65206d757374206265207061757365640000000000000000604482015290519081900360640190fd5b6004601c5460ff166004811115610f0357fe5b1415610f5e57604080516000805160206116d1833981519152815260206004820152601b60248201527f43726f776473616c65206973206b696c6c656420616c72656164790000000000604482015290519081900360640190fd5b6002601c5460ff166004811115610f7157fe5b1415610fcc57604080516000805160206116d1833981519152815260206004820152601260248201527f416c726561647920696e20726f756e6420330000000000000000000000000000604482015290519081900360640190fd5b62015180601754420311151561105757604080516000805160206116d1833981519152815260206004820152602760248201527f4d75737420776169742032342068727320746f20737461727420616e6f74686560448201527f7220726f756e6400000000000000000000000000000000000000000000000000606482015290519081900360840190fd5b601754156110cb57601c5460ff16600481111561107057fe5b600101600481111561107e57fe5b601c805460ff1916600183600481111561109457fe5b0217905550601c5460019060ff1660048111156110ad57fe5b600381106110b757fe5b6005020190504281600401819055506112f5565b600554421161112957604080516000805160206116d1833981519152815260206004820152600f60248201527f43616e2774207374617274207965740000000000000000000000000000000000604482015290519081900360640190fd5b600454421061118757604080516000805160206116d1833981519152815260206004820152601760248201527f466972737420726f756e642068617320656c6170736564000000000000000000604482015290519081900360640190fd5b601160009054906101000a9004600160a060020a0316600160a060020a031663acb506776040518163ffffffff167c0100000000000000000000000000000000000000000000000000000000028152600401602060405180830381600087803b1580156111f357600080fd5b505af1158015611207573d6000803e3d6000fd5b505050506040513d602081101561121d57600080fd5b5051151561127a57604080516000805160206116d1833981519152815260206004820152601c60248201527f4b696c6c732068617665206e6f74206265656e206465706c6f79656400000000604482015290519081900360640190fd5b60048054601755601154604080517f13845a700000000000000000000000000000000000000000000000000000000081529051600160a060020a03909216926313845a7092828201926000929082900301818387803b1580156112dc57600080fd5b505af11580156112f0573d6000803e3d6000fd5b505050505b506014805474ff000000000000000000000000000000000000000019169055565b601b602052600082815260409020816003811061132f57fe5b60020201805460019091015460ff9091169250905082565b60175481565b60165481565b61135b610dfb565b151561136657600080fd5b610a1881611653565b600181565b601c54600090819081908190819060ff16600481111561139057fe5b336000908152601b6020526040902090945084600381106113ad57fe5b6002020192506113c134846001015461149c565b9150600184600381106113d057fe5b60050201905060155434101580611405575080600001546114026113f8348460010154611463565b836002015461149c565b10155b801561144957506000601c5460ff16600481111561141f57fe5b14158061144957506000601c5460ff16600481111561143a57fe5b14801561144957506016548211155b15611457576001945061145c565b600094505b5050505090565b6000808315156114765760009150611495565b5082820282848281151561148657fe5b041461149157600080fd5b8091505b5092915050565b60008282018381101561149157600080fd5b600080838311156114be57600080fd5b5050900390565b6000808083116114d457600080fd5b82848115156114df57fe5b04949350505050565b601054604080517fd1a1beb4000000000000000000000000000000000000000000000000000000008152600160a060020a03868116600483015260248201859052600160448301529151919092169163d1a1beb49160648083019260209291908290030181600087803b15801561155e57600080fd5b505af1158015611572573d6000803e3d6000fd5b505050506040513d602081101561158857600080fd5b5050601154604080517f677ab1970000000000000000000000000000000000000000000000000000000081529051600160a060020a039092169163677ab197918591600480830192600092919082900301818588803b1580156115ea57600080fd5b505af11580156115fe573d6000803e3d6000fd5b505060408051600160a060020a03881681526020810187905280820186905290517f85f3c568c46211a851eab01fa3dd8725e07fb05eeaf9f852859aa866f787d9fe94509081900360600192509050a1505050565b600160a060020a038116151561166857600080fd5b60008054604051600160a060020a03808516939216917f8be0079c531659141344cd1fd0a4f28419497f9722a3daafe3b4186f6b6457e091a36000805473ffffffffffffffffffffffffffffffffffffffff1916600160a060020a0392909216919091179055560008c379a000000000000000000000000000000000000000000000000000000000a165627a7a72305820be724ab63575ca115f6bd36c6b766286aa34dda24f3fe0d470029d80a0c87d400029",
  "source": "pragma solidity ^0.4.25;\r\n\r\nimport \"./Interfaces/ILockedTokens.sol\";\r\nimport \"./Interfaces/IDaicoToken.sol\";\r\nimport \"membershipverificationtoken/contracts/Protocol/IERC1261.sol\";\r\nimport \"openzeppelin-solidity/contracts/math/SafeMath.sol\";\r\nimport \"./Interfaces/ICrowdSaleTreasury.sol\";\r\nimport \"openzeppelin-solidity/contracts/ownership/Ownable.sol\"; //need to check if necessary\r\n\r\n\r\ncontract CrowdSale is Ownable {\r\n    enum Round {\r\n        Round1,\r\n        Round2,\r\n        Round3,\r\n        R3Ended,\r\n        CrowdSaleRefund\r\n    }\r\n\r\n    struct Contribution {\r\n        Round contributionRound;\r\n        uint amount;\r\n    }\r\n\r\n    struct RoundData {\r\n        uint tokenCount;\r\n        uint tokenRate; //rate is in tokens/wei\r\n        uint totalTokensSold;\r\n        uint endTime;\r\n        uint startTime;\r\n    }\r\n\r\n    uint public constant VERSION = 1;\r\n\r\n    RoundData[3] public roundDetails;\r\n    IDaicoToken public erc20Token;\r\n    ICrowdSaleTreasury public treasury;\r\n    ILockedTokens public lockedTokens;\r\n    IERC1261 public vaultMembership;\r\n    IERC1261 public membership;\r\n\r\n    bool private paused;\r\n    uint public etherMinContrib;\r\n    uint public etherMaxContrib;\r\n    uint public currentRoundEndTime;\r\n    address[] public foundationTokenWallets; \r\n    uint[] public foundationAmounts;\r\n    bool internal mintedFoundationTokens;\r\n    mapping(address => Contribution[3]) public userContributonDetails;\r\n    Round public currentRound;\r\n\r\n    event LogContribution(address contributor, uint etherAmount, uint tokenAmount);\r\n\r\n    constructor (uint _etherMinContrib, uint _etherMaxContrib, uint _r1EndTime, uint _r1StartTime,\r\n        uint[3] _roundTokenCounts, uint[3] _roundtokenRates, address _lockedTokensAddress, \r\n        address _treasuryAddress, address _membershipAddress, address _erc20TokenAddress, \r\n        address _vaultMembershipAddress, address[] _foundationTokenWallets, uint[] _foundationAmounts) public {\r\n\r\n        lockedTokens = ILockedTokens(_lockedTokensAddress);\r\n        erc20Token = IDaicoToken(_erc20TokenAddress);\r\n        vaultMembership = IERC1261(_vaultMembershipAddress);\r\n        treasury = ICrowdSaleTreasury(_treasuryAddress);\r\n        membership = IERC1261(_membershipAddress);\r\n\r\n        assert(_foundationTokenWallets.length == _foundationAmounts.length);\r\n\r\n        uint killPollStartDate = treasury.getKillPollStartDate();\r\n        assert(killPollStartDate == _r1EndTime);\r\n        \r\n        foundationTokenWallets = _foundationTokenWallets;\r\n        foundationAmounts = _foundationAmounts;\r\n\r\n        etherMinContrib = _etherMinContrib;\r\n        etherMaxContrib = _etherMaxContrib;\r\n\r\n        roundDetails[0] = RoundData({\r\n            tokenCount: _roundTokenCounts[0], tokenRate: _roundtokenRates[0], endTime: _r1EndTime, totalTokensSold: 0, \r\n            startTime: _r1StartTime\r\n        });\r\n        roundDetails[1] = RoundData({\r\n            tokenCount: _roundTokenCounts[1], tokenRate: _roundtokenRates[1], endTime: 0, totalTokensSold: 0, \r\n            startTime: 0\r\n        });\r\n        roundDetails[2] = RoundData({\r\n            tokenCount: _roundTokenCounts[2], tokenRate: _roundtokenRates[2], endTime: 0, totalTokensSold: 0, \r\n            startTime: 0\r\n        });\r\n        paused = true;\r\n    }\r\n\r\n    modifier checkContribution() {\r\n        require(isValidContribution() && canContribute(msg.sender), \"Not a valid contribution\");\r\n        _;\r\n    }\r\n\r\n    modifier whenNotPaused() {\r\n        require(!paused, \"Crowdsale is paused\");\r\n        _;\r\n    }\r\n\r\n    function () public payable whenNotPaused {\r\n        processContribution(msg.sender, msg.value);\r\n    }\r\n\r\n    function mintFoundationTokens() public {\r\n        require(!mintedFoundationTokens, \"Already minted foundation tokens\");\r\n        mintedFoundationTokens = true;\r\n        uint foundationTokensTotal = 0;        \r\n        for (uint index = 0; index < foundationTokenWallets.length; index++) {\r\n            foundationTokensTotal = SafeMath.add(foundationTokensTotal, foundationAmounts[index]);\r\n            lockedTokens.addTokens(foundationTokenWallets[index], foundationAmounts[index], now + 365 days);\r\n        }\r\n        RoundData storage round1Info = roundDetails[0];\r\n        RoundData storage round2Info = roundDetails[1];\r\n        RoundData storage round3Info = roundDetails[2];\r\n        uint foundationAssert = erc20Token.getTotalMintableSupply() - round1Info.tokenCount - \r\n            round2Info.tokenCount - round3Info.tokenCount;\r\n        assert(foundationTokensTotal == foundationAssert);\r\n        erc20Token.mint(address(lockedTokens), foundationTokensTotal, false);\r\n    }\r\n\r\n    function finalizeRoundOne() public {\r\n        RoundData storage roundInfo = roundDetails[0];\r\n        if (now >= currentRoundEndTime && roundInfo.totalTokensSold < roundInfo.tokenCount) {\r\n            paused = true;\r\n            currentRound = Round.CrowdSaleRefund;\r\n            treasury.enableCrowdsaleRefund();\r\n        }\r\n    }\r\n\r\n    function startNewRound() public onlyOwner {\r\n        require(paused, \"Crowdsale must be paused\");\r\n        require(currentRound != Round.CrowdSaleRefund, \"Crowdsale is killed already\");\r\n        require(currentRound != Round.Round3, \"Already in round 3\");\r\n        require(now - currentRoundEndTime > 24 hours, \"Must wait 24 hrs to start another round\");\r\n        if (currentRoundEndTime != 0) {\r\n            currentRound = Round(uint(currentRound) + 1);\r\n            RoundData storage roundInfo = roundDetails[uint(currentRound)];\r\n            roundInfo.startTime = now;\r\n        } else {\r\n            require(now > roundDetails[0].startTime, \"Can't start yet\");\r\n            require(now < roundDetails[0].endTime, \"First round has elapsed\");\r\n            require(treasury.isKillPollDeployed(), \"Kills have not been deployed\");\r\n            currentRoundEndTime = roundDetails[0].endTime;\r\n            treasury.onR1Start();\r\n        }\r\n        paused = false;\r\n    }\r\n\r\n    function canContribute(address _contributor) public view returns (bool) {\r\n        return vaultMembership.isCurrentMember(_contributor) && membership.isCurrentMember(_contributor);\r\n    }\r\n\r\n    function isValidContribution() internal view returns (bool) {\r\n        uint round = uint(currentRound);        \r\n        Contribution storage userContrib = userContributonDetails[msg.sender][round];\r\n        uint256 currentUserContribution = SafeMath.add(msg.value, userContrib.amount);\r\n        RoundData storage roundInfo = roundDetails[round];\r\n        if ((msg.value >= etherMinContrib || SafeMath.add(SafeMath.mul(msg.value, roundInfo.tokenRate), \r\n        roundInfo.totalTokensSold) >= roundInfo.tokenCount) && (currentRound != Round.Round1 || \r\n        (currentRound == Round.Round1 && currentUserContribution <= etherMaxContrib))) {\r\n            return true;\r\n        }\r\n        return false;\r\n    }\r\n    \r\n    function processContribution(address _contributor, uint256 _amount) internal checkContribution {\r\n        uint round = uint(currentRound);\r\n        if (round == 0) require(now <= currentRoundEndTime, \"First round has passed\");\r\n        RoundData storage roundInfo = roundDetails[round];\r\n        uint tokensToGiveUser = SafeMath.mul(_amount, roundInfo.tokenRate);\r\n        uint tempTotalTokens = SafeMath.add(tokensToGiveUser, roundInfo.totalTokensSold);\r\n        \r\n        uint weiSpent = 0;\r\n        uint weiLeft = 0;\r\n        uint totalTokensToSend = 0;\r\n        if (tempTotalTokens < roundInfo.tokenCount) {\r\n            weiSpent = _amount;\r\n            totalTokensToSend = tokensToGiveUser;\r\n            roundInfo.totalTokensSold = tempTotalTokens;\r\n        } else {\r\n            uint leftTokens = SafeMath.sub(roundInfo.tokenCount, roundInfo.totalTokensSold);\r\n            weiSpent = SafeMath.div(leftTokens, roundInfo.tokenRate);\r\n            roundInfo.totalTokensSold = roundInfo.tokenCount;\r\n            totalTokensToSend = leftTokens;\r\n            weiLeft = SafeMath.sub(_amount, weiSpent);            \r\n            if (round == 0) {\r\n                treasury.onCrowdSaleR1End(_amount);\r\n            }\r\n            currentRoundEndTime = now;\r\n            paused = true;\r\n        }\r\n        \r\n        Contribution storage userContribGlobal = userContributonDetails[_contributor][round];\r\n        userContribGlobal.amount = SafeMath.add(userContribGlobal.amount, weiSpent);\r\n        \r\n        processPayment(_contributor, weiSpent, totalTokensToSend);\r\n        if (weiLeft > 0) {\r\n            if (round == 2) {\r\n                erc20Token.finishMinting();\r\n                currentRound = Round.R3Ended;\r\n            }\r\n            _contributor.transfer(weiLeft);\r\n        }\r\n    }\r\n\r\n    function processPayment(address contributor, uint etherAmount, uint256 tokenAmount) internal {\r\n        erc20Token.mint(contributor, tokenAmount, true);\r\n        treasury.processContribution.value(etherAmount)();\r\n        emit LogContribution(contributor, etherAmount, tokenAmount);\r\n    }\r\n}\r\n",
  "sourcePath": "C:/Users/Naina/source/repos/vault-sc/contracts/CrowdSale.sol",
  "compiler": {
    "name": "solc",
    "version": "0.4.25+commit.59dbf8f1.Emscripten.clang"
  },
  "schemaVersion": "3.0.0-beta.0",
  "updatedAt": "2018-12-12T11:18:12.406Z"
}