{
  "contractName": "DaicoToken",
  "abi": [
    {
      "constant": true,
      "inputs": [],
      "name": "crowdSaleAddress",
      "outputs": [
        {
          "name": "",
          "type": "address"
        }
      ],
      "payable": false,
      "stateMutability": "view",
      "type": "function"
    },
    {
      "constant": true,
      "inputs": [],
      "name": "mintingFinished",
      "outputs": [
        {
          "name": "",
          "type": "bool"
        }
      ],
      "payable": false,
      "stateMutability": "view",
      "type": "function"
    },
    {
      "constant": true,
      "inputs": [],
      "name": "name",
      "outputs": [
        {
          "name": "",
          "type": "string"
        }
      ],
      "payable": false,
      "stateMutability": "view",
      "type": "function"
    },
    {
      "constant": false,
      "inputs": [
        {
          "name": "spender",
          "type": "address"
        },
        {
          "name": "value",
          "type": "uint256"
        }
      ],
      "name": "approve",
      "outputs": [
        {
          "name": "",
          "type": "bool"
        }
      ],
      "payable": false,
      "stateMutability": "nonpayable",
      "type": "function"
    },
    {
      "constant": true,
      "inputs": [],
      "name": "totalSupply",
      "outputs": [
        {
          "name": "",
          "type": "uint256"
        }
      ],
      "payable": false,
      "stateMutability": "view",
      "type": "function"
    },
    {
      "constant": true,
      "inputs": [],
      "name": "decimals",
      "outputs": [
        {
          "name": "",
          "type": "uint8"
        }
      ],
      "payable": false,
      "stateMutability": "view",
      "type": "function"
    },
    {
      "constant": false,
      "inputs": [
        {
          "name": "spender",
          "type": "address"
        },
        {
          "name": "addedValue",
          "type": "uint256"
        }
      ],
      "name": "increaseAllowance",
      "outputs": [
        {
          "name": "",
          "type": "bool"
        }
      ],
      "payable": false,
      "stateMutability": "nonpayable",
      "type": "function"
    },
    {
      "constant": true,
      "inputs": [],
      "name": "capTokenAmount",
      "outputs": [
        {
          "name": "",
          "type": "uint256"
        }
      ],
      "payable": false,
      "stateMutability": "view",
      "type": "function"
    },
    {
      "constant": true,
      "inputs": [],
      "name": "totalMintableSupply",
      "outputs": [
        {
          "name": "",
          "type": "uint256"
        }
      ],
      "payable": false,
      "stateMutability": "view",
      "type": "function"
    },
    {
      "constant": true,
      "inputs": [],
      "name": "getTotalMintableSupply",
      "outputs": [
        {
          "name": "",
          "type": "uint256"
        }
      ],
      "payable": false,
      "stateMutability": "view",
      "type": "function"
    },
    {
      "constant": true,
      "inputs": [
        {
          "name": "owner",
          "type": "address"
        }
      ],
      "name": "balanceOf",
      "outputs": [
        {
          "name": "",
          "type": "uint256"
        }
      ],
      "payable": false,
      "stateMutability": "view",
      "type": "function"
    },
    {
      "constant": false,
      "inputs": [],
      "name": "renounceOwnership",
      "outputs": [],
      "payable": false,
      "stateMutability": "nonpayable",
      "type": "function"
    },
    {
      "constant": true,
      "inputs": [
        {
          "name": "",
          "type": "address"
        }
      ],
      "name": "frozenAccounts",
      "outputs": [
        {
          "name": "currentPollsParticipating",
          "type": "uint256"
        }
      ],
      "payable": false,
      "stateMutability": "view",
      "type": "function"
    },
    {
      "constant": true,
      "inputs": [],
      "name": "owner",
      "outputs": [
        {
          "name": "",
          "type": "address"
        }
      ],
      "payable": false,
      "stateMutability": "view",
      "type": "function"
    },
    {
      "constant": true,
      "inputs": [],
      "name": "isOwner",
      "outputs": [
        {
          "name": "",
          "type": "bool"
        }
      ],
      "payable": false,
      "stateMutability": "view",
      "type": "function"
    },
    {
      "constant": true,
      "inputs": [],
      "name": "symbol",
      "outputs": [
        {
          "name": "",
          "type": "string"
        }
      ],
      "payable": false,
      "stateMutability": "view",
      "type": "function"
    },
    {
      "constant": false,
      "inputs": [
        {
          "name": "spender",
          "type": "address"
        },
        {
          "name": "subtractedValue",
          "type": "uint256"
        }
      ],
      "name": "decreaseAllowance",
      "outputs": [
        {
          "name": "",
          "type": "bool"
        }
      ],
      "payable": false,
      "stateMutability": "nonpayable",
      "type": "function"
    },
    {
      "constant": true,
      "inputs": [],
      "name": "vaultMembership",
      "outputs": [
        {
          "name": "",
          "type": "address"
        }
      ],
      "payable": false,
      "stateMutability": "view",
      "type": "function"
    },
    {
      "constant": true,
      "inputs": [],
      "name": "pollMember",
      "outputs": [
        {
          "name": "",
          "type": "address"
        }
      ],
      "payable": false,
      "stateMutability": "view",
      "type": "function"
    },
    {
      "constant": true,
      "inputs": [
        {
          "name": "owner",
          "type": "address"
        },
        {
          "name": "spender",
          "type": "address"
        }
      ],
      "name": "allowance",
      "outputs": [
        {
          "name": "",
          "type": "uint256"
        }
      ],
      "payable": false,
      "stateMutability": "view",
      "type": "function"
    },
    {
      "constant": true,
      "inputs": [
        {
          "name": "_target",
          "type": "address"
        }
      ],
      "name": "isFrozen",
      "outputs": [
        {
          "name": "",
          "type": "bool"
        }
      ],
      "payable": false,
      "stateMutability": "view",
      "type": "function"
    },
    {
      "constant": true,
      "inputs": [],
      "name": "tokensUnderGovernance",
      "outputs": [
        {
          "name": "",
          "type": "uint256"
        }
      ],
      "payable": false,
      "stateMutability": "view",
      "type": "function"
    },
    {
      "constant": false,
      "inputs": [
        {
          "name": "newOwner",
          "type": "address"
        }
      ],
      "name": "transferOwnership",
      "outputs": [],
      "payable": false,
      "stateMutability": "nonpayable",
      "type": "function"
    },
    {
      "inputs": [
        {
          "name": "_name",
          "type": "string"
        },
        {
          "name": "_symbol",
          "type": "string"
        },
        {
          "name": "_vaultAddress",
          "type": "address"
        },
        {
          "name": "_totalMintableSupply",
          "type": "uint256"
        },
        {
          "name": "_capPercent",
          "type": "uint256"
        }
      ],
      "payable": false,
      "stateMutability": "nonpayable",
      "type": "constructor"
    },
    {
      "anonymous": false,
      "inputs": [
        {
          "indexed": true,
          "name": "previousOwner",
          "type": "address"
        },
        {
          "indexed": true,
          "name": "newOwner",
          "type": "address"
        }
      ],
      "name": "OwnershipTransferred",
      "type": "event"
    },
    {
      "anonymous": false,
      "inputs": [],
      "name": "MintingFinish",
      "type": "event"
    },
    {
      "anonymous": false,
      "inputs": [
        {
          "indexed": false,
          "name": "target",
          "type": "address"
        },
        {
          "indexed": false,
          "name": "frozen",
          "type": "bool"
        }
      ],
      "name": "FrozenFunds",
      "type": "event"
    },
    {
      "anonymous": false,
      "inputs": [
        {
          "indexed": true,
          "name": "from",
          "type": "address"
        },
        {
          "indexed": true,
          "name": "to",
          "type": "address"
        },
        {
          "indexed": false,
          "name": "value",
          "type": "uint256"
        }
      ],
      "name": "Transfer",
      "type": "event"
    },
    {
      "anonymous": false,
      "inputs": [
        {
          "indexed": true,
          "name": "owner",
          "type": "address"
        },
        {
          "indexed": true,
          "name": "spender",
          "type": "address"
        },
        {
          "indexed": false,
          "name": "value",
          "type": "uint256"
        }
      ],
      "name": "Approval",
      "type": "event"
    },
    {
      "constant": false,
      "inputs": [
        {
          "name": "_treasuryAddress",
          "type": "address"
        }
      ],
      "name": "setTreasuryAddress",
      "outputs": [],
      "payable": false,
      "stateMutability": "nonpayable",
      "type": "function"
    },
    {
      "constant": false,
      "inputs": [
        {
          "name": "_crowdSaleAddress",
          "type": "address"
        }
      ],
      "name": "setCrowdSaleAddress",
      "outputs": [],
      "payable": false,
      "stateMutability": "nonpayable",
      "type": "function"
    },
    {
      "constant": false,
      "inputs": [
        {
          "name": "_value",
          "type": "uint256"
        }
      ],
      "name": "burn",
      "outputs": [],
      "payable": false,
      "stateMutability": "nonpayable",
      "type": "function"
    },
    {
      "constant": false,
      "inputs": [
        {
          "name": "_from",
          "type": "address"
        },
        {
          "name": "_value",
          "type": "uint256"
        }
      ],
      "name": "burnFrom",
      "outputs": [],
      "payable": false,
      "stateMutability": "nonpayable",
      "type": "function"
    },
    {
      "constant": true,
      "inputs": [],
      "name": "getTokensUnderGovernance",
      "outputs": [
        {
          "name": "",
          "type": "uint256"
        }
      ],
      "payable": false,
      "stateMutability": "view",
      "type": "function"
    },
    {
      "constant": false,
      "inputs": [
        {
          "name": "_target",
          "type": "address"
        }
      ],
      "name": "freezeAccount",
      "outputs": [],
      "payable": false,
      "stateMutability": "nonpayable",
      "type": "function"
    },
    {
      "constant": false,
      "inputs": [
        {
          "name": "_target",
          "type": "address"
        }
      ],
      "name": "unFreezeAccount",
      "outputs": [],
      "payable": false,
      "stateMutability": "nonpayable",
      "type": "function"
    },
    {
      "constant": false,
      "inputs": [
        {
          "name": "_to",
          "type": "address"
        },
        {
          "name": "_amount",
          "type": "uint256"
        }
      ],
      "name": "mint",
      "outputs": [
        {
          "name": "",
          "type": "bool"
        }
      ],
      "payable": false,
      "stateMutability": "nonpayable",
      "type": "function"
    },
    {
      "constant": false,
      "inputs": [
        {
          "name": "_to",
          "type": "address"
        },
        {
          "name": "_amount",
          "type": "uint256"
        },
        {
          "name": "_hasGovernance",
          "type": "bool"
        }
      ],
      "name": "mint",
      "outputs": [
        {
          "name": "",
          "type": "bool"
        }
      ],
      "payable": false,
      "stateMutability": "nonpayable",
      "type": "function"
    },
    {
      "constant": false,
      "inputs": [
        {
          "name": "_to",
          "type": "address"
        },
        {
          "name": "_value",
          "type": "uint256"
        }
      ],
      "name": "transfer",
      "outputs": [
        {
          "name": "success",
          "type": "bool"
        }
      ],
      "payable": false,
      "stateMutability": "nonpayable",
      "type": "function"
    },
    {
      "constant": false,
      "inputs": [
        {
          "name": "_from",
          "type": "address"
        },
        {
          "name": "_to",
          "type": "address"
        },
        {
          "name": "_value",
          "type": "uint256"
        }
      ],
      "name": "transferFrom",
      "outputs": [
        {
          "name": "success",
          "type": "bool"
        }
      ],
      "payable": false,
      "stateMutability": "nonpayable",
      "type": "function"
    },
    {
      "constant": false,
      "inputs": [],
      "name": "finishMinting",
      "outputs": [
        {
          "name": "",
          "type": "bool"
        }
      ],
      "payable": false,
      "stateMutability": "nonpayable",
      "type": "function"
    }
  ],
  "bytecode": "0x60806040526003805460ff199081169091556009805490911660121790553480156200002a57600080fd5b5060405162001be538038062001be583398101604081815282516020840151918401516060850151608086015160068054600160a060020a031916331790819055938701969490940194919390929091600160a060020a0391909116906000907f8be0079c531659141344cd1fd0a4f28419497f9722a3daafe3b4186f6b6457e0908290a38451620000c4906007906020880190620001a5565b508351620000da906008906020870190620001a5565b50600482905562000115620000fe8284640100000000620018ee6200014382021704565b6127106401000000006200191c6200018082021704565b600b555050600d8054600160a060020a031916600160a060020a0392909216919091179055506200024a9050565b60008083151562000158576000915062000179565b508282028284828115156200016957fe5b04146200017557600080fd5b8091505b5092915050565b6000808083116200019057600080fd5b82848115156200019c57fe5b04949350505050565b828054600181600116156101000203166002900490600052602060002090601f016020900481019282601f10620001e857805160ff191683800117855562000218565b8280016001018555821562000218579182015b8281111562000218578251825591602001919060010190620001fb565b50620002269291506200022a565b5090565b6200024791905b8082111562000226576000815560010162000231565b90565b61198b806200025a6000396000f3006080604052600436106101b65763ffffffff7c01000000000000000000000000000000000000000000000000000000006000350416630184fc3581146101bb57806305d2035b146101ec57806306fdde0314610215578063095ea7b31461029f57806318160ddd146102c357806323b872dd146102ea578063313ce56714610314578063395093511461033f57806340c10f191461036357806342966c68146103875780634cb93ff8146103a157806353cc2fae146103b65780635706e8e7146103d75780636605bfda146103ec578063683d8baf1461040d57806370a0823114610422578063715018a61461044357806379cc6790146104585780637d64bcb41461047c578063860838a5146104915780638da5cb5b146104b25780638f32d59b146104c75780638f456125146104dc57806395d89b41146104fd578063a457c2d714610512578063a9059cbb14610536578063ad53fcdd1461055a578063d1a1beb41461056f578063d32e7f0214610598578063dd06bfba146105ad578063dd62ed3e146105c2578063e5839836146105e9578063f1e5adbe1461060a578063f26c159f1461061f578063f2fde38b14610640575b600080fd5b3480156101c757600080fd5b506101d0610661565b60408051600160a060020a039092168252519081900360200190f35b3480156101f857600080fd5b50610201610670565b604080519115158252519081900360200190f35b34801561022157600080fd5b5061022a610679565b6040805160208082528351818301528351919283929083019185019080838360005b8381101561026457818101518382015260200161024c565b50505050905090810190601f1680156102915780820380516001836020036101000a031916815260200191505b509250505060405180910390f35b3480156102ab57600080fd5b50610201600160a060020a0360043516602435610707565b3480156102cf57600080fd5b506102d8610785565b60408051918252519081900360200190f35b3480156102f657600080fd5b50610201600160a060020a036004358116906024351660443561078b565b34801561032057600080fd5b506103296107ab565b6040805160ff9092168252519081900360200190f35b34801561034b57600080fd5b50610201600160a060020a03600435166024356107b4565b34801561036f57600080fd5b50610201600160a060020a0360043516602435610864565b34801561039357600080fd5b5061039f6004356108f0565b005b3480156103ad57600080fd5b506102d8610909565b3480156103c257600080fd5b5061039f600160a060020a036004351661090f565b3480156103e357600080fd5b506102d8610a2b565b3480156103f857600080fd5b5061039f600160a060020a0360043516610a31565b34801561041957600080fd5b506102d8610a89565b34801561042e57600080fd5b506102d8600160a060020a0360043516610a8f565b34801561044f57600080fd5b5061039f610aaa565b34801561046457600080fd5b5061039f600160a060020a0360043516602435610b14565b34801561048857600080fd5b50610201610b95565b34801561049d57600080fd5b506102d8600160a060020a0360043516610c0c565b3480156104be57600080fd5b506101d0610c1e565b3480156104d357600080fd5b50610201610c2d565b3480156104e857600080fd5b5061039f600160a060020a0360043516610c3e565b34801561050957600080fd5b5061022a610c96565b34801561051e57600080fd5b50610201600160a060020a0360043516602435610cf1565b34801561054257600080fd5b50610201600160a060020a0360043516602435610d3c565b34801561056657600080fd5b506101d0610d5a565b34801561057b57600080fd5b50610201600160a060020a03600435166024356044351515610d69565b3480156105a457600080fd5b506101d0610e36565b3480156105b957600080fd5b506102d8610e45565b3480156105ce57600080fd5b506102d8600160a060020a0360043581169060243516610e4b565b3480156105f557600080fd5b50610201600160a060020a0360043516610e76565b34801561061657600080fd5b506102d8610e93565b34801561062b57600080fd5b5061039f600160a060020a0360043516610e99565b34801561064c57600080fd5b5061039f600160a060020a0360043516610fb5565b600c54600160a060020a031681565b60035460ff1690565b6007805460408051602060026001851615610100026000190190941693909304601f810184900484028201840190925281815292918301828280156106ff5780601f106106d4576101008083540402835291602001916106ff565b820191906000526020600020905b8154815290600101906020018083116106e257829003601f168201915b505050505081565b6000600160a060020a038316151561071e57600080fd5b336000818152600160209081526040808320600160a060020a03881680855290835292819020869055805186815290519293927f8c5be1e5ebec7d5bd14f71427d1e84f3dd0314c0f7b2291e5b200ac8c7c3b925929181900390910190a350600192915050565b60025490565b6000610798848484610fd1565b6107a3848484611130565b949350505050565b60095460ff1681565b6000600160a060020a03831615156107cb57600080fd5b336000908152600160209081526040808320600160a060020a03871684529091529020546107ff908363ffffffff6111bc16565b336000818152600160209081526040808320600160a060020a0389168085529083529281902085905580519485525191937f8c5be1e5ebec7d5bd14f71427d1e84f3dd0314c0f7b2291e5b200ac8c7c3b925929081900390910190a350600192915050565b60035460009060ff161561087757600080fd5b600454610882610785565b11156108dd5760408051600080516020611940833981519152815260206004820181905260248201527f43616e2774206d696e74206d6f7265207468616e20746f74616c537570706c79604482015290519081900360640190fd5b6108e783836111d9565b50600192915050565b6108fc33600083610fd1565b6109063382611283565b50565b600b5481565b600e54604080517fbbe7cbe60000000000000000000000000000000000000000000000000000000081523360048201529051600160a060020a039092169163bbe7cbe6916024808201926020929091908290030181600087803b15801561097557600080fd5b505af1158015610989573d6000803e3d6000fd5b505050506040513d602081101561099f57600080fd5b50511515610a225760408051600080516020611940833981519152815260206004820152602360248201527f4e6f74206120706f6c6c2c2063616e6e6f7420667265657a652f20756e66726560448201527f657a650000000000000000000000000000000000000000000000000000000000606482015290519081900360840190fd5b61090681611351565b60045481565b610a39610c2d565b1515610a4457600080fd5b600e54600160a060020a031615610a5a57600080fd5b600e805473ffffffffffffffffffffffffffffffffffffffff1916600160a060020a0392909216919091179055565b60045490565b600160a060020a031660009081526020819052604090205490565b610ab2610c2d565b1515610abd57600080fd5b600654604051600091600160a060020a0316907f8be0079c531659141344cd1fd0a4f28419497f9722a3daafe3b4186f6b6457e0908390a36006805473ffffffffffffffffffffffffffffffffffffffff19169055565b600e54600160a060020a03163314610b7b5760408051600080516020611940833981519152815260206004820152601660248201527f4f6e6c792074726561737572792063616e206275726e00000000000000000000604482015290519081900360640190fd5b610b8782600083610fd1565b610b918282611283565b5050565b600c54600090600160a060020a03163314610bff5760408051600080516020611940833981519152815260206004820152601760248201527f4f6e6c792063726f776473616c652063616e206d696e74000000000000000000604482015290519081900360640190fd5b610c07611442565b905090565b60056020526000908152604090205481565b600654600160a060020a031690565b600654600160a060020a0316331490565b610c46610c2d565b1515610c5157600080fd5b600c54600160a060020a031615610c6757600080fd5b600c805473ffffffffffffffffffffffffffffffffffffffff1916600160a060020a0392909216919091179055565b6008805460408051602060026001851615610100026000190190941693909304601f810184900484028201840190925281815292918301828280156106ff5780601f106106d4576101008083540402835291602001916106ff565b6000600160a060020a0383161515610d0857600080fd5b336000908152600160209081526040808320600160a060020a03871684529091529020546107ff908363ffffffff61149116565b6000610d49338484610fd1565b610d5383836114a8565b9392505050565b600d54600160a060020a031681565b600c54600090600160a060020a03163314610dd35760408051600080516020611940833981519152815260206004820152601760248201527f4f6e6c792063726f776473616c652063616e206d696e74000000000000000000604482015290519081900360640190fd5b818015610de95750600b54610de785610a8f565b105b15610e2c57600b54610e03610dfd86610a8f565b856111bc565b11610e0e5782610e22565b610e22600b54610e1d86610a8f565b611491565b600a805490910190555b6107a38484610864565b600e54600160a060020a031681565b600a5490565b600160a060020a03918216600090815260016020908152604080832093909416825291909152205490565b600160a060020a0316600090815260056020526040902054151590565b600a5481565b600e54604080517fbbe7cbe60000000000000000000000000000000000000000000000000000000081523360048201529051600160a060020a039092169163bbe7cbe6916024808201926020929091908290030181600087803b158015610eff57600080fd5b505af1158015610f13573d6000803e3d6000fd5b505050506040513d6020811015610f2957600080fd5b50511515610fac5760408051600080516020611940833981519152815260206004820152602360248201527f4e6f74206120706f6c6c2c2063616e6e6f7420667265657a652f20756e66726560448201527f657a650000000000000000000000000000000000000000000000000000000000606482015290519081900360840190fd5b61090681611529565b610fbd610c2d565b1515610fc857600080fd5b6109068161161b565b600d54604080517fae6b1143000000000000000000000000000000000000000000000000000000008152600160a060020a0386811660048301529151919092169163ae6b11439160248083019260209291908290030181600087803b15801561103957600080fd5b505af115801561104d573d6000803e3d6000fd5b505050506040513d602081101561106357600080fd5b505115611074576110748382611699565b600160a060020a0382161580159061111c5750600d54604080517fae6b1143000000000000000000000000000000000000000000000000000000008152600160a060020a0385811660048301529151919092169163ae6b11439160248083019260209291908290030181600087803b1580156110ef57600080fd5b505af1158015611103573d6000803e3d6000fd5b505050506040513d602081101561111957600080fd5b50515b1561112b5761112b8282611708565b505050565b600160a060020a03831660009081526005602052604081208054859190156111a75760408051600080516020611940833981519152815260206004820152601860248201527f49732070617274206f66206365727461696e20706f6c6c730000000000000000604482015290519081900360640190fd5b6111b2868686611756565b9695505050505050565b6000828201838110156111ce57600080fd5b8091505b5092915050565b600160a060020a03821615156111ee57600080fd5b600254611201908263ffffffff6111bc16565b600255600160a060020a03821660009081526020819052604090205461122d908263ffffffff6111bc16565b600160a060020a0383166000818152602081815260408083209490945583518581529351929391927fddf252ad1be2c89b69c2b068fc378daa952ba7f163c4a11628f55a4df523b3ef9281900390910190a35050565b600160a060020a038216151561129857600080fd5b600160a060020a0382166000908152602081905260409020548111156112bd57600080fd5b6002546112d0908263ffffffff61149116565b600255600160a060020a0382166000908152602081905260409020546112fc908263ffffffff61149116565b600160a060020a038316600081815260208181526040808320949094558351858152935191937fddf252ad1be2c89b69c2b068fc378daa952ba7f163c4a11628f55a4df523b3ef929081900390910190a35050565b600160a060020a0381166000908152600560209081526040808320338452600181019092529091205460ff1615156113d85760408051600080516020611940833981519152815260206004820152601f60248201527f4e6f7420616c72656164792066726f7a656e206279207468697320706f6c6c00604482015290519081900360640190fd5b80546000190181553360009081526001820160209081526040808320805460ff191690558051600160a060020a03861681529182019290925281517f48335238b4855f35377ed80f164e8c6f3c366e54ac00b96a6402d4a9814a03a5929181900390910190a15050565b60035460009060ff161561145557600080fd5b6003805460ff191660011790556040517f47b21c3d8bed09faa6dd975d20986fabc5b54c1f66987d02792d51a7a4f55e5290600090a150600190565b600080838311156114a157600080fd5b5050900390565b3360008181526005602052604081208054919291156115165760408051600080516020611940833981519152815260206004820152601860248201527f49732070617274206f66206365727461696e20706f6c6c730000000000000000604482015290519081900360640190fd5b61152085856117f3565b95945050505050565b600160a060020a0381166000908152600560209081526040808320338452600181019092529091205460ff16156115af5760408051600080516020611940833981519152815260206004820152601b60248201527f416c72656164792066726f7a656e206279207468697320706f6c6c0000000000604482015290519081900360640190fd5b8054600190810182553360009081528282016020908152604091829020805460ff1916841790558151600160a060020a03861681529081019290925280517f48335238b4855f35377ed80f164e8c6f3c366e54ac00b96a6402d4a9814a03a59281900390910190a15050565b600160a060020a038116151561163057600080fd5b600654604051600160a060020a038084169216907f8be0079c531659141344cd1fd0a4f28419497f9722a3daafe3b4186f6b6457e090600090a36006805473ffffffffffffffffffffffffffffffffffffffff1916600160a060020a0392909216919091179055565b600b546116a583610a8f565b10156116b957600a80548290039055610b91565b600b546116c583610a8f565b1180156116e45750600b546116e26116dc84610a8f565b83611491565b105b15610b91576116f282610a8f565b600b54600a805491840192909203900390555050565b600b5461171483610a8f565b1015610b9157600b5461172f61172984610a8f565b836111bc565b1161173a5780611749565b611749600b54610e1d84610a8f565b600a805490910190555050565b600160a060020a038316600090815260016020908152604080832033845290915281205482111561178657600080fd5b600160a060020a03841660009081526001602090815260408083203384529091529020546117ba908363ffffffff61149116565b600160a060020a03851660009081526001602090815260408083203384529091529020556117e98484846117fc565b5060019392505050565b60006108e73384845b600160a060020a03831660009081526020819052604090205481111561182157600080fd5b600160a060020a038216151561183657600080fd5b600160a060020a03831660009081526020819052604090205461185f908263ffffffff61149116565b600160a060020a038085166000908152602081905260408082209390935590841681522054611894908263ffffffff6111bc16565b600160a060020a038084166000818152602081815260409182902094909455805185815290519193928716927fddf252ad1be2c89b69c2b068fc378daa952ba7f163c4a11628f55a4df523b3ef92918290030190a3505050565b60008083151561190157600091506111d2565b5082820282848281151561191157fe5b04146111ce57600080fd5b60008080831161192b57600080fd5b828481151561193657fe5b04949350505050560008c379a000000000000000000000000000000000000000000000000000000000a165627a7a72305820584fbd89b4001faca0fec4f43893bc3528b7e3e85a0a0b28f5969414426f283a0029",
  "source": "pragma solidity ^0.4.25;\r\n\r\nimport \"electusvoting/contracts/Token/FreezableToken.sol\";\r\nimport \"membershipverificationtoken/contracts/Protocol/IERC1261.sol\";\r\nimport \"../Interfaces/IPollAddresses.sol\";\r\nimport \"openzeppelin-solidity/contracts/ownership/Ownable.sol\";\r\n\r\n\r\ncontract DaicoToken is FreezableToken, Ownable {\r\n    string public name;\r\n    string public symbol;\r\n    uint8 public decimals = 18;\r\n    uint public tokensUnderGovernance;\r\n    uint public capTokenAmount;\r\n    address public crowdSaleAddress;\r\n    IERC1261 public vaultMembership;\r\n    IPollAddresses public pollMember;\r\n\r\n    constructor(string _name, string _symbol, address _vaultAddress, uint _totalMintableSupply, \r\n        uint _capPercent) public {\r\n        name = _name;\r\n        symbol = _symbol;\r\n        totalMintableSupply = _totalMintableSupply;\r\n        capTokenAmount = SafeMath.div(SafeMath.mul(_capPercent, _totalMintableSupply), 10000);\r\n        vaultMembership = IERC1261(_vaultAddress);\r\n    }\r\n\r\n    modifier onlyTreasury {\r\n        require(msg.sender == address(pollMember), \"Only treasury can burn\");\r\n        _;\r\n    }\r\n\r\n    modifier onlyCrowdSale() {\r\n        require(msg.sender == crowdSaleAddress, \"Only crowdsale can mint\");\r\n        _;\r\n    }\r\n\r\n    modifier isPollAddress() {\r\n        require(pollMember.isPollAddress(msg.sender), \"Not a poll, cannot freeze/ unfreeze\");\r\n        _;\r\n    }\r\n\r\n    function setTreasuryAddress(address _treasuryAddress) external onlyOwner {\r\n        require(address(pollMember) == address(0));\r\n        pollMember = IPollAddresses(_treasuryAddress);\r\n    }\r\n\r\n    function setCrowdSaleAddress(address _crowdSaleAddress) external onlyOwner {\r\n        require(crowdSaleAddress == address(0));\r\n        crowdSaleAddress = _crowdSaleAddress;\r\n    }\r\n\r\n    function burn(uint256 _value) external {\r\n        updateGovernanceTokens(msg.sender, address(0), _value);\r\n        super._burn(msg.sender, _value);\r\n    }\r\n\r\n    function burnFrom(address _from, uint256 _value) external onlyTreasury {\r\n        updateGovernanceTokens(_from, address(0), _value);\r\n        super._burn(_from, _value);\r\n    }\r\n\r\n    function getTokensUnderGovernance() external view returns (uint) {\r\n        return tokensUnderGovernance;\r\n    }\r\n\r\n    function freezeAccount(address _target) public isPollAddress {\r\n        super.freezeAccount(_target);\r\n    }\r\n\r\n    function unFreezeAccount(address _target) public isPollAddress {\r\n        super.unFreezeAccount(_target);\r\n    }\r\n\r\n    function mint(address _to, uint256 _amount, bool _hasGovernance) public onlyCrowdSale returns (bool) {\r\n        if (_hasGovernance && balanceOf(_to) < capTokenAmount) {\r\n            tokensUnderGovernance += (SafeMath.add(balanceOf(_to), _amount) > capTokenAmount) ? \r\n                SafeMath.sub(capTokenAmount, balanceOf(_to)) : _amount;\r\n        }\r\n        return super.mint(_to, _amount);\r\n    }\r\n\r\n    function transfer(address _to, uint256 _value) public returns (bool success) {\r\n        updateGovernanceTokens(msg.sender, _to, _value);        \r\n        return super.transfer(_to, _value);\r\n    }\r\n\r\n    function transferFrom(address _from, address _to, uint256 _value) public returns (bool success) {\r\n        updateGovernanceTokens(_from, _to, _value);\r\n        return super.transferFrom(_from, _to, _value);\r\n    }\r\n\r\n    function finishMinting() public onlyCrowdSale returns (bool) {\r\n        return super.finishMinting();\r\n    }\r\n\r\n    function updateGovernanceTokens(address _from, address _to, uint _value) internal {\r\n        if (vaultMembership.isCurrentMember(_from)) {\r\n            burnGovernanceTokens(_from, _value);\r\n        }\r\n        if (_to != address(0) && vaultMembership.isCurrentMember(_to)) {\r\n            mintGovernanceTokens(_to, _value);\r\n        }\r\n    }\r\n\r\n    function burnGovernanceTokens(address _from, uint _value) internal {\r\n        if (balanceOf(_from) < capTokenAmount) {\r\n            tokensUnderGovernance -= _value;    \r\n        } else if (balanceOf(_from) > capTokenAmount && SafeMath.sub(balanceOf(_from), _value) < capTokenAmount) {\r\n            tokensUnderGovernance -= capTokenAmount + _value - balanceOf(_from);\r\n        }\r\n    }\r\n\r\n    function mintGovernanceTokens(address _to, uint _value) internal {\r\n        if (balanceOf(_to) < capTokenAmount) {\r\n            tokensUnderGovernance += (SafeMath.add(balanceOf(_to), _value) > capTokenAmount) ? \r\n                SafeMath.sub(capTokenAmount, balanceOf(_to)) : _value;\r\n        }\r\n    }\r\n}",
  "sourcePath": "C:/Users/Naina/source/repos/vault-sc/contracts/Token/DaicoToken.sol",
  "compiler": {
    "name": "solc",
    "version": "0.4.25+commit.59dbf8f1.Emscripten.clang"
  },
  "schemaVersion": "3.0.0-beta.0",
  "updatedAt": "2018-12-12T11:18:12.435Z"
}