{
  "contractName": "FreezableToken",
  "abi": [
    {
      "constant": false,
      "inputs": [
        {
          "name": "spender",
          "type": "address"
        },
        {
          "name": "value",
          "type": "uint256"
        }
      ],
      "name": "approve",
      "outputs": [
        {
          "name": "",
          "type": "bool"
        }
      ],
      "payable": false,
      "stateMutability": "nonpayable",
      "type": "function"
    },
    {
      "constant": true,
      "inputs": [],
      "name": "totalSupply",
      "outputs": [
        {
          "name": "",
          "type": "uint256"
        }
      ],
      "payable": false,
      "stateMutability": "view",
      "type": "function"
    },
    {
      "constant": false,
      "inputs": [
        {
          "name": "spender",
          "type": "address"
        },
        {
          "name": "addedValue",
          "type": "uint256"
        }
      ],
      "name": "increaseAllowance",
      "outputs": [
        {
          "name": "",
          "type": "bool"
        }
      ],
      "payable": false,
      "stateMutability": "nonpayable",
      "type": "function"
    },
    {
      "constant": true,
      "inputs": [],
      "name": "totalMintableSupply",
      "outputs": [
        {
          "name": "",
          "type": "uint256"
        }
      ],
      "payable": false,
      "stateMutability": "view",
      "type": "function"
    },
    {
      "constant": true,
      "inputs": [
        {
          "name": "owner",
          "type": "address"
        }
      ],
      "name": "balanceOf",
      "outputs": [
        {
          "name": "",
          "type": "uint256"
        }
      ],
      "payable": false,
      "stateMutability": "view",
      "type": "function"
    },
    {
      "constant": true,
      "inputs": [
        {
          "name": "",
          "type": "address"
        }
      ],
      "name": "frozenAccounts",
      "outputs": [
        {
          "name": "currentPollsParticipating",
          "type": "uint256"
        }
      ],
      "payable": false,
      "stateMutability": "view",
      "type": "function"
    },
    {
      "constant": false,
      "inputs": [
        {
          "name": "spender",
          "type": "address"
        },
        {
          "name": "subtractedValue",
          "type": "uint256"
        }
      ],
      "name": "decreaseAllowance",
      "outputs": [
        {
          "name": "",
          "type": "bool"
        }
      ],
      "payable": false,
      "stateMutability": "nonpayable",
      "type": "function"
    },
    {
      "constant": true,
      "inputs": [
        {
          "name": "owner",
          "type": "address"
        },
        {
          "name": "spender",
          "type": "address"
        }
      ],
      "name": "allowance",
      "outputs": [
        {
          "name": "",
          "type": "uint256"
        }
      ],
      "payable": false,
      "stateMutability": "view",
      "type": "function"
    },
    {
      "anonymous": false,
      "inputs": [],
      "name": "MintingFinish",
      "type": "event"
    },
    {
      "anonymous": false,
      "inputs": [
        {
          "indexed": false,
          "name": "target",
          "type": "address"
        },
        {
          "indexed": false,
          "name": "frozen",
          "type": "bool"
        }
      ],
      "name": "FrozenFunds",
      "type": "event"
    },
    {
      "anonymous": false,
      "inputs": [
        {
          "indexed": true,
          "name": "from",
          "type": "address"
        },
        {
          "indexed": true,
          "name": "to",
          "type": "address"
        },
        {
          "indexed": false,
          "name": "value",
          "type": "uint256"
        }
      ],
      "name": "Transfer",
      "type": "event"
    },
    {
      "anonymous": false,
      "inputs": [
        {
          "indexed": true,
          "name": "owner",
          "type": "address"
        },
        {
          "indexed": true,
          "name": "spender",
          "type": "address"
        },
        {
          "indexed": false,
          "name": "value",
          "type": "uint256"
        }
      ],
      "name": "Approval",
      "type": "event"
    },
    {
      "constant": true,
      "inputs": [
        {
          "name": "_target",
          "type": "address"
        }
      ],
      "name": "isFrozen",
      "outputs": [
        {
          "name": "",
          "type": "bool"
        }
      ],
      "payable": false,
      "stateMutability": "view",
      "type": "function"
    },
    {
      "constant": false,
      "inputs": [
        {
          "name": "_target",
          "type": "address"
        }
      ],
      "name": "freezeAccount",
      "outputs": [],
      "payable": false,
      "stateMutability": "nonpayable",
      "type": "function"
    },
    {
      "constant": false,
      "inputs": [
        {
          "name": "_target",
          "type": "address"
        }
      ],
      "name": "unFreezeAccount",
      "outputs": [],
      "payable": false,
      "stateMutability": "nonpayable",
      "type": "function"
    },
    {
      "constant": false,
      "inputs": [
        {
          "name": "_to",
          "type": "address"
        },
        {
          "name": "_value",
          "type": "uint256"
        }
      ],
      "name": "transfer",
      "outputs": [
        {
          "name": "success",
          "type": "bool"
        }
      ],
      "payable": false,
      "stateMutability": "nonpayable",
      "type": "function"
    },
    {
      "constant": false,
      "inputs": [
        {
          "name": "_from",
          "type": "address"
        },
        {
          "name": "_to",
          "type": "address"
        },
        {
          "name": "_value",
          "type": "uint256"
        }
      ],
      "name": "transferFrom",
      "outputs": [
        {
          "name": "success",
          "type": "bool"
        }
      ],
      "payable": false,
      "stateMutability": "nonpayable",
      "type": "function"
    },
    {
      "constant": true,
      "inputs": [],
      "name": "getTotalMintableSupply",
      "outputs": [
        {
          "name": "",
          "type": "uint256"
        }
      ],
      "payable": false,
      "stateMutability": "view",
      "type": "function"
    },
    {
      "constant": true,
      "inputs": [],
      "name": "mintingFinished",
      "outputs": [
        {
          "name": "",
          "type": "bool"
        }
      ],
      "payable": false,
      "stateMutability": "view",
      "type": "function"
    },
    {
      "constant": false,
      "inputs": [
        {
          "name": "_to",
          "type": "address"
        },
        {
          "name": "_amount",
          "type": "uint256"
        }
      ],
      "name": "mint",
      "outputs": [
        {
          "name": "",
          "type": "bool"
        }
      ],
      "payable": false,
      "stateMutability": "nonpayable",
      "type": "function"
    },
    {
      "constant": false,
      "inputs": [],
      "name": "finishMinting",
      "outputs": [
        {
          "name": "",
          "type": "bool"
        }
      ],
      "payable": false,
      "stateMutability": "nonpayable",
      "type": "function"
    }
  ],
  "bytecode": "0x60806040526003805460ff1916905534801561001a57600080fd5b50610bfc8061002a6000396000f3006080604052600436106100f05763ffffffff7c010000000000000000000000000000000000000000000000000000000060003504166305d2035b81146100f5578063095ea7b31461011e57806318160ddd1461014257806323b872dd14610169578063395093511461019357806340c10f19146101b757806353cc2fae146101db5780635706e8e7146101fe578063683d8baf1461021357806370a08231146102285780637d64bcb414610249578063860838a51461025e578063a457c2d71461027f578063a9059cbb146102a3578063dd62ed3e146102c7578063e5839836146102ee578063f26c159f1461030f575b600080fd5b34801561010157600080fd5b5061010a610330565b604080519115158252519081900360200190f35b34801561012a57600080fd5b5061010a600160a060020a0360043516602435610339565b34801561014e57600080fd5b506101576103b7565b60408051918252519081900360200190f35b34801561017557600080fd5b5061010a600160a060020a03600435811690602435166044356103bd565b34801561019f57600080fd5b5061010a600160a060020a036004351660243561045b565b3480156101c357600080fd5b5061010a600160a060020a036004351660243561050b565b3480156101e757600080fd5b506101fc600160a060020a03600435166105a9565b005b34801561020a57600080fd5b506101576106ac565b34801561021f57600080fd5b506101576106b2565b34801561023457600080fd5b50610157600160a060020a03600435166106b8565b34801561025557600080fd5b5061010a6106d3565b34801561026a57600080fd5b50610157600160a060020a0360043516610722565b34801561028b57600080fd5b5061010a600160a060020a0360043516602435610734565b3480156102af57600080fd5b5061010a600160a060020a036004351660243561077f565b3480156102d357600080fd5b50610157600160a060020a0360043581169060243516610812565b3480156102fa57600080fd5b5061010a600160a060020a036004351661083d565b34801561031b57600080fd5b506101fc600160a060020a036004351661085a565b60035460ff1690565b6000600160a060020a038316151561035057600080fd5b336000818152600160209081526040808320600160a060020a03881680855290835292819020869055805186815290519293927f8c5be1e5ebec7d5bd14f71427d1e84f3dd0314c0f7b2291e5b200ac8c7c3b925929181900390910190a350600192915050565b60025490565b600160a060020a038316600090815260056020526040812080548591901561044657604080517f08c379a000000000000000000000000000000000000000000000000000000000815260206004820152601860248201527f49732070617274206f66206365727461696e20706f6c6c730000000000000000604482015290519081900360640190fd5b61045186868661095e565b9695505050505050565b6000600160a060020a038316151561047257600080fd5b336000908152600160209081526040808320600160a060020a03871684529091529020546104a6908363ffffffff6109fb16565b336000818152600160209081526040808320600160a060020a0389168085529083529281902085905580519485525191937f8c5be1e5ebec7d5bd14f71427d1e84f3dd0314c0f7b2291e5b200ac8c7c3b925929081900390910190a350600192915050565b60035460009060ff161561051e57600080fd5b6004546105296103b7565b111561059657604080517f08c379a000000000000000000000000000000000000000000000000000000000815260206004820181905260248201527f43616e2774206d696e74206d6f7265207468616e20746f74616c537570706c79604482015290519081900360640190fd5b6105a08383610a14565b50600192915050565b600160a060020a0381166000908152600560209081526040808320338452600181019092529091205460ff16151561064257604080517f08c379a000000000000000000000000000000000000000000000000000000000815260206004820152601f60248201527f4e6f7420616c72656164792066726f7a656e206279207468697320706f6c6c00604482015290519081900360640190fd5b80546000190181553360009081526001820160209081526040808320805460ff191690558051600160a060020a03861681529182019290925281517f48335238b4855f35377ed80f164e8c6f3c366e54ac00b96a6402d4a9814a03a5929181900390910190a15050565b60045481565b60045490565b600160a060020a031660009081526020819052604090205490565b60035460009060ff16156106e657600080fd5b6003805460ff191660011790556040517f47b21c3d8bed09faa6dd975d20986fabc5b54c1f66987d02792d51a7a4f55e5290600090a150600190565b60056020526000908152604090205481565b6000600160a060020a038316151561074b57600080fd5b336000908152600160209081526040808320600160a060020a03871684529091529020546104a6908363ffffffff610abe16565b3360008181526005602052604081208054919291156107ff57604080517f08c379a000000000000000000000000000000000000000000000000000000000815260206004820152601860248201527f49732070617274206f66206365727461696e20706f6c6c730000000000000000604482015290519081900360640190fd5b6108098585610ad5565b95945050505050565b600160a060020a03918216600090815260016020908152604080832093909416825291909152205490565b600160a060020a0316600090815260056020526040902054151590565b600160a060020a0381166000908152600560209081526040808320338452600181019092529091205460ff16156108f257604080517f08c379a000000000000000000000000000000000000000000000000000000000815260206004820152601b60248201527f416c72656164792066726f7a656e206279207468697320706f6c6c0000000000604482015290519081900360640190fd5b8054600190810182553360009081528282016020908152604091829020805460ff1916841790558151600160a060020a03861681529081019290925280517f48335238b4855f35377ed80f164e8c6f3c366e54ac00b96a6402d4a9814a03a59281900390910190a15050565b600160a060020a038316600090815260016020908152604080832033845290915281205482111561098e57600080fd5b600160a060020a03841660009081526001602090815260408083203384529091529020546109c2908363ffffffff610abe16565b600160a060020a03851660009081526001602090815260408083203384529091529020556109f1848484610ade565b5060019392505050565b600082820183811015610a0d57600080fd5b9392505050565b600160a060020a0382161515610a2957600080fd5b600254610a3c908263ffffffff6109fb16565b600255600160a060020a038216600090815260208190526040902054610a68908263ffffffff6109fb16565b600160a060020a0383166000818152602081815260408083209490945583518581529351929391927fddf252ad1be2c89b69c2b068fc378daa952ba7f163c4a11628f55a4df523b3ef9281900390910190a35050565b60008083831115610ace57600080fd5b5050900390565b60006105a03384845b600160a060020a038316600090815260208190526040902054811115610b0357600080fd5b600160a060020a0382161515610b1857600080fd5b600160a060020a038316600090815260208190526040902054610b41908263ffffffff610abe16565b600160a060020a038085166000908152602081905260408082209390935590841681522054610b76908263ffffffff6109fb16565b600160a060020a038084166000818152602081815260409182902094909455805185815290519193928716927fddf252ad1be2c89b69c2b068fc378daa952ba7f163c4a11628f55a4df523b3ef92918290030190a35050505600a165627a7a723058206272df1a06dc95d6ae22867d4c90bba8e34f548f69acf97e893e1f6dedf777da0029",
  "source": "pragma solidity ^0.4.25;\r\n\r\nimport \"openzeppelin-solidity/contracts/token/ERC20/ERC20.sol\";\r\nimport \"./IFreezableToken.sol\";\r\n\r\n\r\ncontract FreezableToken is ERC20, IFreezableToken {\r\n    struct FreezablePolls {\r\n        uint currentPollsParticipating;\r\n        mapping(address => bool) pollAddress;\r\n    }\r\n\r\n    bool private _mintingFinished = false;\r\n    uint public totalMintableSupply;\r\n    event MintingFinish();\r\n    event FrozenFunds(address target, bool frozen);\r\n\r\n    mapping (address => FreezablePolls) public frozenAccounts;\r\n\r\n    modifier onlyBeforeMintingFinished() {\r\n        require(!_mintingFinished);\r\n        _;\r\n    }\r\n\r\n    // @dev Limit token transfer if _sender is frozen.\r\n    modifier canTransfer(address _sender) {\r\n        FreezablePolls storage user = frozenAccounts[_sender];\r\n        require(user.currentPollsParticipating == 0, \"Is part of certain polls\");\r\n        _;\r\n    }\r\n\r\n    function isFrozen(address _target) external view returns(bool) {\r\n        return (frozenAccounts[_target].currentPollsParticipating != 0);\r\n    }\r\n\r\n    function freezeAccount(address _target) public {\r\n        FreezablePolls storage user = frozenAccounts[_target];\r\n        require(!user.pollAddress[msg.sender], \"Already frozen by this poll\");\r\n        user.currentPollsParticipating += 1;\r\n        user.pollAddress[msg.sender] = true;\r\n        emit FrozenFunds(_target, true);\r\n    }\r\n\r\n    function unFreezeAccount(address _target) public {\r\n        FreezablePolls storage user = frozenAccounts[_target];\r\n        require(user.pollAddress[msg.sender], \"Not already frozen by this poll\");\r\n        user.currentPollsParticipating -= 1;\r\n        user.pollAddress[msg.sender] = false;\r\n        emit FrozenFunds(_target, false);\r\n    }\r\n    \r\n    function transfer(address _to, uint256 _value) public canTransfer(msg.sender) returns (bool success) {\r\n        // Call StandardToken.transfer()\r\n        return super.transfer(_to, _value);\r\n    }\r\n\r\n    function transferFrom(address _from, address _to, uint256 _value) public canTransfer(_from) \r\n    returns (bool success) {\r\n        // Call StandardToken.transferForm()\r\n        return super.transferFrom(_from, _to, _value);\r\n    }\r\n\r\n    function getTotalMintableSupply() public view returns (uint) {\r\n        return totalMintableSupply;\r\n    }\r\n\r\n    function mintingFinished() public view returns(bool) {\r\n        return _mintingFinished;\r\n    }\r\n\r\n    function mint(address _to, uint256 _amount) public onlyBeforeMintingFinished returns (bool) {\r\n        require(totalSupply() <= totalMintableSupply, \"Can't mint more than totalSupply\");\r\n        _mint(_to, _amount);\r\n        return true;\r\n    }\r\n\r\n    function finishMinting() public onlyBeforeMintingFinished returns (bool) {\r\n        _mintingFinished = true;\r\n        emit MintingFinish();\r\n        return true;\r\n    }\r\n}\r\n\r\n\r\n",
  "sourcePath": "electusvoting\\contracts\\Token\\FreezableToken.sol",
  "compiler": {
    "name": "solc",
    "version": "0.4.25+commit.59dbf8f1.Emscripten.clang"
  },
  "schemaVersion": "3.0.0-beta.0",
  "updatedAt": "2018-12-12T11:18:12.477Z"
}