{
  "contractName": "LockedTokens",
  "abi": [
    {
      "constant": true,
      "inputs": [],
      "name": "crowdSaleAddress",
      "outputs": [
        {
          "name": "",
          "type": "address"
        }
      ],
      "payable": false,
      "stateMutability": "view",
      "type": "function"
    },
    {
      "constant": false,
      "inputs": [],
      "name": "renounceOwnership",
      "outputs": [],
      "payable": false,
      "stateMutability": "nonpayable",
      "type": "function"
    },
    {
      "constant": true,
      "inputs": [
        {
          "name": "",
          "type": "address"
        },
        {
          "name": "",
          "type": "uint256"
        }
      ],
      "name": "walletTokens",
      "outputs": [
        {
          "name": "amount",
          "type": "uint256"
        },
        {
          "name": "lockEndTime",
          "type": "uint256"
        },
        {
          "name": "released",
          "type": "bool"
        }
      ],
      "payable": false,
      "stateMutability": "view",
      "type": "function"
    },
    {
      "constant": true,
      "inputs": [],
      "name": "owner",
      "outputs": [
        {
          "name": "",
          "type": "address"
        }
      ],
      "payable": false,
      "stateMutability": "view",
      "type": "function"
    },
    {
      "constant": true,
      "inputs": [],
      "name": "isOwner",
      "outputs": [
        {
          "name": "",
          "type": "bool"
        }
      ],
      "payable": false,
      "stateMutability": "view",
      "type": "function"
    },
    {
      "constant": false,
      "inputs": [
        {
          "name": "newOwner",
          "type": "address"
        }
      ],
      "name": "transferOwnership",
      "outputs": [],
      "payable": false,
      "stateMutability": "nonpayable",
      "type": "function"
    },
    {
      "constant": true,
      "inputs": [],
      "name": "token",
      "outputs": [
        {
          "name": "",
          "type": "address"
        }
      ],
      "payable": false,
      "stateMutability": "view",
      "type": "function"
    },
    {
      "inputs": [
        {
          "name": "_token",
          "type": "address"
        }
      ],
      "payable": false,
      "stateMutability": "nonpayable",
      "type": "constructor"
    },
    {
      "anonymous": false,
      "inputs": [
        {
          "indexed": false,
          "name": "_to",
          "type": "address"
        },
        {
          "indexed": false,
          "name": "_value",
          "type": "uint256"
        }
      ],
      "name": "TokensUnlocked",
      "type": "event"
    },
    {
      "anonymous": false,
      "inputs": [
        {
          "indexed": false,
          "name": "_to",
          "type": "address"
        },
        {
          "indexed": false,
          "name": "_value",
          "type": "uint256"
        },
        {
          "indexed": false,
          "name": "_endTime",
          "type": "uint256"
        }
      ],
      "name": "TokensLocked",
      "type": "event"
    },
    {
      "anonymous": false,
      "inputs": [
        {
          "indexed": true,
          "name": "previousOwner",
          "type": "address"
        },
        {
          "indexed": true,
          "name": "newOwner",
          "type": "address"
        }
      ],
      "name": "OwnershipTransferred",
      "type": "event"
    },
    {
      "constant": false,
      "inputs": [
        {
          "name": "_crowdSaleAddress",
          "type": "address"
        }
      ],
      "name": "setCrowdSaleAddress",
      "outputs": [],
      "payable": false,
      "stateMutability": "nonpayable",
      "type": "function"
    },
    {
      "constant": false,
      "inputs": [
        {
          "name": "_to",
          "type": "address"
        },
        {
          "name": "_amount",
          "type": "uint256"
        },
        {
          "name": "_lockEndTime",
          "type": "uint256"
        }
      ],
      "name": "addTokens",
      "outputs": [],
      "payable": false,
      "stateMutability": "nonpayable",
      "type": "function"
    },
    {
      "constant": false,
      "inputs": [],
      "name": "releaseTokens",
      "outputs": [],
      "payable": false,
      "stateMutability": "nonpayable",
      "type": "function"
    }
  ],
  "bytecode": "0x608060405234801561001057600080fd5b5060405160208061080e833981016040819052905160008054600160a060020a03191633178082559192600160a060020a0392909216917f8be0079c531659141344cd1fd0a4f28419497f9722a3daafe3b4186f6b6457e0908290a360018054600160a060020a031916600160a060020a03929092169190911790556107738061009b6000396000f3006080604052600436106100a35763ffffffff7c01000000000000000000000000000000000000000000000000000000006000350416630184fc3581146100a8578063715018a6146100d957806375090b67146100f05780638da5cb5b146101345780638f32d59b146101495780638f45612514610172578063a96f866814610193578063ca056aed146101a8578063f2fde38b146101cf578063fc0c546a146101f0575b600080fd5b3480156100b457600080fd5b506100bd610205565b60408051600160a060020a039092168252519081900360200190f35b3480156100e557600080fd5b506100ee610214565b005b3480156100fc57600080fd5b50610114600160a060020a036004351660243561027e565b604080519384526020840192909252151582820152519081900360600190f35b34801561014057600080fd5b506100bd6102c2565b34801561015557600080fd5b5061015e6102d1565b604080519115158252519081900360200190f35b34801561017e57600080fd5b506100ee600160a060020a03600435166102e2565b34801561019f57600080fd5b506100ee61033a565b3480156101b457600080fd5b506100ee600160a060020a0360043516602435604435610576565b3480156101db57600080fd5b506100ee600160a060020a036004351661069f565b3480156101fc57600080fd5b506100bd6106bb565b600254600160a060020a031681565b61021c6102d1565b151561022757600080fd5b60008054604051600160a060020a03909116907f8be0079c531659141344cd1fd0a4f28419497f9722a3daafe3b4186f6b6457e0908390a36000805473ffffffffffffffffffffffffffffffffffffffff19169055565b60036020528160005260406000208181548110151561029957fe5b600091825260209091206003909102018054600182015460029092015490935090915060ff1683565b600054600160a060020a031690565b600054600160a060020a0316331490565b6102ea6102d1565b15156102f557600080fd5b600254600160a060020a03161561030b57600080fd5b6002805473ffffffffffffffffffffffffffffffffffffffff1916600160a060020a0392909216919091179055565b33600090815260036020526040812054811061035557600080fd5b5060005b336000908152600360205260409020548110156105735733600090815260036020526040902080548290811061038b57fe5b600091825260209091206002600390920201015460ff161580156103db57503360009081526003602052604090208054829081106103c557fe5b9060005260206000209060030201600101544210155b1561056b57336000908152600360205260409020805460019190839081106103ff57fe5b60009182526020808320600392830201600201805460ff191694151594909417909355600154338084529190935260409091208054600160a060020a039093169263a9059cbb9291908590811061045257fe5b9060005260206000209060030201600001546040518363ffffffff167c01000000000000000000000000000000000000000000000000000000000281526004018083600160a060020a0316600160a060020a0316815260200182815260200192505050602060405180830381600087803b1580156104cf57600080fd5b505af11580156104e3573d6000803e3d6000fd5b505050506040513d60208110156104f957600080fd5b505033600081815260036020526040902080547fe7b379c6c1fa169e9079c25e9143b127637eef8ec8c9d5c06ddb4ab3e11958889291908490811061053a57fe5b60009182526020918290206003909102015460408051600160a060020a039094168452918301528051918290030190a15b600101610359565b50565b600254600160a060020a031633146105ef57604080517f08c379a000000000000000000000000000000000000000000000000000000000815260206004820152601160248201527f4e6f7420656e6f75676820726967687473000000000000000000000000000000604482015290519081900360640190fd5b600160a060020a0383166000818152600360208181526040808420815160608082018452898252818501898152828501888152845460018082018755958a529887902093519890970290920196875590519186019190915592516002909401805460ff1916941515949094179093558251938452830185905282820184905290517fd741e738a23fd18a03a26522320d9fc6cac1fed483e215ea9150fbc2fc43385d9281900390910190a1505050565b6106a76102d1565b15156106b257600080fd5b610573816106ca565b600154600160a060020a031681565b600160a060020a03811615156106df57600080fd5b60008054604051600160a060020a03808516939216917f8be0079c531659141344cd1fd0a4f28419497f9722a3daafe3b4186f6b6457e091a36000805473ffffffffffffffffffffffffffffffffffffffff1916600160a060020a03929092169190911790555600a165627a7a72305820650b9f66b5f8293c57b6bfbfa476b89c289b67e7b3467d9855984724eb68ec700029",
  "source": "pragma solidity ^0.4.25;\r\n\r\nimport \"openzeppelin-solidity/contracts/token/ERC20/IERC20.sol\";\r\nimport \"openzeppelin-solidity/contracts/ownership/Ownable.sol\";\r\n\r\n\r\ncontract LockedTokens is Ownable {\r\n    struct Tokens {\r\n        uint amount;\r\n        uint lockEndTime;\r\n        bool released;\r\n    }\r\n\r\n    event TokensUnlocked(address _to, uint _value);\r\n    event TokensLocked(address _to, uint _value, uint _endTime);\r\n\r\n    IERC20 public token;\r\n    address public crowdSaleAddress;\r\n    mapping(address => Tokens[]) public walletTokens;\r\n\r\n    constructor(address _token) public {\r\n        token = IERC20(_token);\r\n    }\r\n\r\n    function setCrowdSaleAddress(address _crowdSaleAddress) external onlyOwner {\r\n        require(crowdSaleAddress == address(0));\r\n        crowdSaleAddress = _crowdSaleAddress;\r\n    }\r\n\r\n    function addTokens(address _to, uint _amount, uint _lockEndTime) external {\r\n        require(msg.sender == crowdSaleAddress, \"Not enough rights\");\r\n        walletTokens[_to].push(Tokens({amount: _amount, lockEndTime: _lockEndTime, released: false}));\r\n        emit TokensLocked(_to, _amount, _lockEndTime);\r\n    }\r\n\r\n    function releaseTokens() public {\r\n        require(walletTokens[msg.sender].length > 0);\r\n        for (uint i = 0; i < walletTokens[msg.sender].length; i++) {\r\n            if (!walletTokens[msg.sender][i].released && now >= walletTokens[msg.sender][i].lockEndTime) {\r\n                walletTokens[msg.sender][i].released = true;\r\n                token.transfer(msg.sender, walletTokens[msg.sender][i].amount);\r\n                emit TokensUnlocked(msg.sender, walletTokens[msg.sender][i].amount);\r\n            }\r\n        }\r\n    }\r\n}",
  "sourcePath": "C:/Users/Naina/source/repos/vault-sc/contracts/Token/LockedTokens.sol",
  "compiler": {
    "name": "solc",
    "version": "0.4.25+commit.59dbf8f1.Emscripten.clang"
  },
  "schemaVersion": "3.0.0-beta.0",
  "updatedAt": "2018-12-12T11:18:12.441Z"
}