{
  "contractName": "PollFactory",
  "abi": [
    {
      "constant": true,
      "inputs": [],
      "name": "crowdSaleAddress",
      "outputs": [
        {
          "name": "",
          "type": "address"
        }
      ],
      "payable": false,
      "stateMutability": "view",
      "type": "function"
    },
    {
      "constant": false,
      "inputs": [],
      "name": "onR1Start",
      "outputs": [],
      "payable": false,
      "stateMutability": "nonpayable",
      "type": "function"
    },
    {
      "constant": true,
      "inputs": [],
      "name": "currentKillPollIndex",
      "outputs": [
        {
          "name": "",
          "type": "uint256"
        }
      ],
      "payable": false,
      "stateMutability": "view",
      "type": "function"
    },
    {
      "constant": true,
      "inputs": [],
      "name": "teamAddress",
      "outputs": [
        {
          "name": "",
          "type": "address"
        }
      ],
      "payable": false,
      "stateMutability": "view",
      "type": "function"
    },
    {
      "constant": true,
      "inputs": [],
      "name": "initalFundRelease",
      "outputs": [
        {
          "name": "",
          "type": "uint256"
        }
      ],
      "payable": false,
      "stateMutability": "view",
      "type": "function"
    },
    {
      "constant": true,
      "inputs": [],
      "name": "KILL_POLL_DURATION",
      "outputs": [
        {
          "name": "",
          "type": "uint256"
        }
      ],
      "payable": false,
      "stateMutability": "view",
      "type": "function"
    },
    {
      "constant": true,
      "inputs": [],
      "name": "capPercent",
      "outputs": [
        {
          "name": "",
          "type": "uint256"
        }
      ],
      "payable": false,
      "stateMutability": "view",
      "type": "function"
    },
    {
      "constant": false,
      "inputs": [],
      "name": "refundByKill",
      "outputs": [],
      "payable": false,
      "stateMutability": "nonpayable",
      "type": "function"
    },
    {
      "constant": true,
      "inputs": [],
      "name": "pivotTime",
      "outputs": [
        {
          "name": "",
          "type": "uint256"
        }
      ],
      "payable": false,
      "stateMutability": "view",
      "type": "function"
    },
    {
      "constant": false,
      "inputs": [],
      "name": "enableCrowdsaleRefund",
      "outputs": [],
      "payable": false,
      "stateMutability": "nonpayable",
      "type": "function"
    },
    {
      "constant": false,
      "inputs": [],
      "name": "refundBySoftcapFail",
      "outputs": [],
      "payable": false,
      "stateMutability": "nonpayable",
      "type": "function"
    },
    {
      "constant": true,
      "inputs": [],
      "name": "XFR_POLL_DURATION",
      "outputs": [
        {
          "name": "",
          "type": "uint256"
        }
      ],
      "payable": false,
      "stateMutability": "view",
      "type": "function"
    },
    {
      "constant": true,
      "inputs": [],
      "name": "killAcceptancePercent",
      "outputs": [
        {
          "name": "",
          "type": "uint256"
        }
      ],
      "payable": false,
      "stateMutability": "view",
      "type": "function"
    },
    {
      "constant": false,
      "inputs": [],
      "name": "processContribution",
      "outputs": [],
      "payable": true,
      "stateMutability": "payable",
      "type": "function"
    },
    {
      "constant": true,
      "inputs": [],
      "name": "totalEtherRaised",
      "outputs": [
        {
          "name": "",
          "type": "uint256"
        }
      ],
      "payable": false,
      "stateMutability": "view",
      "type": "function"
    },
    {
      "constant": true,
      "inputs": [],
      "name": "currentKillPoll",
      "outputs": [
        {
          "name": "",
          "type": "address"
        }
      ],
      "payable": false,
      "stateMutability": "view",
      "type": "function"
    },
    {
      "constant": true,
      "inputs": [
        {
          "name": "",
          "type": "uint256"
        }
      ],
      "name": "killPollAddresses",
      "outputs": [
        {
          "name": "",
          "type": "address"
        }
      ],
      "payable": false,
      "stateMutability": "view",
      "type": "function"
    },
    {
      "constant": false,
      "inputs": [],
      "name": "renounceOwnership",
      "outputs": [],
      "payable": false,
      "stateMutability": "nonpayable",
      "type": "function"
    },
    {
      "constant": true,
      "inputs": [],
      "name": "tapAcceptancePercent",
      "outputs": [
        {
          "name": "",
          "type": "uint256"
        }
      ],
      "payable": false,
      "stateMutability": "view",
      "type": "function"
    },
    {
      "constant": true,
      "inputs": [],
      "name": "vaultMembershipAddress",
      "outputs": [
        {
          "name": "",
          "type": "address"
        }
      ],
      "payable": false,
      "stateMutability": "view",
      "type": "function"
    },
    {
      "constant": true,
      "inputs": [],
      "name": "erc20Token",
      "outputs": [
        {
          "name": "",
          "type": "address"
        }
      ],
      "payable": false,
      "stateMutability": "view",
      "type": "function"
    },
    {
      "constant": true,
      "inputs": [],
      "name": "owner",
      "outputs": [
        {
          "name": "",
          "type": "address"
        }
      ],
      "payable": false,
      "stateMutability": "view",
      "type": "function"
    },
    {
      "constant": true,
      "inputs": [],
      "name": "isOwner",
      "outputs": [
        {
          "name": "",
          "type": "bool"
        }
      ],
      "payable": false,
      "stateMutability": "view",
      "type": "function"
    },
    {
      "constant": false,
      "inputs": [
        {
          "name": "_crowdSaleAddress",
          "type": "address"
        }
      ],
      "name": "setCrowdSaleAddress",
      "outputs": [],
      "payable": false,
      "stateMutability": "nonpayable",
      "type": "function"
    },
    {
      "constant": true,
      "inputs": [
        {
          "name": "",
          "type": "uint256"
        }
      ],
      "name": "xfrPollData",
      "outputs": [
        {
          "name": "xfrPollAddress",
          "type": "address"
        },
        {
          "name": "amountRequested",
          "type": "uint256"
        },
        {
          "name": "startDate",
          "type": "uint256"
        }
      ],
      "payable": false,
      "stateMutability": "view",
      "type": "function"
    },
    {
      "constant": true,
      "inputs": [],
      "name": "killPollsDeployed",
      "outputs": [
        {
          "name": "",
          "type": "uint256"
        }
      ],
      "payable": false,
      "stateMutability": "view",
      "type": "function"
    },
    {
      "constant": true,
      "inputs": [],
      "name": "currentTap",
      "outputs": [
        {
          "name": "",
          "type": "uint256"
        }
      ],
      "payable": false,
      "stateMutability": "view",
      "type": "function"
    },
    {
      "constant": true,
      "inputs": [],
      "name": "lockedTokenAddress",
      "outputs": [
        {
          "name": "",
          "type": "address"
        }
      ],
      "payable": false,
      "stateMutability": "view",
      "type": "function"
    },
    {
      "constant": true,
      "inputs": [],
      "name": "state",
      "outputs": [
        {
          "name": "",
          "type": "uint8"
        }
      ],
      "payable": false,
      "stateMutability": "view",
      "type": "function"
    },
    {
      "constant": true,
      "inputs": [],
      "name": "xfrRejectionPercent",
      "outputs": [
        {
          "name": "",
          "type": "uint256"
        }
      ],
      "payable": false,
      "stateMutability": "view",
      "type": "function"
    },
    {
      "constant": true,
      "inputs": [],
      "name": "pollDeployer",
      "outputs": [
        {
          "name": "",
          "type": "address"
        }
      ],
      "payable": false,
      "stateMutability": "view",
      "type": "function"
    },
    {
      "constant": true,
      "inputs": [],
      "name": "tapPoll",
      "outputs": [
        {
          "name": "",
          "type": "address"
        }
      ],
      "payable": false,
      "stateMutability": "view",
      "type": "function"
    },
    {
      "constant": true,
      "inputs": [],
      "name": "killPollStartDate",
      "outputs": [
        {
          "name": "",
          "type": "uint256"
        }
      ],
      "payable": false,
      "stateMutability": "view",
      "type": "function"
    },
    {
      "constant": true,
      "inputs": [],
      "name": "splineHeightAtPivot",
      "outputs": [
        {
          "name": "",
          "type": "uint256"
        }
      ],
      "payable": false,
      "stateMutability": "view",
      "type": "function"
    },
    {
      "constant": true,
      "inputs": [],
      "name": "withdrawnTillNow",
      "outputs": [
        {
          "name": "",
          "type": "uint256"
        }
      ],
      "payable": false,
      "stateMutability": "view",
      "type": "function"
    },
    {
      "constant": true,
      "inputs": [],
      "name": "initialTap",
      "outputs": [
        {
          "name": "",
          "type": "uint256"
        }
      ],
      "payable": false,
      "stateMutability": "view",
      "type": "function"
    },
    {
      "constant": true,
      "inputs": [
        {
          "name": "",
          "type": "address"
        }
      ],
      "name": "pollAddresses",
      "outputs": [
        {
          "name": "",
          "type": "bool"
        }
      ],
      "payable": false,
      "stateMutability": "view",
      "type": "function"
    },
    {
      "constant": false,
      "inputs": [
        {
          "name": "newOwner",
          "type": "address"
        }
      ],
      "name": "transferOwnership",
      "outputs": [],
      "payable": false,
      "stateMutability": "nonpayable",
      "type": "function"
    },
    {
      "constant": true,
      "inputs": [],
      "name": "tapIncrementFactor",
      "outputs": [
        {
          "name": "",
          "type": "uint256"
        }
      ],
      "payable": false,
      "stateMutability": "view",
      "type": "function"
    },
    {
      "constant": true,
      "inputs": [],
      "name": "VERSION",
      "outputs": [
        {
          "name": "",
          "type": "uint256"
        }
      ],
      "payable": false,
      "stateMutability": "view",
      "type": "function"
    },
    {
      "inputs": [
        {
          "name": "_erc20Token",
          "type": "address"
        },
        {
          "name": "_teamAddress",
          "type": "address"
        },
        {
          "name": "_initalFundRelease",
          "type": "uint256"
        },
        {
          "name": "_initialTap",
          "type": "uint256"
        },
        {
          "name": "_killPollStartDate",
          "type": "uint256"
        },
        {
          "name": "_vaultMembershipAddress",
          "type": "address"
        },
        {
          "name": "_capPercent",
          "type": "uint256"
        },
        {
          "name": "_killAcceptancePercent",
          "type": "uint256"
        },
        {
          "name": "_xfrRejectionPercent",
          "type": "uint256"
        },
        {
          "name": "_tapAcceptancePercent",
          "type": "uint256"
        },
        {
          "name": "_lockedTokenAddress",
          "type": "address"
        },
        {
          "name": "_tapIncrementFactor",
          "type": "uint256"
        },
        {
          "name": "_pollDeployer",
          "type": "address"
        }
      ],
      "payable": false,
      "stateMutability": "nonpayable",
      "type": "constructor"
    },
    {
      "anonymous": false,
      "inputs": [
        {
          "indexed": false,
          "name": "contractAddress",
          "type": "address"
        },
        {
          "indexed": false,
          "name": "consensus",
          "type": "uint256"
        }
      ],
      "name": "RefundStarted",
      "type": "event"
    },
    {
      "anonymous": false,
      "inputs": [
        {
          "indexed": false,
          "name": "amountWei",
          "type": "uint256"
        }
      ],
      "name": "Withdraw",
      "type": "event"
    },
    {
      "anonymous": false,
      "inputs": [
        {
          "indexed": false,
          "name": "amountWei",
          "type": "uint256"
        },
        {
          "indexed": false,
          "name": "contractAddress",
          "type": "address"
        },
        {
          "indexed": false,
          "name": "consensus",
          "type": "uint256"
        }
      ],
      "name": "XfrWithdraw",
      "type": "event"
    },
    {
      "anonymous": false,
      "inputs": [
        {
          "indexed": false,
          "name": "amountWei",
          "type": "uint256"
        },
        {
          "indexed": false,
          "name": "contractAddress",
          "type": "address"
        },
        {
          "indexed": false,
          "name": "consensus",
          "type": "uint256"
        }
      ],
      "name": "TapIncreased",
      "type": "event"
    },
    {
      "anonymous": false,
      "inputs": [
        {
          "indexed": false,
          "name": "xfrAddress",
          "type": "address"
        }
      ],
      "name": "XfrPollCreated",
      "type": "event"
    },
    {
      "anonymous": false,
      "inputs": [
        {
          "indexed": false,
          "name": "tapPollAddress",
          "type": "address"
        }
      ],
      "name": "TapPollCreated",
      "type": "event"
    },
    {
      "anonymous": false,
      "inputs": [
        {
          "indexed": false,
          "name": "tokenHolder",
          "type": "address"
        },
        {
          "indexed": false,
          "name": "amountWei",
          "type": "uint256"
        },
        {
          "indexed": false,
          "name": "tokenAmount",
          "type": "uint256"
        }
      ],
      "name": "RefundSent",
      "type": "event"
    },
    {
      "anonymous": false,
      "inputs": [],
      "name": "DaicoRefunded",
      "type": "event"
    },
    {
      "anonymous": false,
      "inputs": [
        {
          "indexed": true,
          "name": "previousOwner",
          "type": "address"
        },
        {
          "indexed": true,
          "name": "newOwner",
          "type": "address"
        }
      ],
      "name": "OwnershipTransferred",
      "type": "event"
    },
    {
      "constant": false,
      "inputs": [],
      "name": "createKillPolls",
      "outputs": [],
      "payable": false,
      "stateMutability": "nonpayable",
      "type": "function"
    },
    {
      "constant": false,
      "inputs": [],
      "name": "createRemainingKillPolls",
      "outputs": [],
      "payable": false,
      "stateMutability": "nonpayable",
      "type": "function"
    },
    {
      "constant": false,
      "inputs": [],
      "name": "executeKill",
      "outputs": [],
      "payable": false,
      "stateMutability": "nonpayable",
      "type": "function"
    },
    {
      "constant": false,
      "inputs": [],
      "name": "createTapIncrementPoll",
      "outputs": [],
      "payable": false,
      "stateMutability": "nonpayable",
      "type": "function"
    },
    {
      "constant": false,
      "inputs": [],
      "name": "increaseTap",
      "outputs": [],
      "payable": false,
      "stateMutability": "nonpayable",
      "type": "function"
    },
    {
      "constant": false,
      "inputs": [
        {
          "name": "_amountToWithdraw",
          "type": "uint256"
        }
      ],
      "name": "createXfr",
      "outputs": [],
      "payable": false,
      "stateMutability": "nonpayable",
      "type": "function"
    },
    {
      "constant": false,
      "inputs": [],
      "name": "withdrawXfrAmount",
      "outputs": [],
      "payable": false,
      "stateMutability": "nonpayable",
      "type": "function"
    },
    {
      "constant": false,
      "inputs": [
        {
          "name": "_amount",
          "type": "uint256"
        }
      ],
      "name": "onCrowdSaleR1End",
      "outputs": [],
      "payable": false,
      "stateMutability": "nonpayable",
      "type": "function"
    },
    {
      "constant": false,
      "inputs": [
        {
          "name": "_amount",
          "type": "uint256"
        }
      ],
      "name": "withdrawAmount",
      "outputs": [],
      "payable": false,
      "stateMutability": "nonpayable",
      "type": "function"
    },
    {
      "constant": false,
      "inputs": [],
      "name": "kill",
      "outputs": [],
      "payable": false,
      "stateMutability": "nonpayable",
      "type": "function"
    },
    {
      "constant": true,
      "inputs": [
        {
          "name": "_address",
          "type": "address"
        }
      ],
      "name": "isPollAddress",
      "outputs": [
        {
          "name": "",
          "type": "bool"
        }
      ],
      "payable": false,
      "stateMutability": "view",
      "type": "function"
    },
    {
      "constant": true,
      "inputs": [],
      "name": "isKillPollDeployed",
      "outputs": [
        {
          "name": "",
          "type": "bool"
        }
      ],
      "payable": false,
      "stateMutability": "view",
      "type": "function"
    },
    {
      "constant": true,
      "inputs": [],
      "name": "getKillPollStartDate",
      "outputs": [
        {
          "name": "",
          "type": "uint256"
        }
      ],
      "payable": false,
      "stateMutability": "view",
      "type": "function"
    },
    {
      "constant": true,
      "inputs": [],
      "name": "canIncreaseTap",
      "outputs": [
        {
          "name": "code",
          "type": "uint256"
        },
        {
          "name": "consensus",
          "type": "uint256"
        }
      ],
      "payable": false,
      "stateMutability": "view",
      "type": "function"
    },
    {
      "constant": true,
      "inputs": [],
      "name": "canWithdrawXfr",
      "outputs": [
        {
          "name": "code1",
          "type": "uint256"
        },
        {
          "name": "code2",
          "type": "uint256"
        },
        {
          "name": "consensus1",
          "type": "uint256"
        },
        {
          "name": "consensus2",
          "type": "uint256"
        }
      ],
      "payable": false,
      "stateMutability": "view",
      "type": "function"
    },
    {
      "constant": true,
      "inputs": [],
      "name": "canKill",
      "outputs": [
        {
          "name": "code",
          "type": "uint256"
        },
        {
          "name": "consensus",
          "type": "uint256"
        }
      ],
      "payable": false,
      "stateMutability": "view",
      "type": "function"
    }
  ],
  "bytecode": "0x608060405234801561001057600080fd5b506040516101a080620030e6833981018060405281019080805190602001909291908051906020019092919080519060200190929190805190602001909291908051906020019092919080519060200190929190805190602001909291908051906020019092919080519060200190929190805190602001909291908051906020019092919080519060200190929190805190602001909291905050508c8c8c858d8686336000806101000a815481600160a060020a030219169083600160a060020a031602179055506000809054906101000a9004600160a060020a0316600160a060020a03166000600160a060020a03167f8be0079c531659141344cd1fd0a4f28419497f9722a3daafe3b4186f6b6457e060405160405180910390a360038054600160a060020a039889166101000261010060a860020a031990911617905560068054968816600160a060020a03199788161790556007949094556008805493871693861693909317909255600155600b5560048054919093169116179055605086111561022857604080517f08c379a000000000000000000000000000000000000000000000000000000000815260206004820152602860248201527f4b696c6c20416363657074616e63652073686f756c64206265206c657373207460448201527f68616e2038302025000000000000000000000000000000000000000000000000606482015290519081900360840190fd5b603285111561029857604080517f08c379a000000000000000000000000000000000000000000000000000000000815260206004820152601c60248201527f4174206c6561737420353025206d757374206163636570742078667200000000604482015290519081900360640190fd5b603284101561032e57604080517f08c379a000000000000000000000000000000000000000000000000000000000815260206004820152602660248201527f4174206c6561737420353025206d757374206163636570742074617020696e6360448201527f72656d656e740000000000000000000000000000000000000000000000000000606482015290519081900360840190fd5b506023959095555060209290925560225560215560158054600160a060020a03909316600160a060020a031990931692909217909155601491909155600b5550505050612d6580620003816000396000f3006080604052600436106102845763ffffffff60e060020a6000350416630184fc358114610289578063027fc0b0146102ba5780630562b9f7146102d1578063113ad34e146102e957806313845a70146103105780631b59555c146103255780631be484391461033a5780631c75f0851461034f5780631fdbbc6a1461036457806320ab989514610379578063259845f81461038e5780632db013bc146103a357806332486b27146103b85780633b64e77e146103cd5780633cf17a05146103e257806341c0e1b5146103f7578063478960c31461040c5780634992a62f146104215780634e064c6d146104365780635613ba401461044b578063677ab19714610460578063691a584214610468578063698e2c3e1461047d5780637049ecf814610492578063715018a6146104aa57806371fa1d3a146104bf578063797626ec146104d45780637a5ce13e146104e95780638a13eea7146105015780638da5cb5b146105165780638f32d59b1461052b5780638f4561251461055457806390edce3b146105755780639c02435d146105b5578063a59053db146105ca578063a666ff3c146105df578063acb50677146105f4578063b3cf019414610609578063bbe7cbe614610644578063c19d93fb14610665578063c29028f21461069e578063c6578472146106cc578063c7904d24146106e1578063cae6b9c5146106f6578063cb21ff1d1461070b578063cf65929e14610720578063d8e589a314610735578063dea6d3d31461074a578063dec9091814610762578063e0db574514610777578063e68c9fe11461078c578063e6996291146107ad578063efe1497f146107c2578063f2fde38b146107d7578063f95b2b55146107f8578063ffa1ad741461080d575b600080fd5b34801561029557600080fd5b5061029e610822565b60408051600160a060020a039092168252519081900360200190f35b3480156102c657600080fd5b506102cf610831565b005b3480156102dd57600080fd5b506102cf6004356108e7565b3480156102f557600080fd5b506102fe610b24565b60408051918252519081900360200190f35b34801561031c57600080fd5b506102cf610b2a565b34801561033157600080fd5b506102fe610b98565b34801561034657600080fd5b506102cf610b9e565b34801561035b57600080fd5b5061029e610ecb565b34801561037057600080fd5b506102fe610eda565b34801561038557600080fd5b506102fe610ee0565b34801561039a57600080fd5b506102fe610ee7565b3480156103af57600080fd5b506102cf610eed565b3480156103c457600080fd5b506102fe610f5e565b3480156103d957600080fd5b506102cf610f64565b3480156103ee57600080fd5b506102cf61106e565b34801561040357600080fd5b506102cf6110d6565b34801561041857600080fd5b506102cf611101565b34801561042d57600080fd5b506102cf61139b565b34801561044257600080fd5b506102fe611442565b34801561045757600080fd5b506102fe611449565b6102cf61144f565b34801561047457600080fd5b506102fe6114e5565b34801561048957600080fd5b5061029e6114eb565b34801561049e57600080fd5b5061029e6004356114fa565b3480156104b657600080fd5b506102cf611517565b3480156104cb57600080fd5b506102fe611581565b3480156104e057600080fd5b5061029e611587565b3480156104f557600080fd5b506102cf600435611596565b34801561050d57600080fd5b5061029e611681565b34801561052257600080fd5b5061029e611695565b34801561053757600080fd5b506105406116a4565b604080519115158252519081900360200190f35b34801561056057600080fd5b506102cf600160a060020a03600435166116b5565b34801561058157600080fd5b5061058d60043561170d565b60408051600160a060020a039094168452602084019290925282820152519081900360600190f35b3480156105c157600080fd5b506102fe61173b565b3480156105d657600080fd5b506102fe611741565b3480156105eb57600080fd5b5061029e611747565b34801561060057600080fd5b50610540611756565b34801561061557600080fd5b5061061e61175f565b604080519485526020850193909352838301919091526060830152519081900360800190f35b34801561065057600080fd5b50610540600160a060020a0360043516611a31565b34801561067157600080fd5b5061067a611a4f565b6040518082600381111561068a57fe5b60ff16815260200191505060405180910390f35b3480156106aa57600080fd5b506106b3611a58565b6040805192835260208301919091528051918290030190f35b3480156106d857600080fd5b506102fe611ba4565b3480156106ed57600080fd5b5061029e611baa565b34801561070257600080fd5b5061029e611bb9565b34801561071757600080fd5b506102fe611bc8565b34801561072c57600080fd5b506102fe611bce565b34801561074157600080fd5b506102fe611bd4565b34801561075657600080fd5b506102cf600435611bda565b34801561076e57600080fd5b506102fe612018565b34801561078357600080fd5b506102cf61201e565b34801561079857600080fd5b50610540600160a060020a0360043516612283565b3480156107b957600080fd5b506102cf612298565b3480156107ce57600080fd5b506106b36124a0565b3480156107e357600080fd5b506102cf600160a060020a03600435166125ad565b34801561080457600080fd5b506102fe6125c9565b34801561081957600080fd5b506102fe6125cf565b600554600160a060020a031681565b6026546000901561088c576040805160e560020a62461bcd02815260206004820181905260248201527f506f6c6c73206861766520616c7265616479206265656e206465706c6f796564604482015290519081900360640190fd5b5060005b60048160ff1610156108ad576108a5816125d4565b600101610890565b600c60000154601c805473ffffffffffffffffffffffffffffffffffffffff1916600160a060020a03909216919091179055506000601f55565b6000806108f26116a4565b15156108fd57600080fd5b60026003805460ff169081111561091057fe5b14610965576040805160e560020a62461bcd02815260206004820152601460248201527f4e6f7420476f7665726e616e6365207068617365000000000000000000000000604482015290519081900360640190fd5b61096d611a58565b9092509050600a82146109ca576040805160e560020a62461bcd02815260206004820152601360248201527f63616e6e6f74207769746864726177206e6f7700000000000000000000000000604482015290519081900360640190fd5b30318310610a22576040805160e560020a62461bcd02815260206004820152601260248201527f496e73756666696369656e742066756e64730000000000000000000000000000604482015290519081900360640190fd5b610a44602454610a3f610a37426009546127fe565b60025461281c565b612851565b60248190556025549003831115610aa5576040805160e560020a62461bcd02815260206004820152600b60248201527f4e6f7420616c6c6f776564000000000000000000000000000000000000000000604482015290519081900360640190fd5b426009556025805484019055600654604051600160a060020a039091169084156108fc029085906000818181858888f19350505050158015610aeb573d6000803e3d6000fd5b506040805184815290517f5b6b431d4476a211bb7d41c20d1aab9ae2321deee0d20be3d9fc9b1093fa6e3d9181900360200190a1505050565b60145490565b600554600160a060020a03163314610b8c576040805160e560020a62461bcd02815260206004820152601560248201527f4e6f742063726f776473616c6520616464726573730000000000000000000000604482015290519081900360640190fd5b6003805460ff19169055565b601f5481565b610ba66116a4565b1515610bb157600080fd5b60026003805460ff1690811115610bc457fe5b14610c19576040805160e560020a62461bcd02815260206004820152601460248201527f4e6f7420476f7665726e616e6365207068617365000000000000000000000000604482015290519081900360640190fd5b601d54600160a060020a031615610ca0576040805160e560020a62461bcd02815260206004820152602160248201527f54617020496e6372656d656e7420706f6c6c20616c726561647920657869737460448201527f7300000000000000000000000000000000000000000000000000000000000000606482015290519081900360840190fd5b6004805460155460038054602354604080517f95c7aba4000000000000000000000000000000000000000000000000000000008152600160a060020a03958616978101979097526101009092048416604487015260648601524260010160e4860152600061010486018190523061012487015261014060248701526101448601929092527f7965730000000000000000000000000000000000000000000000000000000000610164860152610180608486015260056101848601527f5661756c740000000000000000000000000000000000000000000000000000006101a48601526101c060a486015260126101c48601527f54617020496e6372656d656e7420506f6c6c00000000000000000000000000006101e486015261020060c486015260196102048601527f546f6b656e2050726f706f7274696f6e616c20436170706564000000000000006102248601525191909216926395c7aba4926102448083019360209390929083900390910190829087803b158015610e2157600080fd5b505af1158015610e35573d6000803e3d6000fd5b505050506040513d6020811015610e4b57600080fd5b5051601d805473ffffffffffffffffffffffffffffffffffffffff1916600160a060020a039283161780825582166000908152601e6020908152604091829020805460ff191660011790559154815193168352517f0ff1aa674f3f4ed852ec08f5eb515d50af82fbdf5b07e86bc00120decc48ec159281900390910190a1565b600654600160a060020a031681565b60075481565b6275558081565b60235481565b6003805460ff1681811115610efe57fe5b14610f53576040805160e560020a62461bcd02815260206004820152601460248201527f4e6f7420796574206b696c6c6564207068617365000000000000000000000000604482015290519081900360640190fd5b610f5c33612863565b565b60095481565b600554600160a060020a03163314610fc6576040805160e560020a62461bcd02815260206004820152601560248201527f4e6f742063726f776473616c6520616464726573730000000000000000000000604482015290519081900360640190fd5b60006003805460ff1690811115610fd957fe5b1461102e576040805160e560020a62461bcd02815260206004820152601360248201527f4e6f742063726f776473616c6520706861736500000000000000000000000000604482015290519081900360640190fd5b6003805460ff19166001179055611043612b24565b6040517f631bc0565bc5cd2296a2ccb2e86b4576ee14c75047d7c258e483519be018437090600090a1565b60016003805460ff169081111561108157fe5b14610f53576040805160e560020a62461bcd02815260206004820152601a60248201527f4e6f742063726f776473616c6520726566756e64207068617365000000000000604482015290519081900360640190fd5b60006110e06116a4565b15156110eb57600080fd5b6110f3611695565b905080600160a060020a0316ff5b600080601c60009054906101000a9004600160a060020a0316600160a060020a031663acd82ac96040518163ffffffff1660e060020a028152600401602060405180830381600087803b15801561115757600080fd5b505af115801561116b573d6000803e3d6000fd5b505050506040513d602081101561118157600080fd5b505115156111d9576040805160e560020a62461bcd02815260206004820152601560248201527f506f6c6c206861736e277420656e646564207965740000000000000000000000604482015290519081900360640190fd5b6111e1611a58565b9092509050600b821415611350576003805460ff1916811790819055600854604080517f70a08231000000000000000000000000000000000000000000000000000000008152600160a060020a03928316600482018190529151610100909404909216926379cc67909284916370a08231916024808201926020929091908290030181600087803b15801561127557600080fd5b505af1158015611289573d6000803e3d6000fd5b505050506040513d602081101561129f57600080fd5b50516040805160e060020a63ffffffff8616028152600160a060020a039093166004840152602483019190915251604480830192600092919082900301818387803b1580156112ed57600080fd5b505af1158015611301573d6000803e3d6000fd5b5050601c5460408051600160a060020a0390921682526020820185905280517fb9885d42fd4d4769e749e836b85ee71ffb1974549f7360f729b75ca377736c14945091829003019150a1611397565b601f805460010190819055600c906008811061136857fe5b0154601c805473ffffffffffffffffffffffffffffffffffffffff1916600160a060020a039092169190911790555b5050565b60265460009060041461141e576040805160e560020a62461bcd02815260206004820152602a60248201527f466972737420506f6c6c73206861766520616c7265616479206e6f742062656560448201527f6e206465706c6f79656400000000000000000000000000000000000000000000606482015290519081900360840190fd5b5060045b60088160ff16101561143f57611437816125d4565b600101611422565b50565b62278d0081565b60205481565b60006003805460ff169081111561146257fe5b148061147e575060026003805460ff169081111561147c57fe5b145b15156114d4576040805160e560020a62461bcd02815260206004820152601b60248201527f4e6f7420616363657074696e6720636f6e747269627574696f6e730000000000604482015290519081900360640190fd5b6114e0600a5434612851565b600a55565b600a5481565b601c54600160a060020a031681565b600c816008811061150757fe5b0154600160a060020a0316905081565b61151f6116a4565b151561152a57600080fd5b60008054604051600160a060020a03909116907f8be0079c531659141344cd1fd0a4f28419497f9722a3daafe3b4186f6b6457e0908390a36000805473ffffffffffffffffffffffffffffffffffffffff19169055565b60215481565b601554600160a060020a031681565b600554600160a060020a031633146115f8576040805160e560020a62461bcd02815260206004820152601560248201527f4e6f742063726f776473616c6520616464726573730000000000000000000000604482015290519081900360640190fd5b61160630318201600a612c99565b600754111561165f576040805160e560020a62461bcd02815260206004820152601560248201527f43616e277420776974686472617720616d6f756e740000000000000000000000604482015290519081900360640190fd5b506003805460ff19166002908117909155600754602455426009556001549055565b6003546101009004600160a060020a031681565b600054600160a060020a031690565b600054600160a060020a0316331490565b6116bd6116a4565b15156116c857600080fd5b600554600160a060020a0316156116de57600080fd5b6005805473ffffffffffffffffffffffffffffffffffffffff1916600160a060020a0392909216919091179055565b6016816002811061171a57fe5b6003020180546001820154600290920154600160a060020a03909116925083565b60265481565b60025481565b600854600160a060020a031681565b60265460081490565b6016805460198054600a93849360009384939091600160a060020a039081169116848061178a611a58565b9092509050600a821415611a25576118a684600160a060020a03166379cc935160006040518263ffffffff1660e060020a02815260040180828152602001915050602060405180830381600087803b1580156117e557600080fd5b505af11580156117f9573d6000803e3d6000fd5b505050506040513d602081101561180f57600080fd5b5051600354604080517fdd06bfba0000000000000000000000000000000000000000000000000000000081529051610100909204600160a060020a03169163dd06bfba916004808201926020929091908290030181600087803b15801561187557600080fd5b505af1158015611889573d6000803e3d6000fd5b505050506040513d602081101561189f57600080fd5b5051612c99565b97506022548811158015611920575083600160a060020a031663acd82ac96040518163ffffffff1660e060020a028152600401602060405180830381600087803b1580156118f357600080fd5b505af1158015611907573d6000803e3d6000fd5b505050506040513d602081101561191d57600080fd5b50515b801561193557508560020154622b8180014211155b1561193f57600b99505b61198c83600160a060020a03166379cc935160006040518263ffffffff1660e060020a02815260040180828152602001915050602060405180830381600087803b1580156117e557600080fd5b96506022548711158015611a06575082600160a060020a031663acd82ac96040518163ffffffff1660e060020a028152600401602060405180830381600087803b1580156119d957600080fd5b505af11580156119ed573d6000803e3d6000fd5b505050506040513d6020811015611a0357600080fd5b50515b8015611a1b57508460020154622b8180014211155b15611a2557600b98505b50505050505090919293565b600160a060020a03166000908152601e602052604090205460ff1690565b60035460ff1681565b601c54604080517f79cc9351000000000000000000000000000000000000000000000000000000008152600060048201819052915191928392611ac792600160a060020a03909216916379cc935191602480830192602092919082900301818887803b1580156117e557600080fd5b90506020548110158015611b8d5750611af5611ae66005600a5461281c565b68056bc75e2d63100000612c99565b601c54604080517fe92e5c340000000000000000000000000000000000000000000000000000000081526000600482018190529151600160a060020a039093169263e92e5c3492602480840193602093929083900390910190829087803b158015611b5f57600080fd5b505af1158015611b73573d6000803e3d6000fd5b505050506040513d6020811015611b8957600080fd5b5051115b15611b9b57600b9150611ba0565b600a91505b9091565b60225481565b600454600160a060020a031681565b601d54600160a060020a031681565b60145481565b60245481565b60255481565b6000806000806000611bea6116a4565b1515611bf557600080fd5b60026003805460ff1690811115611c0857fe5b14611c5d576040805160e560020a62461bcd02815260206004820152601460248201527f4e6f7420476f7665726e616e6365207068617365000000000000000000000000604482015290519081900360640190fd5b601680546000965090945060199350600160a060020a031615801590611c8b57508360020154622b81800142115b15611cb357835473ffffffffffffffffffffffffffffffffffffffff19168455600060018501555b8254600160a060020a031615801590611cd457508260020154622b81800142115b15611cfc57825473ffffffffffffffffffffffffffffffffffffffff19168355600060018401555b8354600160a060020a031615611d71578254600160a060020a031615611d6c576040805160e560020a62461bcd02815260206004820152601d60248201527f4d6178203220706f6c6c7320616c6c6f77656420617420612074696d65000000604482015290519081900360640190fd5b600194505b611d7d3031600a612c99565b861115611dd4576040805160e560020a62461bcd02815260206004820152601f60248201527f43616e2774207769746864726177203e20313025206f662062616c616e636500604482015290519081900360640190fd5b60168560028110611de157fe5b6004805460155460038054602354604080517fc6624c44000000000000000000000000000000000000000000000000000000008152600160a060020a03958616978101979097526101009092048416604487015260648601524260010160e486015262278d00610104860152610120602486015260026101248601527f4e6f000000000000000000000000000000000000000000000000000000000000610144860152610160608486015260056101648601527f5661756c740000000000000000000000000000000000000000000000000000006101848601526101a060a486015260186101a48601527f457863657074696f6e616c2046756e64205265717565737400000000000000006101c48601526101e060c4860152601f6101e48601527f546f6b656e2050726f706f7274696f6e616c2043617070656420426f756e6400610204860152519402949094019550929092169163c6624c44916102248083019260209291908290030181600087803b158015611f5f57600080fd5b505af1158015611f73573d6000803e3d6000fd5b505050506040513d6020811015611f8957600080fd5b5051600160a060020a0381166000818152601e6020908152604091829020805460ff19166001908117909155865473ffffffffffffffffffffffffffffffffffffffff19168417875586018a9055426002870155815192835290519293507fe29eecd5729f80f0b1ece9da96d9a6db7bd784000612935b13f618e3477f467192918290030190a1505050505050565b60015481565b60008060008060008060006120316116a4565b151561203c57600080fd5b60026003805460ff169081111561204f57fe5b146120a4576040805160e560020a62461bcd02815260206004820152601460248201527f4e6f7420476f7665726e616e6365207068617365000000000000000000000000604482015290519081900360640190fd5b600096506120b061175f565b929850909650945092506016915060199050600b86141561214d576001820154825460408051928352600160a060020a039091166020830152818101869052517f7ef05d96031d1d74467591113ab94e81bfb8d261e7c851c93341bb51b4c7fa8c9181900360600190a1612128878360010154612851565b825473ffffffffffffffffffffffffffffffffffffffff191683556000600184015596505b84600b14156121d8576001810154815460408051928352600160a060020a039091166020830152818101859052517f7ef05d96031d1d74467591113ab94e81bfb8d261e7c851c93341bb51b4c7fa8c9181900360600190a16121b3878260010154612851565b815473ffffffffffffffffffffffffffffffffffffffff191682556000600183015596505b6000871180156121e9575030318711155b151561223f576040805160e560020a62461bcd02815260206004820152601660248201527f4e6f20576974686472617761626c6520616d6f756e7400000000000000000000604482015290519081900360640190fd5b600654604051600160a060020a039091169088156108fc029089906000818181858888f19350505050158015612279573d6000803e3d6000fd5b5050505050505050565b601e6020526000908152604090205460ff1681565b60008060006122a56116a4565b15156122b057600080fd5b60026003805460ff16908111156122c357fe5b14612318576040805160e560020a62461bcd02815260206004820152601460248201527f4e6f7420476f7665726e616e6365207068617365000000000000000000000000604482015290519081900360640190fd5b6123206124a0565b9093509150600b831461237d576040805160e560020a62461bcd02815260206004820152601660248201527f43616e277420696e63726561736520746170206e6f7700000000000000000000604482015290519081900360640190fd5b612392602454610a3f610a37426009546127fe565b60245542600955600b546002546123b3916123ac9161281c565b6064612c99565b60025550601d54604080517f8d99b2eb0000000000000000000000000000000000000000000000000000000081529051600160a060020a03909216918291638d99b2eb91600480830192600092919082900301818387803b15801561241757600080fd5b505af115801561242b573d6000803e3d6000fd5b5050600254601d5460408051928352600160a060020a039091166020830152818101869052517fb9c9461056d162167f85c1af2bc8a2cfaee0ca84baebc9249579a1524ac68cdc9350908190036060019150a15050601d805473ffffffffffffffffffffffffffffffffffffffff1916905550565b601d546000908190819081908190600160a060020a0316151561250d576040805160e560020a62461bcd02815260206004820152601660248201527f4e6f2074617020706f6c6c206578697374732079657400000000000000000000604482015290519081900360640190fd5b601d60009054906101000a9004600160a060020a0316925061257283600160a060020a03166379cc935160006040518263ffffffff1660e060020a02815260040180828152602001915050602060405180830381600087803b1580156117e557600080fd5b935061257c611a58565b60215491935091508410801590612593575081600a145b156125a157600b94506125a6565b600a94505b5050509091565b6125b56116a4565b15156125c057600080fd5b61143f81612cbc565b600b5481565b600181565b6014546004805460155460038054602354604080517fc6624c44000000000000000000000000000000000000000000000000000000008152600160a060020a039586168189015261010090930485166044840152606483019190915260ff88166276a7000262ffffff1690960160e482018190526275558061010483015261012060248301526101248201929092527f5965730000000000000000000000000000000000000000000000000000000000610144820152610160608482015260056101648201527f5661756c740000000000000000000000000000000000000000000000000000006101848201526101a060a48201526101a48101949094527f4b696c6c000000000000000000000000000000000000000000000000000000006101c48501526101e060c4850152601f6101e48501527f546f6b656e2050726f706f7274696f6e616c2043617070656420426f756e64006102048501529351600093919092169163c6624c44916102248082019260209290919082900301818787803b15801561276257600080fd5b505af1158015612776573d6000803e3d6000fd5b505050506040513d602081101561278c57600080fd5b5051600160a060020a0381166000908152601e60205260409020805460ff19166001179055905080600c60ff8516600881106127c457fe5b01805473ffffffffffffffffffffffffffffffffffffffff1916600160a060020a0392909216919091179055505060268054600101905550565b6000808383111561280e57600080fd5b5050808203805b5092915050565b60008083151561282f5760009150612815565b5082820282848281151561283f57fe5b041461284a57600080fd5b9392505050565b60008282018381101561284a57600080fd5b600354604080517f70a08231000000000000000000000000000000000000000000000000000000008152600160a060020a0384811660048301529151600093849361010090910416916370a0823191602480830192602092919082900301818787803b1580156128d257600080fd5b505af11580156128e6573d6000803e3d6000fd5b505050506040513d60208110156128fc57600080fd5b5051915060008211612958576040805160e560020a62461bcd02815260206004820152601260248201527f5a65726f20746f6b656e2062616c616e63650000000000000000000000000000604482015290519081900360640190fd5b6129b961296683303161281c565b600360019054906101000a9004600160a060020a0316600160a060020a03166318160ddd6040518163ffffffff1660e060020a028152600401602060405180830381600087803b15801561187557600080fd5b905060008111612a13576040805160e560020a62461bcd02815260206004820152601a60248201527f4e6f20726566756e6420616d6f756e7420617661696c61626c65000000000000604482015290519081900360640190fd5b600354604080517f79cc6790000000000000000000000000000000000000000000000000000000008152600160a060020a038681166004830152602482018690529151610100909304909116916379cc67909160448082019260009290919082900301818387803b158015612a8757600080fd5b505af1158015612a9b573d6000803e3d6000fd5b5050604051600160a060020a038616925083156108fc02915083906000818181858888f19350505050158015612ad5573d6000803e3d6000fd5b5060408051600160a060020a03851681526020810183905280820184905290517f63a4172b341b44e1533e056a4b5767ba351c23aebc251f13f6580375cdc3e39c9181900360600190a1505050565b60016003805460ff1690811115612b3757fe5b14612b8c576040805160e560020a62461bcd02815260206004820152601a60248201527f4e6f742063726f776473616c6520726566756e64207068617365000000000000604482015290519081900360640190fd5b600354600854604080517f70a08231000000000000000000000000000000000000000000000000000000008152600160a060020a03928316600482018190529151610100909404909216926379cc67909284916370a08231916024808201926020929091908290030181600087803b158015612c0757600080fd5b505af1158015612c1b573d6000803e3d6000fd5b505050506040513d6020811015612c3157600080fd5b50516040805160e060020a63ffffffff8616028152600160a060020a039093166004840152602483019190915251604480830192600092919082900301818387803b158015612c7f57600080fd5b505af1158015612c93573d6000803e3d6000fd5b50505050565b600080808311612ca857600080fd5b8284811515612cb357fe5b04949350505050565b600160a060020a0381161515612cd157600080fd5b60008054604051600160a060020a03808516939216917f8be0079c531659141344cd1fd0a4f28419497f9722a3daafe3b4186f6b6457e091a36000805473ffffffffffffffffffffffffffffffffffffffff1916600160a060020a03929092169190911790555600a165627a7a72305820f34ae6b30c26efe752b4a44f2fb0bc870cc13839fafc0952c6fc569080ed54f50029",
  "source": "pragma solidity ^0.4.25;\r\n\r\nimport \"./Treasury.sol\";\r\nimport \"./Poll/UnBoundPoll.sol\";\r\n\r\n\r\ncontract PollFactory is Treasury {\r\n\r\n    struct XfrData {\r\n        address xfrPollAddress;\r\n        uint amountRequested;\r\n        uint startDate;\r\n    }\r\n\r\n    uint public constant KILL_POLL_DURATION = 89 days; //seconds (89 days)\r\n    uint public constant XFR_POLL_DURATION = 30 days; //seconds (30 days)\r\n    \r\n    address[8] public killPollAddresses;\r\n    uint public killPollStartDate;\r\n    address public vaultMembershipAddress;\r\n    XfrData[2] public xfrPollData;\r\n    UnBoundPoll public currentKillPoll;\r\n    address public tapPoll;\r\n    mapping(address => bool) public pollAddresses;\r\n\r\n    uint public currentKillPollIndex;\r\n    uint public killAcceptancePercent;\r\n    uint public tapAcceptancePercent;\r\n    uint public xfrRejectionPercent;\r\n    uint public capPercent;\r\n    uint public splineHeightAtPivot;\r\n    uint public withdrawnTillNow;\r\n    uint public killPollsDeployed;\r\n\r\n    event RefundStarted(address contractAddress, uint consensus);\r\n    event Withdraw(uint amountWei);\r\n    event XfrWithdraw(uint amountWei, address contractAddress, uint consensus);\r\n    event TapIncreased(uint amountWei, address contractAddress, uint consensus);\r\n    event XfrPollCreated(address xfrAddress);\r\n    event TapPollCreated(address tapPollAddress);\r\n\r\n    constructor(address _erc20Token, address _teamAddress, uint _initalFundRelease, uint _initialTap,\r\n    uint _killPollStartDate, address _vaultMembershipAddress, uint _capPercent, uint _killAcceptancePercent,\r\n    uint _xfrRejectionPercent, uint _tapAcceptancePercent, address _lockedTokenAddress, uint _tapIncrementFactor,\r\n    address _pollDeployer) \r\n        public Treasury(_erc20Token, _teamAddress, _initalFundRelease, _lockedTokenAddress, _initialTap, \r\n        _tapIncrementFactor, _pollDeployer) {\r\n            //check for cap maybe\r\n            // cap is 10^2 multiplied to actual percentage - already in poll\r\n            require(_killAcceptancePercent <= 80, \"Kill Acceptance should be less than 80 %\");\r\n            require(_xfrRejectionPercent <= 50, \"At least 50% must accept xfr\");\r\n            require(_tapAcceptancePercent >= 50, \"At least 50% must accept tap increment\");\r\n            capPercent = _capPercent;\r\n            killAcceptancePercent = _killAcceptancePercent;\r\n            xfrRejectionPercent = _xfrRejectionPercent;\r\n            tapAcceptancePercent = _tapAcceptancePercent;\r\n            vaultMembershipAddress = _vaultMembershipAddress;\r\n            killPollStartDate = _killPollStartDate;\r\n            tapIncrementFactor = _tapIncrementFactor;\r\n        }\r\n\r\n    function createKillPolls() external {\r\n        require(killPollsDeployed == 0, \"Polls have already been deployed\");\r\n        for (uint8 index = 0; index < 4; index++) {\r\n            createKillPoll(index);\r\n        }\r\n        currentKillPoll = UnBoundPoll(killPollAddresses[0]);\r\n        currentKillPollIndex = 0;\r\n    }\r\n\r\n    function createRemainingKillPolls() external {\r\n        require(killPollsDeployed == 4, \"First Polls have already not been deployed\");\r\n        for (uint8 index = 4; index < 8; index++) {\r\n            createKillPoll(index);\r\n        }\r\n    }\r\n\r\n    function executeKill() external {\r\n        require(currentKillPoll.hasPollEnded(), \"Poll hasn't ended yet\");\r\n        uint code;\r\n        uint consensus;\r\n        (code, consensus) = canKill();\r\n        if (code == 11) {\r\n            state = TreasuryState.Killed;\r\n            erc20Token.burnFrom(lockedTokenAddress, erc20Token.balanceOf(lockedTokenAddress));\r\n            emit RefundStarted(address(currentKillPoll), consensus);\r\n        } else {\r\n            currentKillPollIndex += 1;\r\n            currentKillPoll = UnBoundPoll(killPollAddresses[currentKillPollIndex]);\r\n        }\r\n    }\r\n\r\n    function createTapIncrementPoll() external onlyOwner onlyDuringGovernance {        \r\n        require(tapPoll == 0, \"Tap Increment poll already exists\");\r\n        tapPoll = pollDeployer.deployUnBoundPoll(vaultMembershipAddress, \"yes\", erc20Token, capPercent,\r\n        \"Vault\", \"Tap Increment Poll\", \"Token Proportional Capped\", now + 1, 0, address(this));\r\n        pollAddresses[tapPoll] = true;\r\n        emit TapPollCreated(tapPoll);\r\n    }\r\n\r\n    function increaseTap() external onlyOwner onlyDuringGovernance {\r\n        uint code;\r\n        uint consensus;\r\n        (code, consensus) = canIncreaseTap();\r\n        require(code == 11, \"Can't increase tap now\");\r\n        splineHeightAtPivot = SafeMath.add(splineHeightAtPivot, SafeMath.mul(SafeMath.sub(now, \r\n            pivotTime), currentTap));\r\n        pivotTime = now;\r\n        currentTap = SafeMath.div(SafeMath.mul(tapIncrementFactor, currentTap), 100);\r\n        UnBoundPoll instance = UnBoundPoll(tapPoll);\r\n        instance.endPoll();\r\n        emit TapIncreased(currentTap, tapPoll, consensus);\r\n        tapPoll = address(0);\r\n    }\r\n\r\n    function createXfr(uint _amountToWithdraw) external onlyOwner \r\n        onlyDuringGovernance {\r\n        uint _pollNumber = 0;\r\n        XfrData storage pollData0 = xfrPollData[0];\r\n        XfrData storage pollData1 = xfrPollData[1];\r\n        if (pollData0.xfrPollAddress != address(0) && now > (pollData0.startDate + 33 days)) {\r\n            pollData0.xfrPollAddress = address(0);\r\n            pollData0.amountRequested = 0;\r\n        }\r\n        if (pollData1.xfrPollAddress != address(0) && now > (pollData1.startDate + 33 days)) {\r\n            pollData1.xfrPollAddress = address(0);\r\n            pollData1.amountRequested = 0;\r\n        }        \r\n        if (pollData0.xfrPollAddress != address(0)) {\r\n            require(pollData1.xfrPollAddress == address(0), \"Max 2 polls allowed at a time\");\r\n            _pollNumber = 1;\r\n        }\r\n        require(_amountToWithdraw <= SafeMath.div(address(this).balance, 10), \"Can't withdraw > 10% of balance\");\r\n        XfrData storage pollData = xfrPollData[_pollNumber];\r\n        address xfrPoll = pollDeployer.deployBoundPoll(vaultMembershipAddress, \"No\", erc20Token, capPercent, \"Vault\", \r\n        \"Exceptional Fund Request\", \"Token Proportional Capped Bound\", now + 1, XFR_POLL_DURATION);\r\n        \r\n        pollAddresses[xfrPoll] = true;\r\n        pollData.xfrPollAddress = xfrPoll;\r\n        pollData.amountRequested = _amountToWithdraw;\r\n        pollData.startDate = now;\r\n        emit XfrPollCreated(xfrPoll);\r\n    }\r\n\r\n    function withdrawXfrAmount() external onlyOwner onlyDuringGovernance {\r\n        uint withdrawlAmount = 0;\r\n        uint code1; \r\n        uint code2; \r\n        uint consensus1; \r\n        uint consensus2;\r\n        (code1, code2, consensus1, consensus2) = canWithdrawXfr();\r\n        XfrData storage pollData1 = xfrPollData[0];\r\n        XfrData storage pollData2 = xfrPollData[1];\r\n        if (code1 == 11) {\r\n            emit XfrWithdraw(pollData1.amountRequested, pollData1.xfrPollAddress, consensus1);\r\n            withdrawlAmount = SafeMath.add(withdrawlAmount, pollData1.amountRequested);  \r\n            pollData1.xfrPollAddress = address(0);\r\n            pollData1.amountRequested = 0;\r\n        } \r\n        if (code2 == 11) {\r\n            emit XfrWithdraw(pollData2.amountRequested, pollData2.xfrPollAddress, consensus2);\r\n            withdrawlAmount = SafeMath.add(withdrawlAmount, pollData2.amountRequested);  \r\n            pollData2.xfrPollAddress = address(0);\r\n            pollData2.amountRequested = 0;                    \r\n        }\r\n        require(withdrawlAmount > 0 && withdrawlAmount <= address(this).balance, \"No Withdrawable amount\");\r\n        teamAddress.transfer(withdrawlAmount);\r\n    }\r\n\r\n    function onCrowdSaleR1End(uint _amount) external onlyCrowdSale {\r\n        require(initalFundRelease <= SafeMath.div((address(this).balance + _amount), 10), \"Can't withdraw amount\");\r\n        state = TreasuryState.Governance;\r\n        splineHeightAtPivot = initalFundRelease;\r\n        pivotTime = now;\r\n        currentTap = initialTap;\r\n    }\r\n\r\n    function withdrawAmount(uint _amount) external onlyOwner onlyDuringGovernance {\r\n        uint code;\r\n        uint consensus;\r\n        (code, consensus) = canKill();\r\n        require(code == 10, \"cannot withdraw now\");\r\n        require(_amount < address(this).balance, \"Insufficient funds\");\r\n        splineHeightAtPivot = SafeMath.add(splineHeightAtPivot, SafeMath.mul(SafeMath.sub(now, \r\n                pivotTime), currentTap));\r\n        require(_amount <= splineHeightAtPivot - withdrawnTillNow, \"Not allowed\");\r\n        pivotTime = now;\r\n        withdrawnTillNow += _amount;    \r\n        teamAddress.transfer(_amount);\r\n        emit Withdraw(_amount);\r\n    }\r\n\r\n    function kill() external onlyOwner {\r\n        address admin = owner();\r\n        selfdestruct(admin);\r\n    }\r\n\r\n    function isPollAddress(address _address) external view returns (bool) {\r\n        return pollAddresses[_address];\r\n    }\r\n\r\n    function isKillPollDeployed() external view returns (bool) {\r\n        return killPollsDeployed == killPollAddresses.length;\r\n    }\r\n\r\n    function getKillPollStartDate() external view returns (uint) {\r\n        return killPollStartDate;\r\n    }\r\n\r\n    function canIncreaseTap() public view returns (uint code, uint consensus) {\r\n        require(tapPoll != address(0), \"No tap poll exists yet\");\r\n        UnBoundPoll instance = UnBoundPoll(tapPoll);\r\n        consensus = SafeMath.div(instance.getVoteTally(0), erc20Token.getTokensUnderGovernance());\r\n        uint codeKill;\r\n        uint consensusKill;\r\n        (codeKill, consensusKill) = canKill();\r\n        if (consensus >= tapAcceptancePercent && codeKill == 10)\r\n            code = 11;\r\n        else \r\n            code = 10;\r\n    }\r\n\r\n    function canWithdrawXfr() public view returns (uint code1, uint code2, uint consensus1, uint consensus2) {\r\n        XfrData storage pollData = xfrPollData[0];\r\n        XfrData storage pollData1 = xfrPollData[1];        \r\n        UnBoundPoll xfrPoll1 = UnBoundPoll(pollData.xfrPollAddress);\r\n        UnBoundPoll xfrPoll2 = UnBoundPoll(pollData1.xfrPollAddress);\r\n        code1 = 10;\r\n        code2 = 10;\r\n        uint code;\r\n        uint consensus;\r\n        (code, consensus) = canKill();\r\n        if (code == 10) {\r\n            consensus1 = SafeMath.div(xfrPoll1.getVoteTally(0), erc20Token.getTokensUnderGovernance());\r\n            if (consensus1 <= \r\n            xfrRejectionPercent && xfrPoll1.hasPollEnded() && now <= (pollData.startDate + 33 days)) {\r\n                code1 = 11;    \r\n            }\r\n            consensus2 = SafeMath.div(xfrPoll2.getVoteTally(0), erc20Token.getTokensUnderGovernance());\r\n            if (consensus2 <= \r\n            xfrRejectionPercent && xfrPoll2.hasPollEnded() && now <= (pollData1.startDate + 33 days)) {\r\n                code2 = 11;\r\n            }\r\n        }\r\n    }\r\n\r\n    function canKill() public view returns (uint code, uint consensus) {\r\n        consensus = SafeMath.div(currentKillPoll.getVoteTally(0), erc20Token.getTokensUnderGovernance());\r\n        if (consensus >= killAcceptancePercent && \r\n        (currentKillPoll.getVoterCount(0) > SafeMath.div(SafeMath.mul(5, totalEtherRaised), 100000000000000000000)))\r\n            code = 11;\r\n        else \r\n            code = 10;\r\n    }\r\n\r\n    function createKillPoll(uint8 index) internal {\r\n        uint startDate = killPollStartDate + index * (90 days);\r\n        address killPoll = pollDeployer.deployBoundPoll(vaultMembershipAddress, \"Yes\", erc20Token, capPercent, \r\n        \"Vault\", \"Kill\", \"Token Proportional Capped Bound\", startDate, KILL_POLL_DURATION);\r\n        pollAddresses[killPoll] = true;\r\n        killPollAddresses[index] = killPoll;\r\n        killPollsDeployed += 1;\r\n    }\r\n}",
  "sourcePath": "C:/Users/Naina/source/repos/vault-sc/contracts/PollFactory.sol",
  "compiler": {
    "name": "solc",
    "version": "0.4.25+commit.59dbf8f1.Emscripten.clang"
  },
  "schemaVersion": "3.0.0-beta.0",
  "updatedAt": "2018-12-12T11:18:12.459Z"
}