{
  "contractName": "Protocol",
  "abi": [
    {
      "constant": false,
      "inputs": [
        {
          "name": "_name",
          "type": "bytes32"
        },
        {
          "name": "values",
          "type": "bytes32[]"
        }
      ],
      "name": "addAttributeSet",
      "outputs": [],
      "payable": false,
      "stateMutability": "nonpayable",
      "type": "function"
    },
    {
      "constant": true,
      "inputs": [
        {
          "name": "interfaceId",
          "type": "bytes4"
        }
      ],
      "name": "supportsInterface",
      "outputs": [
        {
          "name": "",
          "type": "bool"
        }
      ],
      "payable": false,
      "stateMutability": "view",
      "type": "function"
    },
    {
      "constant": true,
      "inputs": [
        {
          "name": "_to",
          "type": "address"
        },
        {
          "name": "_attributeIndex",
          "type": "uint256"
        }
      ],
      "name": "getAttributeByIndex",
      "outputs": [
        {
          "name": "",
          "type": "uint256"
        }
      ],
      "payable": false,
      "stateMutability": "view",
      "type": "function"
    },
    {
      "constant": false,
      "inputs": [
        {
          "name": "_user",
          "type": "address"
        }
      ],
      "name": "approveRequest",
      "outputs": [],
      "payable": false,
      "stateMutability": "nonpayable",
      "type": "function"
    },
    {
      "constant": true,
      "inputs": [],
      "name": "name",
      "outputs": [
        {
          "name": "",
          "type": "bytes32"
        }
      ],
      "payable": false,
      "stateMutability": "view",
      "type": "function"
    },
    {
      "constant": true,
      "inputs": [
        {
          "name": "",
          "type": "uint256"
        }
      ],
      "name": "attributeNames",
      "outputs": [
        {
          "name": "",
          "type": "bytes32"
        }
      ],
      "payable": false,
      "stateMutability": "view",
      "type": "function"
    },
    {
      "constant": true,
      "inputs": [
        {
          "name": "_to",
          "type": "address"
        }
      ],
      "name": "getAttributes",
      "outputs": [
        {
          "name": "",
          "type": "uint256[]"
        }
      ],
      "payable": false,
      "stateMutability": "view",
      "type": "function"
    },
    {
      "constant": true,
      "inputs": [
        {
          "name": "",
          "type": "uint256"
        }
      ],
      "name": "allHolders",
      "outputs": [
        {
          "name": "",
          "type": "address"
        }
      ],
      "payable": false,
      "stateMutability": "view",
      "type": "function"
    },
    {
      "constant": true,
      "inputs": [],
      "name": "getAttributeNames",
      "outputs": [
        {
          "name": "",
          "type": "bytes32[]"
        }
      ],
      "payable": false,
      "stateMutability": "view",
      "type": "function"
    },
    {
      "constant": false,
      "inputs": [
        {
          "name": "_user",
          "type": "address"
        }
      ],
      "name": "discardRequest",
      "outputs": [],
      "payable": false,
      "stateMutability": "nonpayable",
      "type": "function"
    },
    {
      "constant": false,
      "inputs": [],
      "name": "renounceOwnership",
      "outputs": [],
      "payable": false,
      "stateMutability": "nonpayable",
      "type": "function"
    },
    {
      "constant": false,
      "inputs": [
        {
          "name": "_to",
          "type": "address"
        },
        {
          "name": "_attributeIndex",
          "type": "uint256"
        },
        {
          "name": "_modifiedValueIndex",
          "type": "uint256"
        }
      ],
      "name": "modifyAttributeByIndex",
      "outputs": [],
      "payable": false,
      "stateMutability": "nonpayable",
      "type": "function"
    },
    {
      "constant": true,
      "inputs": [],
      "name": "getAllMembers",
      "outputs": [
        {
          "name": "",
          "type": "address[]"
        }
      ],
      "payable": false,
      "stateMutability": "view",
      "type": "function"
    },
    {
      "constant": true,
      "inputs": [
        {
          "name": "",
          "type": "uint256"
        },
        {
          "name": "",
          "type": "uint256"
        }
      ],
      "name": "attributeValueCollection",
      "outputs": [
        {
          "name": "",
          "type": "bytes32"
        }
      ],
      "payable": false,
      "stateMutability": "view",
      "type": "function"
    },
    {
      "constant": true,
      "inputs": [],
      "name": "owner",
      "outputs": [
        {
          "name": "",
          "type": "address"
        }
      ],
      "payable": false,
      "stateMutability": "view",
      "type": "function"
    },
    {
      "constant": true,
      "inputs": [],
      "name": "isOwner",
      "outputs": [
        {
          "name": "",
          "type": "bool"
        }
      ],
      "payable": false,
      "stateMutability": "view",
      "type": "function"
    },
    {
      "constant": true,
      "inputs": [],
      "name": "symbol",
      "outputs": [
        {
          "name": "",
          "type": "bytes32"
        }
      ],
      "payable": false,
      "stateMutability": "view",
      "type": "function"
    },
    {
      "constant": true,
      "inputs": [
        {
          "name": "",
          "type": "address"
        }
      ],
      "name": "currentHolders",
      "outputs": [
        {
          "name": "hasToken",
          "type": "bool"
        }
      ],
      "payable": false,
      "stateMutability": "view",
      "type": "function"
    },
    {
      "constant": false,
      "inputs": [],
      "name": "forfeitMembership",
      "outputs": [],
      "payable": true,
      "stateMutability": "payable",
      "type": "function"
    },
    {
      "constant": true,
      "inputs": [
        {
          "name": "_to",
          "type": "address"
        }
      ],
      "name": "isCurrentMember",
      "outputs": [
        {
          "name": "",
          "type": "bool"
        }
      ],
      "payable": false,
      "stateMutability": "view",
      "type": "function"
    },
    {
      "constant": true,
      "inputs": [],
      "name": "currentMemberCount",
      "outputs": [
        {
          "name": "",
          "type": "uint256"
        }
      ],
      "payable": false,
      "stateMutability": "view",
      "type": "function"
    },
    {
      "constant": false,
      "inputs": [
        {
          "name": "_from",
          "type": "address"
        }
      ],
      "name": "revokeFrom",
      "outputs": [],
      "payable": false,
      "stateMutability": "nonpayable",
      "type": "function"
    },
    {
      "constant": true,
      "inputs": [],
      "name": "getCurrentMemberCount",
      "outputs": [
        {
          "name": "",
          "type": "uint256"
        }
      ],
      "payable": false,
      "stateMutability": "view",
      "type": "function"
    },
    {
      "constant": true,
      "inputs": [
        {
          "name": "_index",
          "type": "uint256"
        }
      ],
      "name": "getAttributeExhaustiveCollection",
      "outputs": [
        {
          "name": "",
          "type": "bytes32[]"
        }
      ],
      "payable": false,
      "stateMutability": "view",
      "type": "function"
    },
    {
      "constant": false,
      "inputs": [
        {
          "name": "newOwner",
          "type": "address"
        }
      ],
      "name": "transferOwnership",
      "outputs": [],
      "payable": false,
      "stateMutability": "nonpayable",
      "type": "function"
    },
    {
      "constant": true,
      "inputs": [
        {
          "name": "",
          "type": "address"
        }
      ],
      "name": "pendingRequests",
      "outputs": [
        {
          "name": "isPending",
          "type": "bool"
        }
      ],
      "payable": false,
      "stateMutability": "view",
      "type": "function"
    },
    {
      "constant": true,
      "inputs": [],
      "name": "vault",
      "outputs": [
        {
          "name": "",
          "type": "address"
        }
      ],
      "payable": false,
      "stateMutability": "view",
      "type": "function"
    },
    {
      "inputs": [
        {
          "name": "_orgName",
          "type": "bytes32"
        },
        {
          "name": "_orgSymbol",
          "type": "bytes32"
        },
        {
          "name": "vaultAddress",
          "type": "address"
        }
      ],
      "payable": false,
      "stateMutability": "nonpayable",
      "type": "constructor"
    },
    {
      "anonymous": false,
      "inputs": [
        {
          "indexed": true,
          "name": "_to",
          "type": "address"
        },
        {
          "indexed": false,
          "name": "attributeIndexes",
          "type": "uint256[]"
        }
      ],
      "name": "ApprovedMembership",
      "type": "event"
    },
    {
      "anonymous": false,
      "inputs": [
        {
          "indexed": true,
          "name": "_to",
          "type": "address"
        }
      ],
      "name": "RequestedMembership",
      "type": "event"
    },
    {
      "anonymous": false,
      "inputs": [
        {
          "indexed": true,
          "name": "_to",
          "type": "address"
        },
        {
          "indexed": false,
          "name": "attributeIndexes",
          "type": "uint256[]"
        }
      ],
      "name": "Assigned",
      "type": "event"
    },
    {
      "anonymous": false,
      "inputs": [
        {
          "indexed": true,
          "name": "_to",
          "type": "address"
        }
      ],
      "name": "Revoked",
      "type": "event"
    },
    {
      "anonymous": false,
      "inputs": [
        {
          "indexed": true,
          "name": "_to",
          "type": "address"
        }
      ],
      "name": "Forfeited",
      "type": "event"
    },
    {
      "anonymous": false,
      "inputs": [
        {
          "indexed": true,
          "name": "_to",
          "type": "address"
        },
        {
          "indexed": false,
          "name": "attributeIndex",
          "type": "uint256"
        },
        {
          "indexed": false,
          "name": "prevValueIndex",
          "type": "uint256"
        },
        {
          "indexed": false,
          "name": "prevValue",
          "type": "bytes32"
        },
        {
          "indexed": false,
          "name": "modifiedValueIndex",
          "type": "uint256"
        },
        {
          "indexed": false,
          "name": "modifiedValue",
          "type": "bytes32"
        }
      ],
      "name": "ModifiedAttributes",
      "type": "event"
    },
    {
      "anonymous": false,
      "inputs": [
        {
          "indexed": true,
          "name": "previousOwner",
          "type": "address"
        },
        {
          "indexed": true,
          "name": "newOwner",
          "type": "address"
        }
      ],
      "name": "OwnershipTransferred",
      "type": "event"
    },
    {
      "constant": false,
      "inputs": [
        {
          "name": "_attributeIndexes",
          "type": "uint256[]"
        }
      ],
      "name": "requestMembership",
      "outputs": [],
      "payable": true,
      "stateMutability": "payable",
      "type": "function"
    },
    {
      "constant": false,
      "inputs": [
        {
          "name": "_to",
          "type": "address"
        },
        {
          "name": "_attributeIndexes",
          "type": "uint256[]"
        }
      ],
      "name": "assignTo",
      "outputs": [],
      "payable": false,
      "stateMutability": "nonpayable",
      "type": "function"
    }
  ],
  "bytecode": "0x60806040523480156200001157600080fd5b5060405160608062001a2683398101604081815282516020840151919093015160008054600160a060020a03191633178082559293919285928592600160a060020a039290921691907f8be0079c531659141344cd1fd0a4f28419497f9722a3daafe3b4186f6b6457e0908290a3620000b37f01ffc9a70000000000000000000000000000000000000000000000000000000064010000000062000181810204565b620000e77f912f7bb20000000000000000000000000000000000000000000000000000000064010000000062000181810204565b6200011b7f83adfb2d0000000000000000000000000000000000000000000000000000000064010000000062000181810204565b6200014f7f932545420000000000000000000000000000000000000000000000000000000064010000000062000181810204565b600891909155600955600a8054600160a060020a031916600160a060020a039290921691909117905550620001f19050565b7fffffffff000000000000000000000000000000000000000000000000000000008082161415620001b157600080fd5b7fffffffff00000000000000000000000000000000000000000000000000000000166000908152600160208190526040909120805460ff19169091179055565b61182580620002016000396000f3006080604052600436106101735763ffffffff7c0100000000000000000000000000000000000000000000000000000000600035041662c6abf9811461017857806301ffc9a71461019e57806304c017c9146101ec578063061dff9a1461022257806306fdde031461024357806315bc9406146102585780631800622e14610285578063446d5aa41461029d57806346fee28f1461030e5780634e6762fa146103425780636112e48f14610357578063715018a6146103785780637851c0ed1461038d5780637c0f6b35146103b45780637ec92e59146103c95780638d614e76146103dc5780638da5cb5b146103f75780638f32d59b1461040c57806395d89b41146104215780639d824a7014610436578063a324a9cf14610457578063ae6b11431461045f578063bbe0612114610480578063c89ed7aa14610495578063cb695ef4146104b6578063deaa2600146104cb578063f2fde38b146104e3578063fb22e65114610504578063fbfa77cf14610525575b600080fd5b34801561018457600080fd5b5061019c60048035906024803590810191013561053a565b005b3480156101aa57600080fd5b506101d87fffffffff00000000000000000000000000000000000000000000000000000000600435166105fd565b604080519115158252519081900360200190f35b3480156101f857600080fd5b50610210600160a060020a0360043516602435610634565b60408051918252519081900360200190f35b34801561022e57600080fd5b5061019c600160a060020a03600435166106e5565b34801561024f57600080fd5b50610210610855565b34801561026457600080fd5b5061019c60048035600160a060020a0316906024803590810191013561085c565b34801561029157600080fd5b50610210600435610a1d565b3480156102a957600080fd5b506102be600160a060020a0360043516610a3c565b60408051602080825283518183015283519192839290830191858101910280838360005b838110156102fa5781810151838201526020016102e2565b505050509050019250505060405180910390f35b34801561031a57600080fd5b50610326600435610ac0565b60408051600160a060020a039092168252519081900360200190f35b34801561034e57600080fd5b506102be610ae8565b34801561036357600080fd5b5061019c600160a060020a0360043516610b41565b34801561038457600080fd5b5061019c610be9565b34801561039957600080fd5b5061019c600160a060020a0360043516602435604435610c53565b3480156103c057600080fd5b506102be610e12565b61019c6004803560248101910135610e73565b3480156103e857600080fd5b5061021060043560243561117c565b34801561040357600080fd5b506103266111ac565b34801561041857600080fd5b506101d86111bb565b34801561042d57600080fd5b506102106111cc565b34801561044257600080fd5b506101d8600160a060020a03600435166111d2565b61019c6111e7565b34801561046b57600080fd5b506101d8600160a060020a0360043516611281565b34801561048c57600080fd5b50610210611307565b3480156104a157600080fd5b5061019c600160a060020a036004351661130d565b3480156104c257600080fd5b50610210611360565b3480156104d757600080fd5b506102be600435611366565b3480156104ef57600080fd5b5061019c600160a060020a03600435166113c8565b34801561051057600080fd5b506101d8600160a060020a03600435166113e7565b34801561053157600080fd5b506103266113fc565b60038054600181810183557fc2575a0e9e593c00f959f8c92f12db2869c3395a3b0502d05e2516446f71f85b90910185905590546000190160009081526002602090815260408220805493840181558083529082207f756e646566696e656400000000000000000000000000000000000000000000009301929092555b828110156105f657818484838181106105cc57fe5b835460018082018655600095865260209586902092909502939093013592019190915550016105b7565b5050505050565b7fffffffff000000000000000000000000000000000000000000000000000000001660009081526001602052604090205460ff1690565b600160a060020a03821660009081526004602052604081206001015482106106ab57604080516000805160206117da833981519152815260206004820152601f60248201527f6461746120646f65736e277420657869737420666f7220746865207573657200604482015290519081900360640190fd5b600160a060020a03831660009081526004602052604090206001018054839081106106d257fe5b9060005260206000200154905092915050565b60006106ef6111bb565b15156106fa57600080fd5b50600160a060020a0381166000908152600560205260409020805460ff16151561077357604080516000805160206117da833981519152815260206004820152601560248201527f4861736e27742073656e74206574686572207965740000000000000000000000604482015290519081900360640190fd5b6107cf82826001018054806020026020016040519081016040528092919081815260200182805480156107c557602002820191906000526020600020905b8154815260200190600101908083116107b1575b505050505061140b565b81600160a060020a03167f68de97d2b1697dbc8e1b0866f403f9a6b8e991df52cb175c63371b50d8a1407b826001016040518080602001828103825283818154815260200191508054801561084357602002820191906000526020600020905b81548152602001906001019080831161082f575b50509250505060405180910390a25050565b6008545b90565b6108646111bb565b151561086f57600080fd5b600a54604080517fae6b1143000000000000000000000000000000000000000000000000000000008152600160a060020a0386811660048301529151919092169163ae6b11439160248083019260209291908290030181600087803b1580156108d757600080fd5b505af11580156108eb573d6000803e3d6000fd5b505050506040513d602081101561090157600080fd5b5051151561098457604080516000805160206117da833981519152815260206004820152602e60248201527f746865205f746f2061646472657373206d75737420616c72656164792062652060448201527f61207661756c74206d656d626572000000000000000000000000000000000000606482015290519081900360840190fd5b6109bb838383808060200260200160405190810160405280939291908181526020018383602002808284375061140b945050505050565b82600160a060020a03167f4db82994b51536ac0e5c7f6220346d80decb2a185a0f443e9d1617a43bc8123c83836040518080602001828103825284848281815260200192506020028082843760405192018290039550909350505050a2505050565b6003805482908110610a2b57fe5b600091825260209091200154905081565b6060600160a060020a0382161515610a5357600080fd5b600160a060020a03821660009081526004602090815260409182902060010180548351818402810184019094528084529091830182828015610ab457602002820191906000526020600020905b815481526020019060010190808311610aa0575b50505050509050919050565b6006805482908110610ace57fe5b600091825260209091200154600160a060020a0316905081565b60606003805480602002602001604051908101604052809291908181526020018280548015610b3757602002820191906000526020600020905b81548152600190910190602001808311610b22575b5050505050905090565b6000610b4b6111bb565b1515610b5657600080fd5b50600160a060020a0381166000908152600560205260409020805460ff161515610bcf57604080516000805160206117da833981519152815260206004820152601560248201527f4861736e27742073656e74206574686572207965740000000000000000000000604482015290519081900360640190fd5b805460ff19168155610be5600182016000611703565b5050565b610bf16111bb565b1515610bfc57600080fd5b60008054604051600160a060020a03909116907f8be0079c531659141344cd1fd0a4f28419497f9722a3daafe3b4186f6b6457e0908390a36000805473ffffffffffffffffffffffffffffffffffffffff19169055565b6000806000610c606111bb565b1515610c6b57600080fd5b600160a060020a0386166000908152600460205260409020600101548510610ce257604080516000805160206117da833981519152815260206004820152601f60248201527f6461746120646f65736e277420657869737420666f7220746865207573657200604482015290519081900360640190fd5b600160a060020a0386166000908152600460205260409020600101805486908110610d0957fe5b906000526020600020015492506002600086815260200190815260200160002083815481101515610d3657fe5b90600052602060002001549150836004600088600160a060020a0316600160a060020a0316815260200190815260200160002060010186815481101515610d7957fe5b6000918252602080832090910192909255868152600290915260409020805485908110610da257fe5b6000918252602091829020015460408051888152928301869052828101859052606083018790526080830182905251909250600160a060020a038816917f6edc02249d88a118cb5982102dcdeaf2c7e6fd03e89ba030fb6c6ec00dc5a4d6919081900360a00190a2505050505050565b60606006805480602002602001604051908101604052809291908181526020018280548015610b3757602002820191906000526020600020905b8154600160a060020a03168152600190910190602001808311610e4c575050505050905090565b600080610e7f33611281565b15610ed957604080516000805160206117da833981519152815260206004820152601060248201527f416c72656164792061206d656d62657200000000000000000000000000000000604482015290519081900360640190fd5b600a54604080517fae6b11430000000000000000000000000000000000000000000000000000000081523360048201529051600160a060020a039092169163ae6b1143916024808201926020929091908290030181600087803b158015610f3f57600080fd5b505af1158015610f53573d6000803e3d6000fd5b505050506040513d6020811015610f6957600080fd5b50511515610fc657604080516000805160206117da833981519152815260206004820152601660248201527f4d7573742062652061207661756c74206d656d62657200000000000000000000604482015290519081900360640190fd5b60405133907fc0e2b0436d54094aabbe5e320d8bf0bdfb4f1510c1e404d767a91638433fe69a90600090a2600a54604080517f04c017c90000000000000000000000000000000000000000000000000000000081523360048201526000602482018190529151600160a060020a03909316926304c017c992604480840193602093929083900390910190829087803b15801561106157600080fd5b505af1158015611075573d6000803e3d6000fd5b505050506040513d602081101561108b57600080fd5b5051915060dc82148015906110a1575081602b14155b80156110ae57508160bb14155b1561114c576110ea338585808060200260200160405190810160405280939291908181526020018383602002808284375061140b945050505050565b33600160a060020a03167f4db82994b51536ac0e5c7f6220346d80decb2a185a0f443e9d1617a43bc8123c85856040518080602001828103825284848281815260200192506020028082843760405192018290039550909350505050a2611176565b50336000908152600560205260409020805460ff1916600190811782556105f69082018585611721565b50505050565b60026020528160005260406000208181548110151561119757fe5b90600052602060002001600091509150505481565b600054600160a060020a031690565b600054600160a060020a0316331490565b60095490565b60046020526000908152604090205460ff1681565b6111f033611281565b151561124b57604080516000805160206117da833981519152815260206004820152601460248201527f4e6f7420612063757272656e74206d656d626572000000000000000000000000604482015290519081900360640190fd5b611254336115f3565b60405133907fc4c0d862b8fbecdc09138bf871948c94873f051ad636f7aa385814c8818fc73c90600090a2565b6000600160a060020a03821615156112e857604080516000805160206117da833981519152815260206004820152601e60248201527f5a65726f20616464726573732063616e27742062652061206d656d6265720000604482015290519081900360640190fd5b50600160a060020a031660009081526004602052604090205460ff1690565b60075481565b6113156111bb565b151561132057600080fd5b611329816115f3565b604051600160a060020a038216907fb6fa8b8bd5eab60f292eca876e3ef90722275b785309d84b1de113ce0b8c4e7490600090a250565b60075490565b600081815260026020908152604091829020805483518184028101840190945280845260609392830182828015610ab457602002820191906000526020600020905b815481526001909101906020018083116113a85750505050509050919050565b6113d06111bb565b15156113db57600080fd5b6113e481611686565b50565b60056020526000908152604090205460ff1681565b600a54600160a060020a031681565b61141361176c565b6000600160a060020a038416151561147a57604080516000805160206117da833981519152815260206004820152601c60248201527f43616e27742061737369676e20746f207a65726f206164647265737300000000604482015290519081900360640190fd5b6003548351146114d957604080516000805160206117da833981519152815260206004820152601c60248201527f4e65656420746f20696e70757420616c6c206174747269627574657300000000604482015290519081900360640190fd5b6001808352600160a060020a03851660009081526004602090815260409091208451815460ff19169015151781558185015180518694929361151f938501920190611784565b506000925050505b825181101561158657600160a060020a0384166000908152600460205260409020835160019091019084908390811061155c57fe5b60209081029091018101518254600181810185556000948552929093209092019190915501611527565b505060068054600180820183556000929092527ff652222313e28459528d920b65115c16c04f3efc82aaedc97be59f3f377c0d3f01805473ffffffffffffffffffffffffffffffffffffffff1916600160a060020a03949094169390931790925550600780549091019055565b6000600160a060020a038216151561165a57604080516000805160206117da833981519152815260206004820152601e60248201527f43616e2774207265766f6b652066726f6d207a65726f20616464726573730000604482015290519081900360640190fd5b50600160a060020a03166000908152600460205260409020805460ff1916905560078054600019019055565b600160a060020a038116151561169b57600080fd5b60008054604051600160a060020a03808516939216917f8be0079c531659141344cd1fd0a4f28419497f9722a3daafe3b4186f6b6457e091a36000805473ffffffffffffffffffffffffffffffffffffffff1916600160a060020a0392909216919091179055565b50805460008255906000526020600020908101906113e491906117bf565b82805482825590600052602060002090810192821561175c579160200282015b8281111561175c578235825591602001919060010190611741565b506117689291506117bf565b5090565b60408051808201909152600081526060602082015290565b82805482825590600052602060002090810192821561175c579160200282015b8281111561175c5782518255916020019190600101906117a4565b61085991905b8082111561176857600081556001016117c5560008c379a000000000000000000000000000000000000000000000000000000000a165627a7a723058207491d8948a53e3c5bb10d2be5a002ee1ae957e0a3aaceef6a9523aad8f39c6280029",
  "source": "pragma solidity ^0.4.25;\r\n\r\nimport \"membershipverificationtoken/contracts/ERC1261MetaData.sol\";\r\n\r\n\r\ncontract Protocol is ERC1261MetaData {\r\n    IERC1261 public vault;\r\n\r\n    constructor(bytes32 _orgName, bytes32 _orgSymbol, address vaultAddress) \r\n        public ERC1261MetaData(_orgName, _orgSymbol) {\r\n            vault = IERC1261(vaultAddress);\r\n        }\r\n\r\n    function requestMembership(uint[] _attributeIndexes) external payable {\r\n        //Do some checks before assigning membership\r\n        require(!isCurrentMember(msg.sender), \"Already a member\");\r\n        require(vault.isCurrentMember(msg.sender), \"Must be a vault member\");\r\n        emit RequestedMembership(msg.sender);\r\n        uint attributeValue = vault.getAttributeByIndex(msg.sender, 0);\r\n        if (attributeValue != 220 && attributeValue != 43 && attributeValue != 187) {\r\n            _assign(msg.sender, _attributeIndexes);\r\n            emit Assigned(msg.sender, _attributeIndexes);\r\n        } else {\r\n            PendingRequest storage request = pendingRequests[msg.sender];\r\n            request.isPending = true;\r\n            request.attributes = _attributeIndexes;\r\n        }\r\n    }\r\n\r\n    function assignTo(address _to, uint[] _attributeIndexes) external onlyOwner {\r\n        require(vault.isCurrentMember(_to), \"the _to address must already be a vault member\");\r\n        _assign(_to, _attributeIndexes);\r\n        emit Assigned(_to, _attributeIndexes);\r\n    }\r\n}",
  "sourcePath": "C:/Users/Naina/source/repos/vault-sc/contracts/testContracts/Protocol.sol",
  "compiler": {
    "name": "solc",
    "version": "0.4.25+commit.59dbf8f1.Emscripten.clang"
  },
  "schemaVersion": "3.0.0-beta.0",
  "updatedAt": "2018-12-12T11:18:12.468Z"
}