{
  "contractName": "UnBoundPoll",
  "abi": [
    {
      "constant": true,
      "inputs": [
        {
          "name": "",
          "type": "uint256"
        }
      ],
      "name": "proposals",
      "outputs": [
        {
          "name": "voteCount",
          "type": "uint256"
        },
        {
          "name": "voteWeight",
          "type": "uint256"
        },
        {
          "name": "name",
          "type": "bytes32"
        }
      ],
      "payable": false,
      "stateMutability": "view",
      "type": "function"
    },
    {
      "constant": true,
      "inputs": [],
      "name": "getName",
      "outputs": [
        {
          "name": "",
          "type": "bytes32"
        }
      ],
      "payable": false,
      "stateMutability": "view",
      "type": "function"
    },
    {
      "constant": true,
      "inputs": [],
      "name": "pollName",
      "outputs": [
        {
          "name": "",
          "type": "bytes32"
        }
      ],
      "payable": false,
      "stateMutability": "view",
      "type": "function"
    },
    {
      "constant": true,
      "inputs": [],
      "name": "voterBaseLogic",
      "outputs": [
        {
          "name": "",
          "type": "bytes32"
        }
      ],
      "payable": false,
      "stateMutability": "view",
      "type": "function"
    },
    {
      "constant": true,
      "inputs": [],
      "name": "pollType",
      "outputs": [
        {
          "name": "",
          "type": "bytes32"
        }
      ],
      "payable": false,
      "stateMutability": "view",
      "type": "function"
    },
    {
      "constant": true,
      "inputs": [],
      "name": "capPercent",
      "outputs": [
        {
          "name": "",
          "type": "uint256"
        }
      ],
      "payable": false,
      "stateMutability": "view",
      "type": "function"
    },
    {
      "constant": true,
      "inputs": [],
      "name": "endTime",
      "outputs": [
        {
          "name": "",
          "type": "uint256"
        }
      ],
      "payable": false,
      "stateMutability": "view",
      "type": "function"
    },
    {
      "constant": true,
      "inputs": [
        {
          "name": "_to",
          "type": "address"
        }
      ],
      "name": "calculateVoteWeight",
      "outputs": [
        {
          "name": "",
          "type": "uint256"
        }
      ],
      "payable": false,
      "stateMutability": "view",
      "type": "function"
    },
    {
      "constant": true,
      "inputs": [],
      "name": "getEndTime",
      "outputs": [
        {
          "name": "",
          "type": "uint256"
        }
      ],
      "payable": false,
      "stateMutability": "view",
      "type": "function"
    },
    {
      "constant": true,
      "inputs": [],
      "name": "getVoterCounts",
      "outputs": [
        {
          "name": "",
          "type": "uint256[]"
        }
      ],
      "payable": false,
      "stateMutability": "view",
      "type": "function"
    },
    {
      "constant": true,
      "inputs": [],
      "name": "capWeight",
      "outputs": [
        {
          "name": "",
          "type": "uint256"
        }
      ],
      "payable": false,
      "stateMutability": "view",
      "type": "function"
    },
    {
      "constant": true,
      "inputs": [],
      "name": "winningProposal",
      "outputs": [
        {
          "name": "",
          "type": "uint8"
        }
      ],
      "payable": false,
      "stateMutability": "view",
      "type": "function"
    },
    {
      "constant": true,
      "inputs": [],
      "name": "getProposals",
      "outputs": [
        {
          "name": "",
          "type": "bytes32[]"
        }
      ],
      "payable": false,
      "stateMutability": "view",
      "type": "function"
    },
    {
      "constant": true,
      "inputs": [
        {
          "name": "",
          "type": "uint256"
        }
      ],
      "name": "protocolAddresses",
      "outputs": [
        {
          "name": "",
          "type": "address"
        }
      ],
      "payable": false,
      "stateMutability": "view",
      "type": "function"
    },
    {
      "constant": true,
      "inputs": [],
      "name": "startTime",
      "outputs": [
        {
          "name": "",
          "type": "uint256"
        }
      ],
      "payable": false,
      "stateMutability": "view",
      "type": "function"
    },
    {
      "constant": true,
      "inputs": [
        {
          "name": "_proposalId",
          "type": "uint256"
        }
      ],
      "name": "getVoteTally",
      "outputs": [
        {
          "name": "",
          "type": "uint256"
        }
      ],
      "payable": false,
      "stateMutability": "view",
      "type": "function"
    },
    {
      "constant": true,
      "inputs": [],
      "name": "pollFactoryAddress",
      "outputs": [
        {
          "name": "",
          "type": "address"
        }
      ],
      "payable": false,
      "stateMutability": "view",
      "type": "function"
    },
    {
      "constant": true,
      "inputs": [],
      "name": "getProtocolAddresses",
      "outputs": [
        {
          "name": "",
          "type": "address[]"
        }
      ],
      "payable": false,
      "stateMutability": "view",
      "type": "function"
    },
    {
      "constant": true,
      "inputs": [
        {
          "name": "",
          "type": "address"
        }
      ],
      "name": "voters",
      "outputs": [
        {
          "name": "voted",
          "type": "bool"
        },
        {
          "name": "vote",
          "type": "uint8"
        },
        {
          "name": "delegate",
          "type": "address"
        },
        {
          "name": "weight",
          "type": "uint256"
        }
      ],
      "payable": false,
      "stateMutability": "view",
      "type": "function"
    },
    {
      "constant": true,
      "inputs": [],
      "name": "hasPollEnded",
      "outputs": [
        {
          "name": "",
          "type": "bool"
        }
      ],
      "payable": false,
      "stateMutability": "view",
      "type": "function"
    },
    {
      "constant": true,
      "inputs": [],
      "name": "hasPollStarted",
      "outputs": [
        {
          "name": "",
          "type": "bool"
        }
      ],
      "payable": false,
      "stateMutability": "view",
      "type": "function"
    },
    {
      "constant": true,
      "inputs": [],
      "name": "getPollType",
      "outputs": [
        {
          "name": "",
          "type": "bytes32"
        }
      ],
      "payable": false,
      "stateMutability": "view",
      "type": "function"
    },
    {
      "constant": true,
      "inputs": [],
      "name": "getVoterBaseLogic",
      "outputs": [
        {
          "name": "",
          "type": "bytes32"
        }
      ],
      "payable": false,
      "stateMutability": "view",
      "type": "function"
    },
    {
      "constant": true,
      "inputs": [],
      "name": "getStartTime",
      "outputs": [
        {
          "name": "",
          "type": "uint256"
        }
      ],
      "payable": false,
      "stateMutability": "view",
      "type": "function"
    },
    {
      "constant": true,
      "inputs": [],
      "name": "getVoteTallies",
      "outputs": [
        {
          "name": "",
          "type": "uint256[]"
        }
      ],
      "payable": false,
      "stateMutability": "view",
      "type": "function"
    },
    {
      "constant": true,
      "inputs": [
        {
          "name": "_proposalId",
          "type": "uint256"
        }
      ],
      "name": "getVoterCount",
      "outputs": [
        {
          "name": "",
          "type": "uint256"
        }
      ],
      "payable": false,
      "stateMutability": "view",
      "type": "function"
    },
    {
      "constant": true,
      "inputs": [],
      "name": "token",
      "outputs": [
        {
          "name": "",
          "type": "address"
        }
      ],
      "payable": false,
      "stateMutability": "view",
      "type": "function"
    },
    {
      "inputs": [
        {
          "name": "_protocolAddresses",
          "type": "address[]"
        },
        {
          "name": "_proposalNames",
          "type": "bytes32[]"
        },
        {
          "name": "_tokenAddress",
          "type": "address"
        },
        {
          "name": "_capPercent",
          "type": "uint256"
        },
        {
          "name": "_voterBaseLogic",
          "type": "bytes32"
        },
        {
          "name": "_pollName",
          "type": "bytes32"
        },
        {
          "name": "_pollType",
          "type": "bytes32"
        },
        {
          "name": "_startTime",
          "type": "uint256"
        },
        {
          "name": "_duration",
          "type": "uint256"
        },
        {
          "name": "_pollFactoryAddress",
          "type": "address"
        }
      ],
      "payable": false,
      "stateMutability": "nonpayable",
      "type": "constructor"
    },
    {
      "anonymous": false,
      "inputs": [
        {
          "indexed": true,
          "name": "_from",
          "type": "address"
        },
        {
          "indexed": true,
          "name": "_to",
          "type": "uint8"
        },
        {
          "indexed": false,
          "name": "voteWeight",
          "type": "uint256"
        }
      ],
      "name": "TriedToVote",
      "type": "event"
    },
    {
      "anonymous": false,
      "inputs": [
        {
          "indexed": true,
          "name": "_from",
          "type": "address"
        },
        {
          "indexed": true,
          "name": "_to",
          "type": "uint8"
        },
        {
          "indexed": false,
          "name": "voteWeight",
          "type": "uint256"
        }
      ],
      "name": "CastVote",
      "type": "event"
    },
    {
      "anonymous": false,
      "inputs": [
        {
          "indexed": true,
          "name": "_from",
          "type": "address"
        },
        {
          "indexed": true,
          "name": "_to",
          "type": "uint8"
        },
        {
          "indexed": false,
          "name": "voteWeight",
          "type": "uint256"
        }
      ],
      "name": "RevokedVote",
      "type": "event"
    },
    {
      "constant": false,
      "inputs": [],
      "name": "endPoll",
      "outputs": [],
      "payable": false,
      "stateMutability": "nonpayable",
      "type": "function"
    },
    {
      "constant": false,
      "inputs": [
        {
          "name": "_proposal",
          "type": "uint8"
        }
      ],
      "name": "vote",
      "outputs": [],
      "payable": false,
      "stateMutability": "nonpayable",
      "type": "function"
    },
    {
      "constant": false,
      "inputs": [],
      "name": "revokeVote",
      "outputs": [],
      "payable": false,
      "stateMutability": "nonpayable",
      "type": "function"
    },
    {
      "constant": true,
      "inputs": [
        {
          "name": "_to",
          "type": "address"
        }
      ],
      "name": "canVote",
      "outputs": [
        {
          "name": "",
          "type": "bool"
        }
      ],
      "payable": false,
      "stateMutability": "view",
      "type": "function"
    },
    {
      "constant": true,
      "inputs": [],
      "name": "getVoterBaseDenominator",
      "outputs": [
        {
          "name": "",
          "type": "uint256"
        }
      ],
      "payable": false,
      "stateMutability": "view",
      "type": "function"
    }
  ],
  "bytecode": "0x60806040523480156200001157600080fd5b5060405162001775380380620017758339810160409081528151602080840151928401516060850151608086015160a087015160c088015160e08901516101008a01516101208b0151998b01805199909b019a99969895979496939592949193909290918b918b918b918b918b918b918b918b918b918a918a918891889188918891889160009111156200010657604080517f08c379a000000000000000000000000000000000000000000000000000000000815260206004820152601e60248201527f50726f706f73616c73206d757374206265206c657373207468616e2033320000604482015290519081900360640190fd5b87516200011b9060069060208b019062000446565b5060028690556000859055600184905560038390558183016004819055831115620001a757604080517f08c379a000000000000000000000000000000000000000000000000000000000815260206004820152600d60248201527f496e76616c69642054696d657300000000000000000000000000000000000000604482015290519081900360640190fd5b5060005b86518160ff1610156200022c5760056060604051908101604052806000815260200160008152602001898460ff16815181101515620001e657fe5b60209081029091018101519091528254600181810185556000948552938290208351600390920201908155908201518184015560409091015160029091015501620001ab565b505050505050505086600860006101000a815481600160a060020a030219169083600160a060020a0316021790555085600981905550620003306200031a87600860009054906101000a9004600160a060020a0316600160a060020a031663683d8baf6040518163ffffffff167c0100000000000000000000000000000000000000000000000000000000028152600401602060405180830381600087803b158015620002d857600080fd5b505af1158015620002ed573d6000803e3d6000fd5b505050506040513d60208110156200030457600080fd5b50516401000000006200120e620003e482021704565b60646401000000006200123c6200042182021704565b600a556103e88610620003a457604080517f08c379a000000000000000000000000000000000000000000000000000000000815260206004820152601f60248201527f50657263656e74616765206d757374206265206c657373207468616e20313000604482015290519081900360640190fd5b5050600b8054600160a060020a039099166101000261010060a860020a03199099169890981790975550620004da9e505050505050505050505050505050565b600080831515620003f957600091506200041a565b508282028284828115156200040a57fe5b04146200041657600080fd5b8091505b5092915050565b6000808083116200043157600080fd5b82848115156200043d57fe5b04949350505050565b8280548282559060005260206000209081019282156200049e579160200282015b828111156200049e5782518254600160a060020a031916600160a060020a0390911617825560209092019160019091019062000467565b50620004ac929150620004b0565b5090565b620004d791905b80821115620004ac578054600160a060020a0319168155600101620004b7565b90565b61128b80620004ea6000396000f3006080604052600436106101955763ffffffff7c0100000000000000000000000000000000000000000000000000000000600035041663013cf08b811461019a57806317d7de7c146101d057806318769765146101f757806320574a671461020c578063237637a814610221578063259845f8146102365780633197cbb61461024b5780633fbd421614610260578063439f5ac21461028e57806343c14b22146102a357806344a09e65146102ba5780634d49f3b91461031f578063609ff1bd1461033457806362564c481461035f5780636a7620601461037457806378e97925146103b557806379cc9351146103ca5780638d99b2eb146103e25780639dfc6fa7146103f75780639e35bf131461040c578063a1774da014610421578063a3ec138d14610436578063acd82ac9146104a3578063adfaa72e146104cc578063ae015e5d146104fa578063b3f98adc1461050f578063b6d325a31461052a578063baf8f4411461053f578063c828371e14610554578063ca656e5a14610569578063e92e5c341461057e578063fc0c546a14610596575b600080fd5b3480156101a657600080fd5b506101b26004356105ab565b60408051938452602084019290925282820152519081900360600190f35b3480156101dc57600080fd5b506101e56105dc565b60408051918252519081900360200190f35b34801561020357600080fd5b506101e56105e2565b34801561021857600080fd5b506101e56105e8565b34801561022d57600080fd5b506101e56105ee565b34801561024257600080fd5b506101e56105f4565b34801561025757600080fd5b506101e56105fa565b34801561026c57600080fd5b506101e573ffffffffffffffffffffffffffffffffffffffff60043516610600565b34801561029a57600080fd5b506101e56106cb565b3480156102af57600080fd5b506102b86106d1565b005b3480156102c657600080fd5b506102cf610935565b60408051602080825283518183015283519192839290830191858101910280838360005b8381101561030b5781810151838201526020016102f3565b505050509050019250505060405180910390f35b34801561032b57600080fd5b506101e56109bc565b34801561034057600080fd5b506103496109c2565b6040805160ff9092168252519081900360200190f35b34801561036b57600080fd5b506102cf610a3b565b34801561038057600080fd5b5061038c600435610abc565b6040805173ffffffffffffffffffffffffffffffffffffffff9092168252519081900360200190f35b3480156103c157600080fd5b506101e5610af1565b3480156103d657600080fd5b506101e5600435610af7565b3480156103ee57600080fd5b506102b8610b21565b34801561040357600080fd5b5061038c610bbb565b34801561041857600080fd5b506101e5610bdc565b34801561042d57600080fd5b506102cf610cea565b34801561044257600080fd5b5061046473ffffffffffffffffffffffffffffffffffffffff60043516610d59565b60408051941515855260ff909316602085015273ffffffffffffffffffffffffffffffffffffffff909116838301526060830152519081900360800190f35b3480156104af57600080fd5b506104b8610d9f565b604080519115158252519081900360200190f35b3480156104d857600080fd5b506104b873ffffffffffffffffffffffffffffffffffffffff60043516610da8565b34801561050657600080fd5b506104b8610e70565b34801561051b57600080fd5b506102b860ff60043516610e79565b34801561053657600080fd5b506101e5611135565b34801561054b57600080fd5b506101e561113b565b34801561056057600080fd5b506101e5611141565b34801561057557600080fd5b506102cf611147565b34801561058a57600080fd5b506101e56004356111c8565b3480156105a257600080fd5b5061038c6111f2565b60058054829081106105b957fe5b600091825260209091206003909102018054600182015460029092015490925083565b60005490565b60005481565b60025481565b60015481565b60095481565b60045481565b600854604080517f70a0823100000000000000000000000000000000000000000000000000000000815273ffffffffffffffffffffffffffffffffffffffff8481166004830152915160009384936106af939116916370a082319160248082019260209290919082900301818887803b15801561067c57600080fd5b505af1158015610690573d6000803e3d6000fd5b505050506040513d60208110156106a657600080fd5b5051606461120e565b9050600a5481116106c057806106c4565b600a545b9392505050565b60045490565b60008060006106df33610da8565b151561074c57604080517f08c379a000000000000000000000000000000000000000000000000000000000815260206004820152601160248201527f4e6f7420612076616c696420766f746572000000000000000000000000000000604482015290519081900360640190fd5b600b5460ff1615156108a657336000908152600760205260409020805490935060ff1615156107dc57604080517f08c379a000000000000000000000000000000000000000000000000000000000815260206004820152601160248201527f4861736e27742079657420766f7465642e000000000000000000000000000000604482015290519081900360640190fd5b50508054600182015460ff1982168084556005805460ff610100958690048116958594041690811061080a57fe5b6000918252602090912060016003909202018101805492909203909155835460058054909160ff6101009091041690811061084157fe5b600091825260208083206003909202909101805493909303909255845461ff0019168555600185015560408051838152905160ff85169233927f49be09e3fc84da8de5a4917a06e95f8acea71828e157541c9396a9b6aa45d4f3929081900390910190a35b600854604080517f53cc2fae000000000000000000000000000000000000000000000000000000008152336004820152905173ffffffffffffffffffffffffffffffffffffffff909216916353cc2fae9160248082019260009290919082900301818387803b15801561091857600080fd5b505af115801561092c573d6000803e3d6000fd5b50505050505050565b6040805160208082526104208201909252606091829160009180820161040080388339019050509150600090505b60055460ff821610156109b6576005805460ff831690811061098157fe5b906000526020600020906003020160000154828260ff168151811015156109a457fe5b60209081029091010152600101610963565b50919050565b600a5481565b60008080805b60055460ff82161015610a31578160058260ff168154811015156109e857fe5b9060005260206000209060030201600001541115610a29576005805460ff8316908110610a1157fe5b90600052602060002090600302016000015491508092505b6001016109c8565b8293505b50505090565b6040805160208082526104208201909252606091829160009180820161040080388339019050509150600090505b60055460ff821610156109b6576005805460ff8316908110610a8757fe5b906000526020600020906003020160020154828260ff16815181101515610aaa57fe5b60209081029091010152600101610a69565b6006805482908110610aca57fe5b60009182526020909120015473ffffffffffffffffffffffffffffffffffffffff16905081565b60035481565b6000600582815481101515610b0857fe5b9060005260206000209060030201600101549050919050565b600b54610100900473ffffffffffffffffffffffffffffffffffffffff163314610bac57604080517f08c379a000000000000000000000000000000000000000000000000000000000815260206004820152601160248201527f4e6f7420656e6f75676820726967687473000000000000000000000000000000604482015290519081900360640190fd5b600b805460ff19166001179055565b600b54610100900473ffffffffffffffffffffffffffffffffffffffff1681565b60085460055460009173ffffffffffffffffffffffffffffffffffffffff169082908190600110610c9e578273ffffffffffffffffffffffffffffffffffffffff1663dd06bfba6040518163ffffffff167c0100000000000000000000000000000000000000000000000000000000028152600401602060405180830381600087803b158015610c6b57600080fd5b505af1158015610c7f573d6000803e3d6000fd5b505050506040513d6020811015610c9557600080fd5b50519350610a35565b5060009050805b60055460ff82161015610ce3576005805460ff8316908110610cc357fe5b600091825260209091206001600390920201810154929092019101610ca5565b5092915050565b60606006805480602002602001604051908101604052809291908181526020018280548015610d4f57602002820191906000526020600020905b815473ffffffffffffffffffffffffffffffffffffffff168152600190910190602001808311610d24575b5050505050905090565b6007602052600090815260409020805460019091015460ff808316926101008104909116916201000090910473ffffffffffffffffffffffffffffffffffffffff169084565b600b5460ff1681565b60008060066000815481101515610dbb57fe5b6000918252602080832090910154604080517fae6b114300000000000000000000000000000000000000000000000000000000815273ffffffffffffffffffffffffffffffffffffffff88811660048301529151919092169450849363ae6b114393602480850194919392918390030190829087803b158015610e3d57600080fd5b505af1158015610e51573d6000803e3d6000fd5b505050506040513d6020811015610e6757600080fd5b50519392505050565b60035442101590565b600080610e84610e70565b1515610ef157604080517f08c379a000000000000000000000000000000000000000000000000000000000815260206004820152601360248201527f506f6c6c206861736e2774207374617274656400000000000000000000000000604482015290519081900360640190fd5b600b5460ff1615610f6357604080517f08c379a000000000000000000000000000000000000000000000000000000000815260206004820152600e60248201527f506f6c6c2068617320656e646564000000000000000000000000000000000000604482015290519081900360640190fd5b3360008181526007602052604090209250610f7d90610600565b9050610f8833610da8565b8015610f965750815460ff16155b8015610fa6575060055460ff8416105b156110f557815460ff8416610100810261ff001960ff19909316600190811793909316178455908301829055600580548392908110610fe157fe5b600091825260209091206001600390920201810180549092019091556005805460ff861690811061100e57fe5b600091825260209182902060039091020180549092019091556001830154604080519182525160ff86169233927fd6f49aab6565b56612b881817204c72172e62ac89374c6a8d869c363d785be73929081900390910190a3600854604080517ff26c159f000000000000000000000000000000000000000000000000000000008152336004820152905173ffffffffffffffffffffffffffffffffffffffff9092169163f26c159f9160248082019260009290919082900301818387803b1580156110d857600080fd5b505af11580156110ec573d6000803e3d6000fd5b50505050611130565b60408051828152905160ff85169133917f532cea1f2d5ee838618e25edd1cf517281ecd9845598bd18a53cf61a8e877bf09181900360200190a35b505050565b60015490565b60025490565b60035490565b6040805160208082526104208201909252606091829160009180820161040080388339019050509150600090505b60055460ff821610156109b6576005805460ff831690811061119357fe5b906000526020600020906003020160010154828260ff168151811015156111b657fe5b60209081029091010152600101611175565b60006005828154811015156111d957fe5b9060005260206000209060030201600001549050919050565b60085473ffffffffffffffffffffffffffffffffffffffff1681565b6000808315156112215760009150610ce3565b5082820282848281151561123157fe5b04146106c457600080fd5b60008080831161124b57600080fd5b828481151561125657fe5b049493505050505600a165627a7a723058206130b297153c3e54aa886f83fd95ab6d339bd14da0a1932be3a774f6ac81cfef0029",
  "source": "pragma solidity ^0.4.25;\r\n\r\nimport \"electusvoting/contracts/poll/TokenProportionalCapped.sol\";\r\nimport \"../Interfaces/IDaicoToken.sol\";\r\n\r\n\r\ncontract UnBoundPoll is TokenProportionalCapped {\r\n\r\n    bool public hasPollEnded;\r\n    address public pollFactoryAddress;\r\n\r\n    constructor(address[] _protocolAddresses, bytes32[] _proposalNames, address _tokenAddress, uint _capPercent,\r\n    bytes32 _voterBaseLogic, bytes32 _pollName, bytes32 _pollType, uint _startTime, uint _duration, \r\n    address _pollFactoryAddress) public TokenProportionalCapped(_protocolAddresses, _proposalNames, _tokenAddress, \r\n    _capPercent, _voterBaseLogic, _pollName, _pollType, _startTime, _duration) {\r\n        pollFactoryAddress = _pollFactoryAddress;\r\n    }\r\n\r\n    function endPoll() external {\r\n        require(msg.sender == pollFactoryAddress, \"Not enough rights\");\r\n        hasPollEnded = true;\r\n    }\r\n\r\n    function vote(uint8 _proposal) external isPollStarted {\r\n        require(!hasPollEnded, \"Poll has ended\");\r\n        Voter storage sender = voters[msg.sender];\r\n        uint voteWeight = calculateVoteWeight(msg.sender);\r\n        //vote weight is multiplied by 100 to account for decimals\r\n        \r\n        if (canVote(msg.sender) && !sender.voted && _proposal < proposals.length) {\r\n            sender.voted = true;\r\n            sender.vote = _proposal;\r\n            sender.weight = voteWeight;\r\n            proposals[_proposal].voteWeight += sender.weight;\r\n            proposals[_proposal].voteCount += 1;\r\n            emit CastVote(msg.sender, _proposal, sender.weight);\r\n            //Need to check whether we can freeze or not.!\r\n            token.freezeAccount(msg.sender);\r\n        } else {\r\n            emit TriedToVote(msg.sender, _proposal, voteWeight);\r\n        }\r\n    }\r\n\r\n    function revokeVote() external isValidVoter {\r\n        if (!hasPollEnded) {\r\n            Voter storage sender = voters[msg.sender];\r\n            require(sender.voted, \"Hasn't yet voted.\");\r\n            uint8 votedProposal = sender.vote;\r\n            uint voteWeight = sender.weight;\r\n            sender.voted = false;\r\n            proposals[sender.vote].voteWeight -= sender.weight;\r\n            proposals[sender.vote].voteCount -= 1;\r\n            sender.vote = 0;\r\n            sender.weight = 0;\r\n            emit RevokedVote(msg.sender, votedProposal, voteWeight);\r\n        }\r\n        token.unFreezeAccount(msg.sender);\r\n    }\r\n\r\n    function canVote(address _to) public view returns (bool) {\r\n        //this is vault address and not 1261 of treasury\r\n        IERC1261 contract1 = IERC1261(protocolAddresses[0]);\r\n        return (contract1.isCurrentMember(_to));\r\n    }\r\n\r\n    function getVoterBaseDenominator() public view returns (uint) {\r\n        IDaicoToken daicoToken = IDaicoToken(address(token));\r\n        if (proposals.length <= 1) {\r\n            return daicoToken.getTokensUnderGovernance();\r\n        }\r\n        uint proposalWeight = 0;\r\n        for (uint8 index = 0; index < proposals.length; index++) {\r\n            proposalWeight += proposals[index].voteWeight;\r\n        }\r\n        return proposalWeight;\r\n    }\r\n}",
  "sourcePath": "C:\\Users\\Naina\\source\\repos\\vault-sc\\contracts\\Poll\\UnBoundPoll.sol",
  "compiler": {
    "name": "solc",
    "version": "0.4.25+commit.59dbf8f1.Emscripten.clang"
  },
  "schemaVersion": "3.0.0-beta.0",
  "updatedAt": "2018-12-12T11:18:12.422Z"
}