{
  "contractName": "Vault",
  "abi": [
    {
      "constant": false,
      "inputs": [
        {
          "name": "_name",
          "type": "bytes32"
        },
        {
          "name": "values",
          "type": "bytes32[]"
        }
      ],
      "name": "addAttributeSet",
      "outputs": [],
      "payable": false,
      "stateMutability": "nonpayable",
      "type": "function"
    },
    {
      "constant": true,
      "inputs": [
        {
          "name": "interfaceId",
          "type": "bytes4"
        }
      ],
      "name": "supportsInterface",
      "outputs": [
        {
          "name": "",
          "type": "bool"
        }
      ],
      "payable": false,
      "stateMutability": "view",
      "type": "function"
    },
    {
      "constant": true,
      "inputs": [
        {
          "name": "_to",
          "type": "address"
        },
        {
          "name": "_attributeIndex",
          "type": "uint256"
        }
      ],
      "name": "getAttributeByIndex",
      "outputs": [
        {
          "name": "",
          "type": "uint256"
        }
      ],
      "payable": false,
      "stateMutability": "view",
      "type": "function"
    },
    {
      "constant": false,
      "inputs": [
        {
          "name": "_user",
          "type": "address"
        }
      ],
      "name": "approveRequest",
      "outputs": [],
      "payable": false,
      "stateMutability": "nonpayable",
      "type": "function"
    },
    {
      "constant": true,
      "inputs": [],
      "name": "name",
      "outputs": [
        {
          "name": "",
          "type": "bytes32"
        }
      ],
      "payable": false,
      "stateMutability": "view",
      "type": "function"
    },
    {
      "constant": false,
      "inputs": [
        {
          "name": "_to",
          "type": "address"
        },
        {
          "name": "_attributeIndexes",
          "type": "uint256[]"
        }
      ],
      "name": "assignTo",
      "outputs": [],
      "payable": false,
      "stateMutability": "nonpayable",
      "type": "function"
    },
    {
      "constant": true,
      "inputs": [
        {
          "name": "",
          "type": "uint256"
        }
      ],
      "name": "attributeNames",
      "outputs": [
        {
          "name": "",
          "type": "bytes32"
        }
      ],
      "payable": false,
      "stateMutability": "view",
      "type": "function"
    },
    {
      "constant": true,
      "inputs": [
        {
          "name": "_to",
          "type": "address"
        }
      ],
      "name": "getAttributes",
      "outputs": [
        {
          "name": "",
          "type": "uint256[]"
        }
      ],
      "payable": false,
      "stateMutability": "view",
      "type": "function"
    },
    {
      "constant": true,
      "inputs": [
        {
          "name": "",
          "type": "uint256"
        }
      ],
      "name": "allHolders",
      "outputs": [
        {
          "name": "",
          "type": "address"
        }
      ],
      "payable": false,
      "stateMutability": "view",
      "type": "function"
    },
    {
      "constant": true,
      "inputs": [],
      "name": "getAttributeNames",
      "outputs": [
        {
          "name": "",
          "type": "bytes32[]"
        }
      ],
      "payable": false,
      "stateMutability": "view",
      "type": "function"
    },
    {
      "constant": false,
      "inputs": [
        {
          "name": "_user",
          "type": "address"
        }
      ],
      "name": "discardRequest",
      "outputs": [],
      "payable": false,
      "stateMutability": "nonpayable",
      "type": "function"
    },
    {
      "constant": false,
      "inputs": [],
      "name": "renounceOwnership",
      "outputs": [],
      "payable": false,
      "stateMutability": "nonpayable",
      "type": "function"
    },
    {
      "constant": false,
      "inputs": [
        {
          "name": "_to",
          "type": "address"
        },
        {
          "name": "_attributeIndex",
          "type": "uint256"
        },
        {
          "name": "_modifiedValueIndex",
          "type": "uint256"
        }
      ],
      "name": "modifyAttributeByIndex",
      "outputs": [],
      "payable": false,
      "stateMutability": "nonpayable",
      "type": "function"
    },
    {
      "constant": true,
      "inputs": [],
      "name": "getAllMembers",
      "outputs": [
        {
          "name": "",
          "type": "address[]"
        }
      ],
      "payable": false,
      "stateMutability": "view",
      "type": "function"
    },
    {
      "constant": true,
      "inputs": [],
      "name": "issuerFee",
      "outputs": [
        {
          "name": "",
          "type": "uint256"
        }
      ],
      "payable": false,
      "stateMutability": "view",
      "type": "function"
    },
    {
      "constant": true,
      "inputs": [
        {
          "name": "",
          "type": "uint256"
        },
        {
          "name": "",
          "type": "uint256"
        }
      ],
      "name": "attributeValueCollection",
      "outputs": [
        {
          "name": "",
          "type": "bytes32"
        }
      ],
      "payable": false,
      "stateMutability": "view",
      "type": "function"
    },
    {
      "constant": true,
      "inputs": [],
      "name": "owner",
      "outputs": [
        {
          "name": "",
          "type": "address"
        }
      ],
      "payable": false,
      "stateMutability": "view",
      "type": "function"
    },
    {
      "constant": true,
      "inputs": [],
      "name": "isOwner",
      "outputs": [
        {
          "name": "",
          "type": "bool"
        }
      ],
      "payable": false,
      "stateMutability": "view",
      "type": "function"
    },
    {
      "constant": true,
      "inputs": [],
      "name": "symbol",
      "outputs": [
        {
          "name": "",
          "type": "bytes32"
        }
      ],
      "payable": false,
      "stateMutability": "view",
      "type": "function"
    },
    {
      "constant": true,
      "inputs": [
        {
          "name": "",
          "type": "address"
        }
      ],
      "name": "currentHolders",
      "outputs": [
        {
          "name": "hasToken",
          "type": "bool"
        }
      ],
      "payable": false,
      "stateMutability": "view",
      "type": "function"
    },
    {
      "constant": false,
      "inputs": [],
      "name": "forfeitMembership",
      "outputs": [],
      "payable": true,
      "stateMutability": "payable",
      "type": "function"
    },
    {
      "constant": true,
      "inputs": [
        {
          "name": "_to",
          "type": "address"
        }
      ],
      "name": "isCurrentMember",
      "outputs": [
        {
          "name": "",
          "type": "bool"
        }
      ],
      "payable": false,
      "stateMutability": "view",
      "type": "function"
    },
    {
      "constant": true,
      "inputs": [],
      "name": "currentMemberCount",
      "outputs": [
        {
          "name": "",
          "type": "uint256"
        }
      ],
      "payable": false,
      "stateMutability": "view",
      "type": "function"
    },
    {
      "constant": false,
      "inputs": [
        {
          "name": "_from",
          "type": "address"
        }
      ],
      "name": "revokeFrom",
      "outputs": [],
      "payable": false,
      "stateMutability": "nonpayable",
      "type": "function"
    },
    {
      "constant": true,
      "inputs": [],
      "name": "getCurrentMemberCount",
      "outputs": [
        {
          "name": "",
          "type": "uint256"
        }
      ],
      "payable": false,
      "stateMutability": "view",
      "type": "function"
    },
    {
      "constant": true,
      "inputs": [],
      "name": "fee",
      "outputs": [
        {
          "name": "",
          "type": "uint256"
        }
      ],
      "payable": false,
      "stateMutability": "view",
      "type": "function"
    },
    {
      "constant": true,
      "inputs": [
        {
          "name": "_index",
          "type": "uint256"
        }
      ],
      "name": "getAttributeExhaustiveCollection",
      "outputs": [
        {
          "name": "",
          "type": "bytes32[]"
        }
      ],
      "payable": false,
      "stateMutability": "view",
      "type": "function"
    },
    {
      "constant": false,
      "inputs": [
        {
          "name": "newOwner",
          "type": "address"
        }
      ],
      "name": "transferOwnership",
      "outputs": [],
      "payable": false,
      "stateMutability": "nonpayable",
      "type": "function"
    },
    {
      "constant": true,
      "inputs": [
        {
          "name": "",
          "type": "address"
        }
      ],
      "name": "pendingRequests",
      "outputs": [
        {
          "name": "isPending",
          "type": "bool"
        }
      ],
      "payable": false,
      "stateMutability": "view",
      "type": "function"
    },
    {
      "inputs": [
        {
          "name": "_orgName",
          "type": "bytes32"
        },
        {
          "name": "_orgSymbol",
          "type": "bytes32"
        },
        {
          "name": "_fee",
          "type": "uint256"
        },
        {
          "name": "_issuerFee",
          "type": "uint256"
        }
      ],
      "payable": false,
      "stateMutability": "nonpayable",
      "type": "constructor"
    },
    {
      "anonymous": false,
      "inputs": [
        {
          "indexed": true,
          "name": "_to",
          "type": "address"
        },
        {
          "indexed": false,
          "name": "attributeIndexes",
          "type": "uint256[]"
        }
      ],
      "name": "ApprovedMembership",
      "type": "event"
    },
    {
      "anonymous": false,
      "inputs": [
        {
          "indexed": true,
          "name": "_to",
          "type": "address"
        }
      ],
      "name": "RequestedMembership",
      "type": "event"
    },
    {
      "anonymous": false,
      "inputs": [
        {
          "indexed": true,
          "name": "_to",
          "type": "address"
        },
        {
          "indexed": false,
          "name": "attributeIndexes",
          "type": "uint256[]"
        }
      ],
      "name": "Assigned",
      "type": "event"
    },
    {
      "anonymous": false,
      "inputs": [
        {
          "indexed": true,
          "name": "_to",
          "type": "address"
        }
      ],
      "name": "Revoked",
      "type": "event"
    },
    {
      "anonymous": false,
      "inputs": [
        {
          "indexed": true,
          "name": "_to",
          "type": "address"
        }
      ],
      "name": "Forfeited",
      "type": "event"
    },
    {
      "anonymous": false,
      "inputs": [
        {
          "indexed": true,
          "name": "_to",
          "type": "address"
        },
        {
          "indexed": false,
          "name": "attributeIndex",
          "type": "uint256"
        },
        {
          "indexed": false,
          "name": "prevValueIndex",
          "type": "uint256"
        },
        {
          "indexed": false,
          "name": "prevValue",
          "type": "bytes32"
        },
        {
          "indexed": false,
          "name": "modifiedValueIndex",
          "type": "uint256"
        },
        {
          "indexed": false,
          "name": "modifiedValue",
          "type": "bytes32"
        }
      ],
      "name": "ModifiedAttributes",
      "type": "event"
    },
    {
      "anonymous": false,
      "inputs": [
        {
          "indexed": true,
          "name": "previousOwner",
          "type": "address"
        },
        {
          "indexed": true,
          "name": "newOwner",
          "type": "address"
        }
      ],
      "name": "OwnershipTransferred",
      "type": "event"
    },
    {
      "constant": false,
      "inputs": [
        {
          "name": "_newFee",
          "type": "uint256"
        }
      ],
      "name": "modifyFee",
      "outputs": [],
      "payable": false,
      "stateMutability": "nonpayable",
      "type": "function"
    },
    {
      "constant": false,
      "inputs": [
        {
          "name": "_newFee",
          "type": "uint256"
        }
      ],
      "name": "modifyIssuerFee",
      "outputs": [],
      "payable": false,
      "stateMutability": "nonpayable",
      "type": "function"
    },
    {
      "constant": false,
      "inputs": [
        {
          "name": "_attributeIndexes",
          "type": "uint256[]"
        }
      ],
      "name": "requestMembership",
      "outputs": [],
      "payable": true,
      "stateMutability": "payable",
      "type": "function"
    }
  ],
  "bytecode": "0x60806040523480156200001157600080fd5b506040516080806200188d833981016040818152825160208401519184015160609094015160008054600160a060020a031916331780825592959394919286928692600160a060020a039290921691907f8be0079c531659141344cd1fd0a4f28419497f9722a3daafe3b4186f6b6457e0908290a3620000ba7f01ffc9a70000000000000000000000000000000000000000000000000000000064010000000062000171810204565b620000ee7f912f7bb20000000000000000000000000000000000000000000000000000000064010000000062000171810204565b620001227f83adfb2d0000000000000000000000000000000000000000000000000000000064010000000062000171810204565b620001567f932545420000000000000000000000000000000000000000000000000000000064010000000062000171810204565b600891909155600955600a91909155600b5550620001e19050565b7fffffffff000000000000000000000000000000000000000000000000000000008082161415620001a157600080fd5b7fffffffff00000000000000000000000000000000000000000000000000000000166000908152600160208190526040909120805460ff19169091179055565b61169c80620001f16000396000f3006080604052600436106101945763ffffffff7c0100000000000000000000000000000000000000000000000000000000600035041662c6abf9811461019957806301ffc9a7146101bf57806304c017c91461020d578063061dff9a1461024357806306fdde031461026457806315bc9406146102795780631800622e146102a6578063446d5aa4146102be57806346fee28f1461032f5780634e6762fa146103635780636112e48f14610378578063715018a6146103995780637851c0ed146103ae5780637c0f6b35146103d55780637cbd32f4146103ea5780637ec92e59146103ff5780638d614e76146104125780638da5cb5b1461042d5780638f32d59b1461044257806395d89b41146104575780639d824a701461046c578063a0b1e2881461048d578063a324a9cf146104a5578063ae6b1143146104ad578063bbe06121146104ce578063c89ed7aa146104e3578063cb695ef414610504578063ddca3f4314610519578063deaa26001461052e578063f2fde38b14610546578063fa20055014610567578063fb22e6511461057f575b600080fd5b3480156101a557600080fd5b506101bd6004803590602480359081019101356105a0565b005b3480156101cb57600080fd5b506101f97fffffffff0000000000000000000000000000000000000000000000000000000060043516610663565b604080519115158252519081900360200190f35b34801561021957600080fd5b50610231600160a060020a036004351660243561069a565b60408051918252519081900360200190f35b34801561024f57600080fd5b506101bd600160a060020a036004351661074b565b34801561027057600080fd5b506102316108bb565b34801561028557600080fd5b506101bd60048035600160a060020a031690602480359081019101356108c2565b3480156102b257600080fd5b5061023160043561096e565b3480156102ca57600080fd5b506102df600160a060020a036004351661098d565b60408051602080825283518183015283519192839290830191858101910280838360005b8381101561031b578181015183820152602001610303565b505050509050019250505060405180910390f35b34801561033b57600080fd5b50610347600435610a11565b60408051600160a060020a039092168252519081900360200190f35b34801561036f57600080fd5b506102df610a39565b34801561038457600080fd5b506101bd600160a060020a0360043516610a92565b3480156103a557600080fd5b506101bd610b3a565b3480156103ba57600080fd5b506101bd600160a060020a0360043516602435604435610ba4565b3480156103e157600080fd5b506102df610d63565b3480156103f657600080fd5b50610231610dc4565b6101bd6004803560248101910135610dca565b34801561041e57600080fd5b50610231600435602435610fcc565b34801561043957600080fd5b50610347610ffc565b34801561044e57600080fd5b506101f961100b565b34801561046357600080fd5b5061023161101c565b34801561047857600080fd5b506101f9600160a060020a0360043516611022565b34801561049957600080fd5b506101bd600435611037565b6101bd61104f565b3480156104b957600080fd5b506101f9600160a060020a03600435166110e9565b3480156104da57600080fd5b5061023161116f565b3480156104ef57600080fd5b506101bd600160a060020a0360043516611175565b34801561051057600080fd5b506102316111c8565b34801561052557600080fd5b506102316111ce565b34801561053a57600080fd5b506102df6004356111d4565b34801561055257600080fd5b506101bd600160a060020a0360043516611236565b34801561057357600080fd5b506101bd600435611255565b34801561058b57600080fd5b506101f9600160a060020a036004351661126d565b60038054600181810183557fc2575a0e9e593c00f959f8c92f12db2869c3395a3b0502d05e2516446f71f85b90910185905590546000190160009081526002602090815260408220805493840181558083529082207f756e646566696e656400000000000000000000000000000000000000000000009301929092555b8281101561065c578184848381811061063257fe5b8354600180820186556000958652602095869020929095029390930135920191909155500161061d565b5050505050565b7fffffffff000000000000000000000000000000000000000000000000000000001660009081526001602052604090205460ff1690565b600160a060020a03821660009081526004602052604081206001015482106107115760408051600080516020611651833981519152815260206004820152601f60248201527f6461746120646f65736e277420657869737420666f7220746865207573657200604482015290519081900360640190fd5b600160a060020a038316600090815260046020526040902060010180548390811061073857fe5b9060005260206000200154905092915050565b600061075561100b565b151561076057600080fd5b50600160a060020a0381166000908152600560205260409020805460ff1615156107d95760408051600080516020611651833981519152815260206004820152601560248201527f4861736e27742073656e74206574686572207965740000000000000000000000604482015290519081900360640190fd5b610835828260010180548060200260200160405190810160405280929190818152602001828054801561082b57602002820191906000526020600020905b815481526020019060010190808311610817575b5050505050611282565b81600160a060020a03167f68de97d2b1697dbc8e1b0866f403f9a6b8e991df52cb175c63371b50d8a1407b82600101604051808060200182810382528381815481526020019150805480156108a957602002820191906000526020600020905b815481526020019060010190808311610895575b50509250505060405180910390a25050565b6008545b90565b6108ca61100b565b15156108d557600080fd5b61090c8383838080602002602001604051908101604052809392919081815260200183836020028082843750611282945050505050565b82600160a060020a03167f4db82994b51536ac0e5c7f6220346d80decb2a185a0f443e9d1617a43bc8123c83836040518080602001828103825284848281815260200192506020028082843760405192018290039550909350505050a2505050565b600380548290811061097c57fe5b600091825260209091200154905081565b6060600160a060020a03821615156109a457600080fd5b600160a060020a03821660009081526004602090815260409182902060010180548351818402810184019094528084529091830182828015610a0557602002820191906000526020600020905b8154815260200190600101908083116109f1575b50505050509050919050565b6006805482908110610a1f57fe5b600091825260209091200154600160a060020a0316905081565b60606003805480602002602001604051908101604052809291908181526020018280548015610a8857602002820191906000526020600020905b81548152600190910190602001808311610a73575b5050505050905090565b6000610a9c61100b565b1515610aa757600080fd5b50600160a060020a0381166000908152600560205260409020805460ff161515610b205760408051600080516020611651833981519152815260206004820152601560248201527f4861736e27742073656e74206574686572207965740000000000000000000000604482015290519081900360640190fd5b805460ff19168155610b3660018201600061157a565b5050565b610b4261100b565b1515610b4d57600080fd5b60008054604051600160a060020a03909116907f8be0079c531659141344cd1fd0a4f28419497f9722a3daafe3b4186f6b6457e0908390a36000805473ffffffffffffffffffffffffffffffffffffffff19169055565b6000806000610bb161100b565b1515610bbc57600080fd5b600160a060020a0386166000908152600460205260409020600101548510610c335760408051600080516020611651833981519152815260206004820152601f60248201527f6461746120646f65736e277420657869737420666f7220746865207573657200604482015290519081900360640190fd5b600160a060020a0386166000908152600460205260409020600101805486908110610c5a57fe5b906000526020600020015492506002600086815260200190815260200160002083815481101515610c8757fe5b90600052602060002001549150836004600088600160a060020a0316600160a060020a0316815260200190815260200160002060010186815481101515610cca57fe5b6000918252602080832090910192909255868152600290915260409020805485908110610cf357fe5b6000918252602091829020015460408051888152928301869052828101859052606083018790526080830182905251909250600160a060020a038816917f6edc02249d88a118cb5982102dcdeaf2c7e6fd03e89ba030fb6c6ec00dc5a4d6919081900360a00190a2505050505050565b60606006805480602002602001604051908101604052809291908181526020018280548015610a8857602002820191906000526020600020905b8154600160a060020a03168152600190910190602001808311610d9d575050505050905090565b600b5481565b600080610dd6336110e9565b15610e305760408051600080516020611651833981519152815260206004820152601060248201527f416c72656164792061206d656d62657200000000000000000000000000000000604482015290519081900360640190fd5b83836001818110610e3d57fe5b9050602002013560001415610eb057600b54341015610eab5760408051600080516020611651833981519152815260206004820152601960248201527f4e6f7420656e6f7567682066656520666f722069737375657200000000000000604482015290519081900360640190fd5b610f34565b600a54341015610f3457604080516000805160206116518339815191528152602060048201526024808201527f4e6f7420656e6f7567682065746865722073656e7420666f72206d656d62657260448201527f7368697000000000000000000000000000000000000000000000000000000000606482015290519081900360840190fd5b336000908152600560205260409020805460ff191660019081178255909250610f609083018585611598565b5060405133907fc0e2b0436d54094aabbe5e320d8bf0bdfb4f1510c1e404d767a91638433fe69a90600090a2610f94610ffc565b604051909150600160a060020a038216903480156108fc02916000818181858888f1935050505015801561065c573d6000803e3d6000fd5b600260205281600052604060002081815481101515610fe757fe5b90600052602060002001600091509150505481565b600054600160a060020a031690565b600054600160a060020a0316331490565b60095490565b60046020526000908152604090205460ff1681565b61103f61100b565b151561104a57600080fd5b600b55565b611058336110e9565b15156110b35760408051600080516020611651833981519152815260206004820152601460248201527f4e6f7420612063757272656e74206d656d626572000000000000000000000000604482015290519081900360640190fd5b6110bc3361146a565b60405133907fc4c0d862b8fbecdc09138bf871948c94873f051ad636f7aa385814c8818fc73c90600090a2565b6000600160a060020a03821615156111505760408051600080516020611651833981519152815260206004820152601e60248201527f5a65726f20616464726573732063616e27742062652061206d656d6265720000604482015290519081900360640190fd5b50600160a060020a031660009081526004602052604090205460ff1690565b60075481565b61117d61100b565b151561118857600080fd5b6111918161146a565b604051600160a060020a038216907fb6fa8b8bd5eab60f292eca876e3ef90722275b785309d84b1de113ce0b8c4e7490600090a250565b60075490565b600a5481565b600081815260026020908152604091829020805483518184028101840190945280845260609392830182828015610a0557602002820191906000526020600020905b815481526001909101906020018083116112165750505050509050919050565b61123e61100b565b151561124957600080fd5b611252816114fd565b50565b61125d61100b565b151561126857600080fd5b600a55565b60056020526000908152604090205460ff1681565b61128a6115e3565b6000600160a060020a03841615156112f15760408051600080516020611651833981519152815260206004820152601c60248201527f43616e27742061737369676e20746f207a65726f206164647265737300000000604482015290519081900360640190fd5b6003548351146113505760408051600080516020611651833981519152815260206004820152601c60248201527f4e65656420746f20696e70757420616c6c206174747269627574657300000000604482015290519081900360640190fd5b6001808352600160a060020a03851660009081526004602090815260409091208451815460ff1916901515178155818501518051869492936113969385019201906115fb565b506000925050505b82518110156113fd57600160a060020a038416600090815260046020526040902083516001909101908490839081106113d357fe5b6020908102909101810151825460018181018555600094855292909320909201919091550161139e565b505060068054600180820183556000929092527ff652222313e28459528d920b65115c16c04f3efc82aaedc97be59f3f377c0d3f01805473ffffffffffffffffffffffffffffffffffffffff1916600160a060020a03949094169390931790925550600780549091019055565b6000600160a060020a03821615156114d15760408051600080516020611651833981519152815260206004820152601e60248201527f43616e2774207265766f6b652066726f6d207a65726f20616464726573730000604482015290519081900360640190fd5b50600160a060020a03166000908152600460205260409020805460ff1916905560078054600019019055565b600160a060020a038116151561151257600080fd5b60008054604051600160a060020a03808516939216917f8be0079c531659141344cd1fd0a4f28419497f9722a3daafe3b4186f6b6457e091a36000805473ffffffffffffffffffffffffffffffffffffffff1916600160a060020a0392909216919091179055565b50805460008255906000526020600020908101906112529190611636565b8280548282559060005260206000209081019282156115d3579160200282015b828111156115d35782358255916020019190600101906115b8565b506115df929150611636565b5090565b60408051808201909152600081526060602082015290565b8280548282559060005260206000209081019282156115d3579160200282015b828111156115d357825182559160200191906001019061161b565b6108bf91905b808211156115df576000815560010161163c560008c379a000000000000000000000000000000000000000000000000000000000a165627a7a7230582010acce228649878437957c2e239890a43dd35a7bfcec876993458a17f50b8b580029",
  "source": "pragma solidity ^0.4.25;\r\n\r\nimport \"membershipverificationtoken/contracts/ERC1261MetaData.sol\";\r\n\r\n\r\ncontract Vault is ERC1261MetaData {\r\n    uint public fee;\r\n    uint public issuerFee;\r\n\r\n    constructor(bytes32 _orgName, bytes32 _orgSymbol, uint _fee, uint _issuerFee) public \r\n        ERC1261MetaData(_orgName, _orgSymbol) {\r\n        fee = _fee;\r\n        issuerFee = _issuerFee;\r\n    }\r\n\r\n    function modifyFee(uint _newFee) external onlyOwner {\r\n        fee = _newFee;\r\n    }\r\n\r\n    function modifyIssuerFee(uint _newFee) external onlyOwner {\r\n        issuerFee = _newFee;\r\n    }\r\n\r\n    function requestMembership(uint[] _attributeIndexes) external payable {\r\n        require(!isCurrentMember(msg.sender), \"Already a member\");\r\n        if (_attributeIndexes[1] == 0) \r\n            require(msg.value >= issuerFee, \"Not enough fee for issuer\");\r\n        else \r\n            require(msg.value >= fee, \"Not enough ether sent for membership\");\r\n        \r\n        PendingRequest storage request = pendingRequests[msg.sender];\r\n        request.isPending = true;\r\n        request.attributes = _attributeIndexes;\r\n        emit RequestedMembership(msg.sender);\r\n        address admin = owner();\r\n        admin.transfer(msg.value);\r\n    }\r\n}",
  "sourcePath": "C:/Users/Naina/source/repos/vault-sc/contracts/testContracts/Vault.sol",
  "compiler": {
    "name": "solc",
    "version": "0.4.25+commit.59dbf8f1.Emscripten.clang"
  },
  "schemaVersion": "3.0.0-beta.0",
  "updatedAt": "2018-12-04T23:27:25.782Z"
}